{
  "contracts/MyNft.sol": {
    "MyNFT": {
      "abi": [
        {
          "inputs": [],
          "stateMutability": "nonpayable",
          "type": "constructor"
        },
        {
          "anonymous": false,
          "inputs": [
            {
              "indexed": true,
              "internalType": "address",
              "name": "account",
              "type": "address"
            },
            {
              "indexed": true,
              "internalType": "address",
              "name": "operator",
              "type": "address"
            },
            {
              "indexed": false,
              "internalType": "bool",
              "name": "approved",
              "type": "bool"
            }
          ],
          "name": "ApprovalForAll",
          "type": "event"
        },
        {
          "anonymous": false,
          "inputs": [
            {
              "indexed": true,
              "internalType": "address",
              "name": "operator",
              "type": "address"
            },
            {
              "indexed": true,
              "internalType": "address",
              "name": "from",
              "type": "address"
            },
            {
              "indexed": true,
              "internalType": "address",
              "name": "to",
              "type": "address"
            },
            {
              "indexed": false,
              "internalType": "uint256[]",
              "name": "ids",
              "type": "uint256[]"
            },
            {
              "indexed": false,
              "internalType": "uint256[]",
              "name": "values",
              "type": "uint256[]"
            }
          ],
          "name": "TransferBatch",
          "type": "event"
        },
        {
          "anonymous": false,
          "inputs": [
            {
              "indexed": true,
              "internalType": "address",
              "name": "operator",
              "type": "address"
            },
            {
              "indexed": true,
              "internalType": "address",
              "name": "from",
              "type": "address"
            },
            {
              "indexed": true,
              "internalType": "address",
              "name": "to",
              "type": "address"
            },
            {
              "indexed": false,
              "internalType": "uint256",
              "name": "id",
              "type": "uint256"
            },
            {
              "indexed": false,
              "internalType": "uint256",
              "name": "value",
              "type": "uint256"
            }
          ],
          "name": "TransferSingle",
          "type": "event"
        },
        {
          "anonymous": false,
          "inputs": [
            {
              "indexed": false,
              "internalType": "string",
              "name": "value",
              "type": "string"
            },
            {
              "indexed": true,
              "internalType": "uint256",
              "name": "id",
              "type": "uint256"
            }
          ],
          "name": "URI",
          "type": "event"
        },
        {
          "inputs": [
            {
              "internalType": "uint256",
              "name": "",
              "type": "uint256"
            }
          ],
          "name": "Imagelist",
          "outputs": [
            {
              "internalType": "uint256",
              "name": "id",
              "type": "uint256"
            },
            {
              "internalType": "string",
              "name": "assetName",
              "type": "string"
            },
            {
              "internalType": "string",
              "name": "assetQuantity",
              "type": "string"
            },
            {
              "internalType": "string",
              "name": "assetUom",
              "type": "string"
            },
            {
              "internalType": "string",
              "name": "expiryDate",
              "type": "string"
            },
            {
              "internalType": "string",
              "name": "effectiveDate",
              "type": "string"
            },
            {
              "internalType": "string",
              "name": "description",
              "type": "string"
            },
            {
              "internalType": "string",
              "name": "datetime",
              "type": "string"
            },
            {
              "internalType": "address",
              "name": "owner",
              "type": "address"
            },
            {
              "internalType": "bool",
              "name": "sale",
              "type": "bool"
            },
            {
              "internalType": "string",
              "name": "provinance_hash",
              "type": "string"
            }
          ],
          "stateMutability": "view",
          "type": "function"
        },
        {
          "inputs": [
            {
              "internalType": "string",
              "name": "",
              "type": "string"
            }
          ],
          "name": "assetIds",
          "outputs": [
            {
              "internalType": "uint256",
              "name": "",
              "type": "uint256"
            }
          ],
          "stateMutability": "view",
          "type": "function"
        },
        {
          "inputs": [
            {
              "internalType": "address",
              "name": "account",
              "type": "address"
            },
            {
              "internalType": "uint256",
              "name": "id",
              "type": "uint256"
            }
          ],
          "name": "balanceOf",
          "outputs": [
            {
              "internalType": "uint256",
              "name": "",
              "type": "uint256"
            }
          ],
          "stateMutability": "view",
          "type": "function"
        },
        {
          "inputs": [
            {
              "internalType": "address[]",
              "name": "accounts",
              "type": "address[]"
            },
            {
              "internalType": "uint256[]",
              "name": "ids",
              "type": "uint256[]"
            }
          ],
          "name": "balanceOfBatch",
          "outputs": [
            {
              "internalType": "uint256[]",
              "name": "",
              "type": "uint256[]"
            }
          ],
          "stateMutability": "view",
          "type": "function"
        },
        {
          "inputs": [
            {
              "internalType": "uint256",
              "name": "id",
              "type": "uint256"
            },
            {
              "internalType": "address",
              "name": "to",
              "type": "address"
            }
          ],
          "name": "buy",
          "outputs": [],
          "stateMutability": "nonpayable",
          "type": "function"
        },
        {
          "inputs": [
            {
              "internalType": "address",
              "name": "account",
              "type": "address"
            },
            {
              "internalType": "address",
              "name": "operator",
              "type": "address"
            }
          ],
          "name": "isApprovedForAll",
          "outputs": [
            {
              "internalType": "bool",
              "name": "",
              "type": "bool"
            }
          ],
          "stateMutability": "view",
          "type": "function"
        },
        {
          "inputs": [],
          "name": "le",
          "outputs": [
            {
              "internalType": "uint256",
              "name": "",
              "type": "uint256"
            }
          ],
          "stateMutability": "view",
          "type": "function"
        },
        {
          "inputs": [
            {
              "internalType": "string",
              "name": "assetName",
              "type": "string"
            },
            {
              "internalType": "string",
              "name": "assetQuantity",
              "type": "string"
            },
            {
              "internalType": "string",
              "name": "assetUom",
              "type": "string"
            },
            {
              "internalType": "string",
              "name": "expiryDate",
              "type": "string"
            },
            {
              "internalType": "string",
              "name": "effectiveDate",
              "type": "string"
            },
            {
              "internalType": "string",
              "name": "description",
              "type": "string"
            },
            {
              "internalType": "string",
              "name": "datetime",
              "type": "string"
            },
            {
              "internalType": "address",
              "name": "owner",
              "type": "address"
            },
            {
              "internalType": "string",
              "name": "provinance_hash",
              "type": "string"
            }
          ],
          "name": "mintNFT",
          "outputs": [
            {
              "internalType": "uint256",
              "name": "",
              "type": "uint256"
            }
          ],
          "stateMutability": "nonpayable",
          "type": "function"
        },
        {
          "inputs": [],
          "name": "platform",
          "outputs": [
            {
              "internalType": "address",
              "name": "",
              "type": "address"
            }
          ],
          "stateMutability": "view",
          "type": "function"
        },
        {
          "inputs": [
            {
              "internalType": "uint256",
              "name": "id",
              "type": "uint256"
            }
          ],
          "name": "putOnSale",
          "outputs": [],
          "stateMutability": "nonpayable",
          "type": "function"
        },
        {
          "inputs": [
            {
              "internalType": "address",
              "name": "from",
              "type": "address"
            },
            {
              "internalType": "address",
              "name": "to",
              "type": "address"
            },
            {
              "internalType": "uint256[]",
              "name": "ids",
              "type": "uint256[]"
            },
            {
              "internalType": "uint256[]",
              "name": "amounts",
              "type": "uint256[]"
            },
            {
              "internalType": "bytes",
              "name": "data",
              "type": "bytes"
            }
          ],
          "name": "safeBatchTransferFrom",
          "outputs": [],
          "stateMutability": "nonpayable",
          "type": "function"
        },
        {
          "inputs": [
            {
              "internalType": "address",
              "name": "from",
              "type": "address"
            },
            {
              "internalType": "address",
              "name": "to",
              "type": "address"
            },
            {
              "internalType": "uint256",
              "name": "id",
              "type": "uint256"
            },
            {
              "internalType": "uint256",
              "name": "amount",
              "type": "uint256"
            },
            {
              "internalType": "bytes",
              "name": "data",
              "type": "bytes"
            }
          ],
          "name": "safeTransferFrom",
          "outputs": [],
          "stateMutability": "nonpayable",
          "type": "function"
        },
        {
          "inputs": [
            {
              "internalType": "address",
              "name": "operator",
              "type": "address"
            },
            {
              "internalType": "bool",
              "name": "approved",
              "type": "bool"
            }
          ],
          "name": "setApprovalForAll",
          "outputs": [],
          "stateMutability": "nonpayable",
          "type": "function"
        },
        {
          "inputs": [
            {
              "internalType": "bytes4",
              "name": "interfaceId",
              "type": "bytes4"
            }
          ],
          "name": "supportsInterface",
          "outputs": [
            {
              "internalType": "bool",
              "name": "",
              "type": "bool"
            }
          ],
          "stateMutability": "view",
          "type": "function"
        },
        {
          "inputs": [
            {
              "internalType": "string",
              "name": "assetName",
              "type": "string"
            },
            {
              "internalType": "address",
              "name": "to",
              "type": "address"
            }
          ],
          "name": "transfer",
          "outputs": [],
          "stateMutability": "nonpayable",
          "type": "function"
        },
        {
          "inputs": [
            {
              "internalType": "uint256",
              "name": "",
              "type": "uint256"
            }
          ],
          "name": "uri",
          "outputs": [
            {
              "internalType": "string",
              "name": "",
              "type": "string"
            }
          ],
          "stateMutability": "view",
          "type": "function"
        }
      ],
      "evm": {
        "bytecode": {
          "linkReferences": {},
          "object": "60806040523480156200001157600080fd5b506040518060200160405280600081525062000033816200011760201b60201c565b5033600360006101000a81548173ffffffffffffffffffffffffffffffffffffffff021916908373ffffffffffffffffffffffffffffffffffffffff1602179055506040518060400160405280600781526020017f736e61707065720000000000000000000000000000000000000000000000000081525060069080519060200190620000c292919062000133565b506040518060400160405280600781526020017f736e617070657200000000000000000000000000000000000000000000000000815250600790805190602001906200011092919062000133565b5062000248565b80600290805190602001906200012f92919062000133565b5050565b8280546200014190620001e3565b90600052602060002090601f016020900481019282620001655760008555620001b1565b82601f106200018057805160ff1916838001178555620001b1565b82800160010185558215620001b1579182015b82811115620001b057825182559160200191906001019062000193565b5b509050620001c09190620001c4565b5090565b5b80821115620001df576000816000905550600101620001c5565b5090565b60006002820490506001821680620001fc57607f821691505b6020821081141562000213576200021262000219565b5b50919050565b7f4e487b7100000000000000000000000000000000000000000000000000000000600052602260045260246000fd5b61392480620002586000396000f3fe608060405234801561001057600080fd5b50600436106100ff5760003560e01c806367e2ddb811610097578063dcc7837711610066578063dcc78377146102ec578063e985e9c51461030a578063f242432a1461033a578063fbf58b3e14610356576100ff565b806367e2ddb81461025e5780637deb6025146102985780639dbcfd6f146102b4578063a22cb465146102d0576100ff565b80634889ca90116100d35780634889ca90146101b05780634bde38c8146101e05780634e1273f4146101fe5780634ec71ef51461022e576100ff565b8062fdd58e1461010457806301ffc9a7146101345780630e89341c146101645780632eb2c2d614610194575b600080fd5b61011e600480360381019061011991906125ba565b610372565b60405161012b9190612f48565b60405180910390f35b61014e60048036038101906101499190612672565b61043b565b60405161015b9190612dab565b60405180910390f35b61017e6004803603810190610179919061291b565b61051d565b60405161018b9190612dc6565b60405180910390f35b6101ae60048036038101906101a99190612414565b6105b1565b005b6101ca60048036038101906101c591906126cc565b610652565b6040516101d79190612f48565b60405180910390f35b6101e8610680565b6040516101f59190612c75565b60405180910390f35b610218600480360381019061021391906125fa565b6106a6565b6040516102259190612d52565b60405180910390f35b61024860048036038101906102439190612771565b6107bf565b6040516102559190612f48565b60405180910390f35b6102786004803603810190610273919061291b565b610a37565b60405161028f9b9a99989796959493929190612f63565b60405180910390f35b6102b260048036038101906102ad9190612948565b610f0e565b005b6102ce60048036038101906102c9919061291b565b61101c565b005b6102ea60048036038101906102e5919061257a565b6110dd565b005b6102f46110f3565b6040516103019190612f48565b60405180910390f35b610324600480360381019061031f91906123d4565b611105565b6040516103319190612dab565b60405180910390f35b610354600480360381019061034f91906124e3565b611199565b005b610370600480360381019061036b9190612715565b61123a565b005b60008073ffffffffffffffffffffffffffffffffffffffff168373ffffffffffffffffffffffffffffffffffffffff1614156103e3576040517f08c379a00000000000000000000000000000000000000000000000000000000081526004016103da90612e28565b60405180910390fd5b60008083815260200190815260200160002060008473ffffffffffffffffffffffffffffffffffffffff1673ffffffffffffffffffffffffffffffffffffffff16815260200190815260200160002054905092915050565b60007fd9b67a26000000000000000000000000000000000000000000000000000000007bffffffffffffffffffffffffffffffffffffffffffffffffffffffff1916827bffffffffffffffffffffffffffffffffffffffffffffffffffffffff1916148061050657507f0e89341c000000000000000000000000000000000000000000000000000000007bffffffffffffffffffffffffffffffffffffffffffffffffffffffff1916827bffffffffffffffffffffffffffffffffffffffffffffffffffffffff1916145b8061051657506105158261132e565b5b9050919050565b60606002805461052c906132d6565b80601f0160208091040260200160405190810160405280929190818152602001828054610558906132d6565b80156105a55780601f1061057a576101008083540402835291602001916105a5565b820191906000526020600020905b81548152906001019060200180831161058857829003601f168201915b50505050509050919050565b6105b9611398565b73ffffffffffffffffffffffffffffffffffffffff168573ffffffffffffffffffffffffffffffffffffffff1614806105ff57506105fe856105f9611398565b611105565b5b61063e576040517f08c379a000000000000000000000000000000000000000000000000000000000815260040161063590612e88565b60405180910390fd5b61064b85858585856113a0565b5050505050565b6005818051602081018201805184825260208301602085012081835280955050505050506000915090505481565b600360009054906101000a900473ffffffffffffffffffffffffffffffffffffffff1681565b606081518351146106ec576040517f08c379a00000000000000000000000000000000000000000000000000000000081526004016106e390612ee8565b60405180910390fd5b6000835167ffffffffffffffff8111156107095761070861340f565b5b6040519080825280602002602001820160405280156107375781602001602082028036833780820191505090505b50905060005b84518110156107b45761078485828151811061075c5761075b6133e0565b5b6020026020010151858381518110610777576107766133e0565b5b6020026020010151610372565b828281518110610797576107966133e0565b5b602002602001018181525050806107ad90613339565b905061073d565b508091505092915050565b60008060048054905090506107f7600360009054906101000a900473ffffffffffffffffffffffffffffffffffffffff1660016110dd565b600060046040518061016001604052808481526020018e81526020018d81526020018c81526020018b81526020018a81526020018981526020018881526020018773ffffffffffffffffffffffffffffffffffffffff16815260200183151581526020018681525090806001815401808255809150506001900390600052602060002090600a02016000909190919091506000820151816000015560208201518160010190805190602001906108ae9291906120ac565b5060408201518160020190805190602001906108cb9291906120ac565b5060608201518160030190805190602001906108e89291906120ac565b5060808201518160040190805190602001906109059291906120ac565b5060a08201518160050190805190602001906109229291906120ac565b5060c082015181600601908051906020019061093f9291906120ac565b5060e082015181600701908051906020019061095c9291906120ac565b506101008201518160080160006101000a81548173ffffffffffffffffffffffffffffffffffffffff021916908373ffffffffffffffffffffffffffffffffffffffff1602179055506101208201518160080160146101000a81548160ff0219169083151502179055506101408201518160090190805190602001906109e39291906120ac565b505050610a0285836001604051806020016040528060008152506116b4565b8160058d604051610a139190612c5e565b90815260200160405180910390208190555081925050509998505050505050505050565b60048181548110610a4757600080fd5b90600052602060002090600a0201600091509050806000015490806001018054610a70906132d6565b80601f0160208091040260200160405190810160405280929190818152602001828054610a9c906132d6565b8015610ae95780601f10610abe57610100808354040283529160200191610ae9565b820191906000526020600020905b815481529060010190602001808311610acc57829003601f168201915b505050505090806002018054610afe906132d6565b80601f0160208091040260200160405190810160405280929190818152602001828054610b2a906132d6565b8015610b775780601f10610b4c57610100808354040283529160200191610b77565b820191906000526020600020905b815481529060010190602001808311610b5a57829003601f168201915b505050505090806003018054610b8c906132d6565b80601f0160208091040260200160405190810160405280929190818152602001828054610bb8906132d6565b8015610c055780601f10610bda57610100808354040283529160200191610c05565b820191906000526020600020905b815481529060010190602001808311610be857829003601f168201915b505050505090806004018054610c1a906132d6565b80601f0160208091040260200160405190810160405280929190818152602001828054610c46906132d6565b8015610c935780601f10610c6857610100808354040283529160200191610c93565b820191906000526020600020905b815481529060010190602001808311610c7657829003601f168201915b505050505090806005018054610ca8906132d6565b80601f0160208091040260200160405190810160405280929190818152602001828054610cd4906132d6565b8015610d215780601f10610cf657610100808354040283529160200191610d21565b820191906000526020600020905b815481529060010190602001808311610d0457829003601f168201915b505050505090806006018054610d36906132d6565b80601f0160208091040260200160405190810160405280929190818152602001828054610d62906132d6565b8015610daf5780601f10610d8457610100808354040283529160200191610daf565b820191906000526020600020905b815481529060010190602001808311610d9257829003601f168201915b505050505090806007018054610dc4906132d6565b80601f0160208091040260200160405190810160405280929190818152602001828054610df0906132d6565b8015610e3d5780601f10610e1257610100808354040283529160200191610e3d565b820191906000526020600020905b815481529060010190602001808311610e2057829003601f168201915b5050505050908060080160009054906101000a900473ffffffffffffffffffffffffffffffffffffffff16908060080160149054906101000a900460ff1690806009018054610e8b906132d6565b80601f0160208091040260200160405190810160405280929190818152602001828054610eb7906132d6565b8015610f045780601f10610ed957610100808354040283529160200191610f04565b820191906000526020600020905b815481529060010190602001808311610ee757829003601f168201915b505050505090508b565b600060048381548110610f2457610f236133e0565b5b90600052602060002090600a020160080160009054906101000a900473ffffffffffffffffffffffffffffffffffffffff169050610f7581338560016040518060200160405280600081525061184a565b8160048481548110610f8a57610f896133e0565b5b90600052602060002090600a020160080160006101000a81548173ffffffffffffffffffffffffffffffffffffffff021916908373ffffffffffffffffffffffffffffffffffffffff160217905550600060048481548110610fef57610fee6133e0565b5b90600052602060002090600a020160080160146101000a81548160ff021916908315150217905550505050565b600060048281548110611032576110316133e0565b5b90600052602060002090600a020160080160009054906101000a900473ffffffffffffffffffffffffffffffffffffffff1690503373ffffffffffffffffffffffffffffffffffffffff168173ffffffffffffffffffffffffffffffffffffffff1614156110d9576001600483815481106110b0576110af6133e0565b5b90600052602060002090600a020160080160146101000a81548160ff0219169083151502179055505b5050565b6110ef6110e8611398565b8383611acc565b5050565b60008060048054905090508091505090565b6000600160008473ffffffffffffffffffffffffffffffffffffffff1673ffffffffffffffffffffffffffffffffffffffff16815260200190815260200160002060008373ffffffffffffffffffffffffffffffffffffffff1673ffffffffffffffffffffffffffffffffffffffff16815260200190815260200160002060009054906101000a900460ff16905092915050565b6111a1611398565b73ffffffffffffffffffffffffffffffffffffffff168573ffffffffffffffffffffffffffffffffffffffff1614806111e757506111e6856111e1611398565b611105565b5b611226576040517f08c379a000000000000000000000000000000000000000000000000000000000815260040161121d90612e48565b60405180910390fd5b611233858585858561184a565b5050505050565b600060058360405161124c9190612c5e565b9081526020016040518091039020549050600060048281548110611273576112726133e0565b5b90600052602060002090600a020160080160009054906101000a900473ffffffffffffffffffffffffffffffffffffffff1690506112c481848460016040518060200160405280600081525061184a565b82600483815481106112d9576112d86133e0565b5b90600052602060002090600a020160080160006101000a81548173ffffffffffffffffffffffffffffffffffffffff021916908373ffffffffffffffffffffffffffffffffffffffff16021790555050505050565b60007f01ffc9a7000000000000000000000000000000000000000000000000000000007bffffffffffffffffffffffffffffffffffffffffffffffffffffffff1916827bffffffffffffffffffffffffffffffffffffffffffffffffffffffff1916149050919050565b600033905090565b81518351146113e4576040517f08c379a00000000000000000000000000000000000000000000000000000000081526004016113db90612f08565b60405180910390fd5b600073ffffffffffffffffffffffffffffffffffffffff168473ffffffffffffffffffffffffffffffffffffffff161415611454576040517f08c379a000000000000000000000000000000000000000000000000000000000815260040161144b90612e68565b60405180910390fd5b600061145e611398565b905061146e818787878787611c39565b60005b845181101561161f57600085828151811061148f5761148e6133e0565b5b6020026020010151905060008583815181106114ae576114ad6133e0565b5b60200260200101519050600080600084815260200190815260200160002060008b73ffffffffffffffffffffffffffffffffffffffff1673ffffffffffffffffffffffffffffffffffffffff1681526020019081526020016000205490508181101561154f576040517f08c379a000000000000000000000000000000000000000000000000000000000815260040161154690612ea8565b60405180910390fd5b81810360008085815260200190815260200160002060008c73ffffffffffffffffffffffffffffffffffffffff1673ffffffffffffffffffffffffffffffffffffffff168152602001908152602001600020819055508160008085815260200190815260200160002060008b73ffffffffffffffffffffffffffffffffffffffff1673ffffffffffffffffffffffffffffffffffffffff168152602001908152602001600020600082825461160491906131ca565b925050819055505050508061161890613339565b9050611471565b508473ffffffffffffffffffffffffffffffffffffffff168673ffffffffffffffffffffffffffffffffffffffff168273ffffffffffffffffffffffffffffffffffffffff167f4a39dc06d4c0dbc64b70af90fd698a233a518aa5d07e595d983b8c0526c8f7fb8787604051611696929190612d74565b60405180910390a46116ac818787878787611c41565b505050505050565b600073ffffffffffffffffffffffffffffffffffffffff168473ffffffffffffffffffffffffffffffffffffffff161415611724576040517f08c379a000000000000000000000000000000000000000000000000000000000815260040161171b90612f28565b60405180910390fd5b600061172e611398565b905061174f8160008761174088611e28565b61174988611e28565b87611c39565b8260008086815260200190815260200160002060008773ffffffffffffffffffffffffffffffffffffffff1673ffffffffffffffffffffffffffffffffffffffff16815260200190815260200160002060008282546117ae91906131ca565b925050819055508473ffffffffffffffffffffffffffffffffffffffff16600073ffffffffffffffffffffffffffffffffffffffff168273ffffffffffffffffffffffffffffffffffffffff167fc3d58168c5ae7397731d063d5bbf3d657854427343f4c083240f7aacaa2d0f62878760405161182c929190613046565b60405180910390a461184381600087878787611ea2565b5050505050565b600073ffffffffffffffffffffffffffffffffffffffff168473ffffffffffffffffffffffffffffffffffffffff1614156118ba576040517f08c379a00000000000000000000000000000000000000000000000000000000081526004016118b190612e68565b60405180910390fd5b60006118c4611398565b90506118e48187876118d588611e28565b6118de88611e28565b87611c39565b600080600086815260200190815260200160002060008873ffffffffffffffffffffffffffffffffffffffff1673ffffffffffffffffffffffffffffffffffffffff1681526020019081526020016000205490508381101561197b576040517f08c379a000000000000000000000000000000000000000000000000000000000815260040161197290612ea8565b60405180910390fd5b83810360008087815260200190815260200160002060008973ffffffffffffffffffffffffffffffffffffffff1673ffffffffffffffffffffffffffffffffffffffff168152602001908152602001600020819055508360008087815260200190815260200160002060008873ffffffffffffffffffffffffffffffffffffffff1673ffffffffffffffffffffffffffffffffffffffff1681526020019081526020016000206000828254611a3091906131ca565b925050819055508573ffffffffffffffffffffffffffffffffffffffff168773ffffffffffffffffffffffffffffffffffffffff168373ffffffffffffffffffffffffffffffffffffffff167fc3d58168c5ae7397731d063d5bbf3d657854427343f4c083240f7aacaa2d0f628888604051611aad929190613046565b60405180910390a4611ac3828888888888611ea2565b50505050505050565b8173ffffffffffffffffffffffffffffffffffffffff168373ffffffffffffffffffffffffffffffffffffffff161415611b3b576040517f08c379a0000000000000000000000000000000000000000000000000000000008152600401611b3290612ec8565b60405180910390fd5b80600160008573ffffffffffffffffffffffffffffffffffffffff1673ffffffffffffffffffffffffffffffffffffffff16815260200190815260200160002060008473ffffffffffffffffffffffffffffffffffffffff1673ffffffffffffffffffffffffffffffffffffffff16815260200190815260200160002060006101000a81548160ff0219169083151502179055508173ffffffffffffffffffffffffffffffffffffffff168373ffffffffffffffffffffffffffffffffffffffff167f17307eab39ab6107e8899845ad3d59bd9653f200f220920489ca2b5937696c3183604051611c2c9190612dab565b60405180910390a3505050565b505050505050565b611c608473ffffffffffffffffffffffffffffffffffffffff16612089565b15611e20578373ffffffffffffffffffffffffffffffffffffffff1663bc197c8187878686866040518663ffffffff1660e01b8152600401611ca6959493929190612c90565b602060405180830381600087803b158015611cc057600080fd5b505af1925050508015611cf157506040513d601f19601f82011682018060405250810190611cee919061269f565b60015b611d9757611cfd61343e565b806308c379a01415611d5a5750611d126137fc565b80611d1d5750611d5c565b806040517f08c379a0000000000000000000000000000000000000000000000000000000008152600401611d519190612dc6565b60405180910390fd5b505b6040517f08c379a0000000000000000000000000000000000000000000000000000000008152600401611d8e90612de8565b60405180910390fd5b63bc197c8160e01b7bffffffffffffffffffffffffffffffffffffffffffffffffffffffff1916817bffffffffffffffffffffffffffffffffffffffffffffffffffffffff191614611e1e576040517f08c379a0000000000000000000000000000000000000000000000000000000008152600401611e1590612e08565b60405180910390fd5b505b505050505050565b60606000600167ffffffffffffffff811115611e4757611e4661340f565b5b604051908082528060200260200182016040528015611e755781602001602082028036833780820191505090505b5090508281600081518110611e8d57611e8c6133e0565b5b60200260200101818152505080915050919050565b611ec18473ffffffffffffffffffffffffffffffffffffffff16612089565b15612081578373ffffffffffffffffffffffffffffffffffffffff1663f23a6e6187878686866040518663ffffffff1660e01b8152600401611f07959493929190612cf8565b602060405180830381600087803b158015611f2157600080fd5b505af1925050508015611f5257506040513d601f19601f82011682018060405250810190611f4f919061269f565b60015b611ff857611f5e61343e565b806308c379a01415611fbb5750611f736137fc565b80611f7e5750611fbd565b806040517f08c379a0000000000000000000000000000000000000000000000000000000008152600401611fb29190612dc6565b60405180910390fd5b505b6040517f08c379a0000000000000000000000000000000000000000000000000000000008152600401611fef90612de8565b60405180910390fd5b63f23a6e6160e01b7bffffffffffffffffffffffffffffffffffffffffffffffffffffffff1916817bffffffffffffffffffffffffffffffffffffffffffffffffffffffff19161461207f576040517f08c379a000000000000000000000000000000000000000000000000000000000815260040161207690612e08565b60405180910390fd5b505b505050505050565b6000808273ffffffffffffffffffffffffffffffffffffffff163b119050919050565b8280546120b8906132d6565b90600052602060002090601f0160209004810192826120da5760008555612121565b82601f106120f357805160ff1916838001178555612121565b82800160010185558215612121579182015b82811115612120578251825591602001919060010190612105565b5b50905061212e9190612132565b5090565b5b8082111561214b576000816000905550600101612133565b5090565b600061216261215d84613094565b61306f565b9050808382526020820190508285602086028201111561218557612184613465565b5b60005b858110156121b5578161219b88826122b3565b845260208401935060208301925050600181019050612188565b5050509392505050565b60006121d26121cd846130c0565b61306f565b905080838252602082019050828560208602820111156121f5576121f4613465565b5b60005b85811015612225578161220b88826123bf565b8452602084019350602083019250506001810190506121f8565b5050509392505050565b600061224261223d846130ec565b61306f565b90508281526020810184848401111561225e5761225d61346a565b5b612269848285613294565b509392505050565b600061228461227f8461311d565b61306f565b9050828152602081018484840111156122a05761229f61346a565b5b6122ab848285613294565b509392505050565b6000813590506122c281613892565b92915050565b600082601f8301126122dd576122dc613460565b5b81356122ed84826020860161214f565b91505092915050565b600082601f83011261230b5761230a613460565b5b813561231b8482602086016121bf565b91505092915050565b600081359050612333816138a9565b92915050565b600081359050612348816138c0565b92915050565b60008151905061235d816138c0565b92915050565b600082601f83011261237857612377613460565b5b813561238884826020860161222f565b91505092915050565b600082601f8301126123a6576123a5613460565b5b81356123b6848260208601612271565b91505092915050565b6000813590506123ce816138d7565b92915050565b600080604083850312156123eb576123ea613474565b5b60006123f9858286016122b3565b925050602061240a858286016122b3565b9150509250929050565b600080600080600060a086880312156124305761242f613474565b5b600061243e888289016122b3565b955050602061244f888289016122b3565b945050604086013567ffffffffffffffff8111156124705761246f61346f565b5b61247c888289016122f6565b935050606086013567ffffffffffffffff81111561249d5761249c61346f565b5b6124a9888289016122f6565b925050608086013567ffffffffffffffff8111156124ca576124c961346f565b5b6124d688828901612363565b9150509295509295909350565b600080600080600060a086880312156124ff576124fe613474565b5b600061250d888289016122b3565b955050602061251e888289016122b3565b945050604061252f888289016123bf565b9350506060612540888289016123bf565b925050608086013567ffffffffffffffff8111156125615761256061346f565b5b61256d88828901612363565b9150509295509295909350565b6000806040838503121561259157612590613474565b5b600061259f858286016122b3565b92505060206125b085828601612324565b9150509250929050565b600080604083850312156125d1576125d0613474565b5b60006125df858286016122b3565b92505060206125f0858286016123bf565b9150509250929050565b6000806040838503121561261157612610613474565b5b600083013567ffffffffffffffff81111561262f5761262e61346f565b5b61263b858286016122c8565b925050602083013567ffffffffffffffff81111561265c5761265b61346f565b5b612668858286016122f6565b9150509250929050565b60006020828403121561268857612687613474565b5b600061269684828501612339565b91505092915050565b6000602082840312156126b5576126b4613474565b5b60006126c38482850161234e565b91505092915050565b6000602082840312156126e2576126e1613474565b5b600082013567ffffffffffffffff811115612700576126ff61346f565b5b61270c84828501612391565b91505092915050565b6000806040838503121561272c5761272b613474565b5b600083013567ffffffffffffffff81111561274a5761274961346f565b5b61275685828601612391565b9250506020612767858286016122b3565b9150509250929050565b60008060008060008060008060006101208a8c03121561279457612793613474565b5b60008a013567ffffffffffffffff8111156127b2576127b161346f565b5b6127be8c828d01612391565b99505060208a013567ffffffffffffffff8111156127df576127de61346f565b5b6127eb8c828d01612391565b98505060408a013567ffffffffffffffff81111561280c5761280b61346f565b5b6128188c828d01612391565b97505060608a013567ffffffffffffffff8111156128395761283861346f565b5b6128458c828d01612391565b96505060808a013567ffffffffffffffff8111156128665761286561346f565b5b6128728c828d01612391565b95505060a08a013567ffffffffffffffff8111156128935761289261346f565b5b61289f8c828d01612391565b94505060c08a013567ffffffffffffffff8111156128c0576128bf61346f565b5b6128cc8c828d01612391565b93505060e06128dd8c828d016122b3565b9250506101008a013567ffffffffffffffff8111156128ff576128fe61346f565b5b61290b8c828d01612391565b9150509295985092959850929598565b60006020828403121561293157612930613474565b5b600061293f848285016123bf565b91505092915050565b6000806040838503121561295f5761295e613474565b5b600061296d858286016123bf565b925050602061297e858286016122b3565b9150509250929050565b60006129948383612c40565b60208301905092915050565b6129a981613220565b82525050565b60006129ba8261315e565b6129c4818561318c565b93506129cf8361314e565b8060005b83811015612a005781516129e78882612988565b97506129f28361317f565b9250506001810190506129d3565b5085935050505092915050565b612a1681613232565b82525050565b6000612a2782613169565b612a31818561319d565b9350612a418185602086016132a3565b612a4a81613479565b840191505092915050565b6000612a6082613174565b612a6a81856131ae565b9350612a7a8185602086016132a3565b612a8381613479565b840191505092915050565b6000612a9982613174565b612aa381856131bf565b9350612ab38185602086016132a3565b80840191505092915050565b6000612acc6034836131ae565b9150612ad782613497565b604082019050919050565b6000612aef6028836131ae565b9150612afa826134e6565b604082019050919050565b6000612b12602b836131ae565b9150612b1d82613535565b604082019050919050565b6000612b356029836131ae565b9150612b4082613584565b604082019050919050565b6000612b586025836131ae565b9150612b63826135d3565b604082019050919050565b6000612b7b6032836131ae565b9150612b8682613622565b604082019050919050565b6000612b9e602a836131ae565b9150612ba982613671565b604082019050919050565b6000612bc16029836131ae565b9150612bcc826136c0565b604082019050919050565b6000612be46029836131ae565b9150612bef8261370f565b604082019050919050565b6000612c076028836131ae565b9150612c128261375e565b604082019050919050565b6000612c2a6021836131ae565b9150612c35826137ad565b604082019050919050565b612c498161328a565b82525050565b612c588161328a565b82525050565b6000612c6a8284612a8e565b915081905092915050565b6000602082019050612c8a60008301846129a0565b92915050565b600060a082019050612ca560008301886129a0565b612cb260208301876129a0565b8181036040830152612cc481866129af565b90508181036060830152612cd881856129af565b90508181036080830152612cec8184612a1c565b90509695505050505050565b600060a082019050612d0d60008301886129a0565b612d1a60208301876129a0565b612d276040830186612c4f565b612d346060830185612c4f565b8181036080830152612d468184612a1c565b90509695505050505050565b60006020820190508181036000830152612d6c81846129af565b905092915050565b60006040820190508181036000830152612d8e81856129af565b90508181036020830152612da281846129af565b90509392505050565b6000602082019050612dc06000830184612a0d565b92915050565b60006020820190508181036000830152612de08184612a55565b905092915050565b60006020820190508181036000830152612e0181612abf565b9050919050565b60006020820190508181036000830152612e2181612ae2565b9050919050565b60006020820190508181036000830152612e4181612b05565b9050919050565b60006020820190508181036000830152612e6181612b28565b9050919050565b60006020820190508181036000830152612e8181612b4b565b9050919050565b60006020820190508181036000830152612ea181612b6e565b9050919050565b60006020820190508181036000830152612ec181612b91565b9050919050565b60006020820190508181036000830152612ee181612bb4565b9050919050565b60006020820190508181036000830152612f0181612bd7565b9050919050565b60006020820190508181036000830152612f2181612bfa565b9050919050565b60006020820190508181036000830152612f4181612c1d565b9050919050565b6000602082019050612f5d6000830184612c4f565b92915050565b600061016082019050612f79600083018e612c4f565b8181036020830152612f8b818d612a55565b90508181036040830152612f9f818c612a55565b90508181036060830152612fb3818b612a55565b90508181036080830152612fc7818a612a55565b905081810360a0830152612fdb8189612a55565b905081810360c0830152612fef8188612a55565b905081810360e08301526130038187612a55565b90506130136101008301866129a0565b613021610120830185612a0d565b8181036101408301526130348184612a55565b90509c9b505050505050505050505050565b600060408201905061305b6000830185612c4f565b6130686020830184612c4f565b9392505050565b600061307961308a565b90506130858282613308565b919050565b6000604051905090565b600067ffffffffffffffff8211156130af576130ae61340f565b5b602082029050602081019050919050565b600067ffffffffffffffff8211156130db576130da61340f565b5b602082029050602081019050919050565b600067ffffffffffffffff8211156131075761310661340f565b5b61311082613479565b9050602081019050919050565b600067ffffffffffffffff8211156131385761313761340f565b5b61314182613479565b9050602081019050919050565b6000819050602082019050919050565b600081519050919050565b600081519050919050565b600081519050919050565b6000602082019050919050565b600082825260208201905092915050565b600082825260208201905092915050565b600082825260208201905092915050565b600081905092915050565b60006131d58261328a565b91506131e08361328a565b9250827fffffffffffffffffffffffffffffffffffffffffffffffffffffffffffffffff0382111561321557613214613382565b5b828201905092915050565b600061322b8261326a565b9050919050565b60008115159050919050565b60007fffffffff0000000000000000000000000000000000000000000000000000000082169050919050565b600073ffffffffffffffffffffffffffffffffffffffff82169050919050565b6000819050919050565b82818337600083830152505050565b60005b838110156132c15780820151818401526020810190506132a6565b838111156132d0576000848401525b50505050565b600060028204905060018216806132ee57607f821691505b60208210811415613302576133016133b1565b5b50919050565b61331182613479565b810181811067ffffffffffffffff821117156133305761332f61340f565b5b80604052505050565b60006133448261328a565b91507fffffffffffffffffffffffffffffffffffffffffffffffffffffffffffffffff82141561337757613376613382565b5b600182019050919050565b7f4e487b7100000000000000000000000000000000000000000000000000000000600052601160045260246000fd5b7f4e487b7100000000000000000000000000000000000000000000000000000000600052602260045260246000fd5b7f4e487b7100000000000000000000000000000000000000000000000000000000600052603260045260246000fd5b7f4e487b7100000000000000000000000000000000000000000000000000000000600052604160045260246000fd5b600060033d111561345d5760046000803e61345a60005161348a565b90505b90565b600080fd5b600080fd5b600080fd5b600080fd5b600080fd5b6000601f19601f8301169050919050565b60008160e01c9050919050565b7f455243313135353a207472616e7366657220746f206e6f6e204552433131353560008201527f526563656976657220696d706c656d656e746572000000000000000000000000602082015250565b7f455243313135353a204552433131353552656365697665722072656a6563746560008201527f6420746f6b656e73000000000000000000000000000000000000000000000000602082015250565b7f455243313135353a2062616c616e636520717565727920666f7220746865207a60008201527f65726f2061646472657373000000000000000000000000000000000000000000602082015250565b7f455243313135353a2063616c6c6572206973206e6f74206f776e6572206e6f7260008201527f20617070726f7665640000000000000000000000000000000000000000000000602082015250565b7f455243313135353a207472616e7366657220746f20746865207a65726f20616460008201527f6472657373000000000000000000000000000000000000000000000000000000602082015250565b7f455243313135353a207472616e736665722063616c6c6572206973206e6f742060008201527f6f776e6572206e6f7220617070726f7665640000000000000000000000000000602082015250565b7f455243313135353a20696e73756666696369656e742062616c616e636520666f60008201527f72207472616e7366657200000000000000000000000000000000000000000000602082015250565b7f455243313135353a2073657474696e6720617070726f76616c2073746174757360008201527f20666f722073656c660000000000000000000000000000000000000000000000602082015250565b7f455243313135353a206163636f756e747320616e6420696473206c656e67746860008201527f206d69736d617463680000000000000000000000000000000000000000000000602082015250565b7f455243313135353a2069647320616e6420616d6f756e7473206c656e6774682060008201527f6d69736d61746368000000000000000000000000000000000000000000000000602082015250565b7f455243313135353a206d696e7420746f20746865207a65726f2061646472657360008201527f7300000000000000000000000000000000000000000000000000000000000000602082015250565b600060443d101561380c5761388f565b61381461308a565b60043d036004823e80513d602482011167ffffffffffffffff8211171561383c57505061388f565b808201805167ffffffffffffffff81111561385a575050505061388f565b80602083010160043d03850181111561387757505050505061388f565b61388682602001850186613308565b82955050505050505b90565b61389b81613220565b81146138a657600080fd5b50565b6138b281613232565b81146138bd57600080fd5b50565b6138c98161323e565b81146138d457600080fd5b50565b6138e08161328a565b81146138eb57600080fd5b5056fea264697066735822122015fe1ec225d6f323857fe07d81a2bc3f212db51bb4529fa2d347bdf450542c6e64736f6c63430008070033",
          "opcodes": "PUSH1 0x80 PUSH1 0x40 MSTORE CALLVALUE DUP1 ISZERO PUSH3 0x11 JUMPI PUSH1 0x0 DUP1 REVERT JUMPDEST POP PUSH1 0x40 MLOAD DUP1 PUSH1 0x20 ADD PUSH1 0x40 MSTORE DUP1 PUSH1 0x0 DUP2 MSTORE POP PUSH3 0x33 DUP2 PUSH3 0x117 PUSH1 0x20 SHL PUSH1 0x20 SHR JUMP JUMPDEST POP CALLER PUSH1 0x3 PUSH1 0x0 PUSH2 0x100 EXP DUP2 SLOAD DUP2 PUSH20 0xFFFFFFFFFFFFFFFFFFFFFFFFFFFFFFFFFFFFFFFF MUL NOT AND SWAP1 DUP4 PUSH20 0xFFFFFFFFFFFFFFFFFFFFFFFFFFFFFFFFFFFFFFFF AND MUL OR SWAP1 SSTORE POP PUSH1 0x40 MLOAD DUP1 PUSH1 0x40 ADD PUSH1 0x40 MSTORE DUP1 PUSH1 0x7 DUP2 MSTORE PUSH1 0x20 ADD PUSH32 0x736E617070657200000000000000000000000000000000000000000000000000 DUP2 MSTORE POP PUSH1 0x6 SWAP1 DUP1 MLOAD SWAP1 PUSH1 0x20 ADD SWAP1 PUSH3 0xC2 SWAP3 SWAP2 SWAP1 PUSH3 0x133 JUMP JUMPDEST POP PUSH1 0x40 MLOAD DUP1 PUSH1 0x40 ADD PUSH1 0x40 MSTORE DUP1 PUSH1 0x7 DUP2 MSTORE PUSH1 0x20 ADD PUSH32 0x736E617070657200000000000000000000000000000000000000000000000000 DUP2 MSTORE POP PUSH1 0x7 SWAP1 DUP1 MLOAD SWAP1 PUSH1 0x20 ADD SWAP1 PUSH3 0x110 SWAP3 SWAP2 SWAP1 PUSH3 0x133 JUMP JUMPDEST POP PUSH3 0x248 JUMP JUMPDEST DUP1 PUSH1 0x2 SWAP1 DUP1 MLOAD SWAP1 PUSH1 0x20 ADD SWAP1 PUSH3 0x12F SWAP3 SWAP2 SWAP1 PUSH3 0x133 JUMP JUMPDEST POP POP JUMP JUMPDEST DUP3 DUP1 SLOAD PUSH3 0x141 SWAP1 PUSH3 0x1E3 JUMP JUMPDEST SWAP1 PUSH1 0x0 MSTORE PUSH1 0x20 PUSH1 0x0 KECCAK256 SWAP1 PUSH1 0x1F ADD PUSH1 0x20 SWAP1 DIV DUP2 ADD SWAP3 DUP3 PUSH3 0x165 JUMPI PUSH1 0x0 DUP6 SSTORE PUSH3 0x1B1 JUMP JUMPDEST DUP3 PUSH1 0x1F LT PUSH3 0x180 JUMPI DUP1 MLOAD PUSH1 0xFF NOT AND DUP4 DUP1 ADD OR DUP6 SSTORE PUSH3 0x1B1 JUMP JUMPDEST DUP3 DUP1 ADD PUSH1 0x1 ADD DUP6 SSTORE DUP3 ISZERO PUSH3 0x1B1 JUMPI SWAP2 DUP3 ADD JUMPDEST DUP3 DUP2 GT ISZERO PUSH3 0x1B0 JUMPI DUP3 MLOAD DUP3 SSTORE SWAP2 PUSH1 0x20 ADD SWAP2 SWAP1 PUSH1 0x1 ADD SWAP1 PUSH3 0x193 JUMP JUMPDEST JUMPDEST POP SWAP1 POP PUSH3 0x1C0 SWAP2 SWAP1 PUSH3 0x1C4 JUMP JUMPDEST POP SWAP1 JUMP JUMPDEST JUMPDEST DUP1 DUP3 GT ISZERO PUSH3 0x1DF JUMPI PUSH1 0x0 DUP2 PUSH1 0x0 SWAP1 SSTORE POP PUSH1 0x1 ADD PUSH3 0x1C5 JUMP JUMPDEST POP SWAP1 JUMP JUMPDEST PUSH1 0x0 PUSH1 0x2 DUP3 DIV SWAP1 POP PUSH1 0x1 DUP3 AND DUP1 PUSH3 0x1FC JUMPI PUSH1 0x7F DUP3 AND SWAP2 POP JUMPDEST PUSH1 0x20 DUP3 LT DUP2 EQ ISZERO PUSH3 0x213 JUMPI PUSH3 0x212 PUSH3 0x219 JUMP JUMPDEST JUMPDEST POP SWAP2 SWAP1 POP JUMP JUMPDEST PUSH32 0x4E487B7100000000000000000000000000000000000000000000000000000000 PUSH1 0x0 MSTORE PUSH1 0x22 PUSH1 0x4 MSTORE PUSH1 0x24 PUSH1 0x0 REVERT JUMPDEST PUSH2 0x3924 DUP1 PUSH3 0x258 PUSH1 0x0 CODECOPY PUSH1 0x0 RETURN INVALID PUSH1 0x80 PUSH1 0x40 MSTORE CALLVALUE DUP1 ISZERO PUSH2 0x10 JUMPI PUSH1 0x0 DUP1 REVERT JUMPDEST POP PUSH1 0x4 CALLDATASIZE LT PUSH2 0xFF JUMPI PUSH1 0x0 CALLDATALOAD PUSH1 0xE0 SHR DUP1 PUSH4 0x67E2DDB8 GT PUSH2 0x97 JUMPI DUP1 PUSH4 0xDCC78377 GT PUSH2 0x66 JUMPI DUP1 PUSH4 0xDCC78377 EQ PUSH2 0x2EC JUMPI DUP1 PUSH4 0xE985E9C5 EQ PUSH2 0x30A JUMPI DUP1 PUSH4 0xF242432A EQ PUSH2 0x33A JUMPI DUP1 PUSH4 0xFBF58B3E EQ PUSH2 0x356 JUMPI PUSH2 0xFF JUMP JUMPDEST DUP1 PUSH4 0x67E2DDB8 EQ PUSH2 0x25E JUMPI DUP1 PUSH4 0x7DEB6025 EQ PUSH2 0x298 JUMPI DUP1 PUSH4 0x9DBCFD6F EQ PUSH2 0x2B4 JUMPI DUP1 PUSH4 0xA22CB465 EQ PUSH2 0x2D0 JUMPI PUSH2 0xFF JUMP JUMPDEST DUP1 PUSH4 0x4889CA90 GT PUSH2 0xD3 JUMPI DUP1 PUSH4 0x4889CA90 EQ PUSH2 0x1B0 JUMPI DUP1 PUSH4 0x4BDE38C8 EQ PUSH2 0x1E0 JUMPI DUP1 PUSH4 0x4E1273F4 EQ PUSH2 0x1FE JUMPI DUP1 PUSH4 0x4EC71EF5 EQ PUSH2 0x22E JUMPI PUSH2 0xFF JUMP JUMPDEST DUP1 PUSH3 0xFDD58E EQ PUSH2 0x104 JUMPI DUP1 PUSH4 0x1FFC9A7 EQ PUSH2 0x134 JUMPI DUP1 PUSH4 0xE89341C EQ PUSH2 0x164 JUMPI DUP1 PUSH4 0x2EB2C2D6 EQ PUSH2 0x194 JUMPI JUMPDEST PUSH1 0x0 DUP1 REVERT JUMPDEST PUSH2 0x11E PUSH1 0x4 DUP1 CALLDATASIZE SUB DUP2 ADD SWAP1 PUSH2 0x119 SWAP2 SWAP1 PUSH2 0x25BA JUMP JUMPDEST PUSH2 0x372 JUMP JUMPDEST PUSH1 0x40 MLOAD PUSH2 0x12B SWAP2 SWAP1 PUSH2 0x2F48 JUMP JUMPDEST PUSH1 0x40 MLOAD DUP1 SWAP2 SUB SWAP1 RETURN JUMPDEST PUSH2 0x14E PUSH1 0x4 DUP1 CALLDATASIZE SUB DUP2 ADD SWAP1 PUSH2 0x149 SWAP2 SWAP1 PUSH2 0x2672 JUMP JUMPDEST PUSH2 0x43B JUMP JUMPDEST PUSH1 0x40 MLOAD PUSH2 0x15B SWAP2 SWAP1 PUSH2 0x2DAB JUMP JUMPDEST PUSH1 0x40 MLOAD DUP1 SWAP2 SUB SWAP1 RETURN JUMPDEST PUSH2 0x17E PUSH1 0x4 DUP1 CALLDATASIZE SUB DUP2 ADD SWAP1 PUSH2 0x179 SWAP2 SWAP1 PUSH2 0x291B JUMP JUMPDEST PUSH2 0x51D JUMP JUMPDEST PUSH1 0x40 MLOAD PUSH2 0x18B SWAP2 SWAP1 PUSH2 0x2DC6 JUMP JUMPDEST PUSH1 0x40 MLOAD DUP1 SWAP2 SUB SWAP1 RETURN JUMPDEST PUSH2 0x1AE PUSH1 0x4 DUP1 CALLDATASIZE SUB DUP2 ADD SWAP1 PUSH2 0x1A9 SWAP2 SWAP1 PUSH2 0x2414 JUMP JUMPDEST PUSH2 0x5B1 JUMP JUMPDEST STOP JUMPDEST PUSH2 0x1CA PUSH1 0x4 DUP1 CALLDATASIZE SUB DUP2 ADD SWAP1 PUSH2 0x1C5 SWAP2 SWAP1 PUSH2 0x26CC JUMP JUMPDEST PUSH2 0x652 JUMP JUMPDEST PUSH1 0x40 MLOAD PUSH2 0x1D7 SWAP2 SWAP1 PUSH2 0x2F48 JUMP JUMPDEST PUSH1 0x40 MLOAD DUP1 SWAP2 SUB SWAP1 RETURN JUMPDEST PUSH2 0x1E8 PUSH2 0x680 JUMP JUMPDEST PUSH1 0x40 MLOAD PUSH2 0x1F5 SWAP2 SWAP1 PUSH2 0x2C75 JUMP JUMPDEST PUSH1 0x40 MLOAD DUP1 SWAP2 SUB SWAP1 RETURN JUMPDEST PUSH2 0x218 PUSH1 0x4 DUP1 CALLDATASIZE SUB DUP2 ADD SWAP1 PUSH2 0x213 SWAP2 SWAP1 PUSH2 0x25FA JUMP JUMPDEST PUSH2 0x6A6 JUMP JUMPDEST PUSH1 0x40 MLOAD PUSH2 0x225 SWAP2 SWAP1 PUSH2 0x2D52 JUMP JUMPDEST PUSH1 0x40 MLOAD DUP1 SWAP2 SUB SWAP1 RETURN JUMPDEST PUSH2 0x248 PUSH1 0x4 DUP1 CALLDATASIZE SUB DUP2 ADD SWAP1 PUSH2 0x243 SWAP2 SWAP1 PUSH2 0x2771 JUMP JUMPDEST PUSH2 0x7BF JUMP JUMPDEST PUSH1 0x40 MLOAD PUSH2 0x255 SWAP2 SWAP1 PUSH2 0x2F48 JUMP JUMPDEST PUSH1 0x40 MLOAD DUP1 SWAP2 SUB SWAP1 RETURN JUMPDEST PUSH2 0x278 PUSH1 0x4 DUP1 CALLDATASIZE SUB DUP2 ADD SWAP1 PUSH2 0x273 SWAP2 SWAP1 PUSH2 0x291B JUMP JUMPDEST PUSH2 0xA37 JUMP JUMPDEST PUSH1 0x40 MLOAD PUSH2 0x28F SWAP12 SWAP11 SWAP10 SWAP9 SWAP8 SWAP7 SWAP6 SWAP5 SWAP4 SWAP3 SWAP2 SWAP1 PUSH2 0x2F63 JUMP JUMPDEST PUSH1 0x40 MLOAD DUP1 SWAP2 SUB SWAP1 RETURN JUMPDEST PUSH2 0x2B2 PUSH1 0x4 DUP1 CALLDATASIZE SUB DUP2 ADD SWAP1 PUSH2 0x2AD SWAP2 SWAP1 PUSH2 0x2948 JUMP JUMPDEST PUSH2 0xF0E JUMP JUMPDEST STOP JUMPDEST PUSH2 0x2CE PUSH1 0x4 DUP1 CALLDATASIZE SUB DUP2 ADD SWAP1 PUSH2 0x2C9 SWAP2 SWAP1 PUSH2 0x291B JUMP JUMPDEST PUSH2 0x101C JUMP JUMPDEST STOP JUMPDEST PUSH2 0x2EA PUSH1 0x4 DUP1 CALLDATASIZE SUB DUP2 ADD SWAP1 PUSH2 0x2E5 SWAP2 SWAP1 PUSH2 0x257A JUMP JUMPDEST PUSH2 0x10DD JUMP JUMPDEST STOP JUMPDEST PUSH2 0x2F4 PUSH2 0x10F3 JUMP JUMPDEST PUSH1 0x40 MLOAD PUSH2 0x301 SWAP2 SWAP1 PUSH2 0x2F48 JUMP JUMPDEST PUSH1 0x40 MLOAD DUP1 SWAP2 SUB SWAP1 RETURN JUMPDEST PUSH2 0x324 PUSH1 0x4 DUP1 CALLDATASIZE SUB DUP2 ADD SWAP1 PUSH2 0x31F SWAP2 SWAP1 PUSH2 0x23D4 JUMP JUMPDEST PUSH2 0x1105 JUMP JUMPDEST PUSH1 0x40 MLOAD PUSH2 0x331 SWAP2 SWAP1 PUSH2 0x2DAB JUMP JUMPDEST PUSH1 0x40 MLOAD DUP1 SWAP2 SUB SWAP1 RETURN JUMPDEST PUSH2 0x354 PUSH1 0x4 DUP1 CALLDATASIZE SUB DUP2 ADD SWAP1 PUSH2 0x34F SWAP2 SWAP1 PUSH2 0x24E3 JUMP JUMPDEST PUSH2 0x1199 JUMP JUMPDEST STOP JUMPDEST PUSH2 0x370 PUSH1 0x4 DUP1 CALLDATASIZE SUB DUP2 ADD SWAP1 PUSH2 0x36B SWAP2 SWAP1 PUSH2 0x2715 JUMP JUMPDEST PUSH2 0x123A JUMP JUMPDEST STOP JUMPDEST PUSH1 0x0 DUP1 PUSH20 0xFFFFFFFFFFFFFFFFFFFFFFFFFFFFFFFFFFFFFFFF AND DUP4 PUSH20 0xFFFFFFFFFFFFFFFFFFFFFFFFFFFFFFFFFFFFFFFF AND EQ ISZERO PUSH2 0x3E3 JUMPI PUSH1 0x40 MLOAD PUSH32 0x8C379A000000000000000000000000000000000000000000000000000000000 DUP2 MSTORE PUSH1 0x4 ADD PUSH2 0x3DA SWAP1 PUSH2 0x2E28 JUMP JUMPDEST PUSH1 0x40 MLOAD DUP1 SWAP2 SUB SWAP1 REVERT JUMPDEST PUSH1 0x0 DUP1 DUP4 DUP2 MSTORE PUSH1 0x20 ADD SWAP1 DUP2 MSTORE PUSH1 0x20 ADD PUSH1 0x0 KECCAK256 PUSH1 0x0 DUP5 PUSH20 0xFFFFFFFFFFFFFFFFFFFFFFFFFFFFFFFFFFFFFFFF AND PUSH20 0xFFFFFFFFFFFFFFFFFFFFFFFFFFFFFFFFFFFFFFFF AND DUP2 MSTORE PUSH1 0x20 ADD SWAP1 DUP2 MSTORE PUSH1 0x20 ADD PUSH1 0x0 KECCAK256 SLOAD SWAP1 POP SWAP3 SWAP2 POP POP JUMP JUMPDEST PUSH1 0x0 PUSH32 0xD9B67A2600000000000000000000000000000000000000000000000000000000 PUSH28 0xFFFFFFFFFFFFFFFFFFFFFFFFFFFFFFFFFFFFFFFFFFFFFFFFFFFFFFFF NOT AND DUP3 PUSH28 0xFFFFFFFFFFFFFFFFFFFFFFFFFFFFFFFFFFFFFFFFFFFFFFFFFFFFFFFF NOT AND EQ DUP1 PUSH2 0x506 JUMPI POP PUSH32 0xE89341C00000000000000000000000000000000000000000000000000000000 PUSH28 0xFFFFFFFFFFFFFFFFFFFFFFFFFFFFFFFFFFFFFFFFFFFFFFFFFFFFFFFF NOT AND DUP3 PUSH28 0xFFFFFFFFFFFFFFFFFFFFFFFFFFFFFFFFFFFFFFFFFFFFFFFFFFFFFFFF NOT AND EQ JUMPDEST DUP1 PUSH2 0x516 JUMPI POP PUSH2 0x515 DUP3 PUSH2 0x132E JUMP JUMPDEST JUMPDEST SWAP1 POP SWAP2 SWAP1 POP JUMP JUMPDEST PUSH1 0x60 PUSH1 0x2 DUP1 SLOAD PUSH2 0x52C SWAP1 PUSH2 0x32D6 JUMP JUMPDEST DUP1 PUSH1 0x1F ADD PUSH1 0x20 DUP1 SWAP2 DIV MUL PUSH1 0x20 ADD PUSH1 0x40 MLOAD SWAP1 DUP2 ADD PUSH1 0x40 MSTORE DUP1 SWAP3 SWAP2 SWAP1 DUP2 DUP2 MSTORE PUSH1 0x20 ADD DUP3 DUP1 SLOAD PUSH2 0x558 SWAP1 PUSH2 0x32D6 JUMP JUMPDEST DUP1 ISZERO PUSH2 0x5A5 JUMPI DUP1 PUSH1 0x1F LT PUSH2 0x57A JUMPI PUSH2 0x100 DUP1 DUP4 SLOAD DIV MUL DUP4 MSTORE SWAP2 PUSH1 0x20 ADD SWAP2 PUSH2 0x5A5 JUMP JUMPDEST DUP3 ADD SWAP2 SWAP1 PUSH1 0x0 MSTORE PUSH1 0x20 PUSH1 0x0 KECCAK256 SWAP1 JUMPDEST DUP2 SLOAD DUP2 MSTORE SWAP1 PUSH1 0x1 ADD SWAP1 PUSH1 0x20 ADD DUP1 DUP4 GT PUSH2 0x588 JUMPI DUP3 SWAP1 SUB PUSH1 0x1F AND DUP3 ADD SWAP2 JUMPDEST POP POP POP POP POP SWAP1 POP SWAP2 SWAP1 POP JUMP JUMPDEST PUSH2 0x5B9 PUSH2 0x1398 JUMP JUMPDEST PUSH20 0xFFFFFFFFFFFFFFFFFFFFFFFFFFFFFFFFFFFFFFFF AND DUP6 PUSH20 0xFFFFFFFFFFFFFFFFFFFFFFFFFFFFFFFFFFFFFFFF AND EQ DUP1 PUSH2 0x5FF JUMPI POP PUSH2 0x5FE DUP6 PUSH2 0x5F9 PUSH2 0x1398 JUMP JUMPDEST PUSH2 0x1105 JUMP JUMPDEST JUMPDEST PUSH2 0x63E JUMPI PUSH1 0x40 MLOAD PUSH32 0x8C379A000000000000000000000000000000000000000000000000000000000 DUP2 MSTORE PUSH1 0x4 ADD PUSH2 0x635 SWAP1 PUSH2 0x2E88 JUMP JUMPDEST PUSH1 0x40 MLOAD DUP1 SWAP2 SUB SWAP1 REVERT JUMPDEST PUSH2 0x64B DUP6 DUP6 DUP6 DUP6 DUP6 PUSH2 0x13A0 JUMP JUMPDEST POP POP POP POP POP JUMP JUMPDEST PUSH1 0x5 DUP2 DUP1 MLOAD PUSH1 0x20 DUP2 ADD DUP3 ADD DUP1 MLOAD DUP5 DUP3 MSTORE PUSH1 0x20 DUP4 ADD PUSH1 0x20 DUP6 ADD KECCAK256 DUP2 DUP4 MSTORE DUP1 SWAP6 POP POP POP POP POP POP PUSH1 0x0 SWAP2 POP SWAP1 POP SLOAD DUP2 JUMP JUMPDEST PUSH1 0x3 PUSH1 0x0 SWAP1 SLOAD SWAP1 PUSH2 0x100 EXP SWAP1 DIV PUSH20 0xFFFFFFFFFFFFFFFFFFFFFFFFFFFFFFFFFFFFFFFF AND DUP2 JUMP JUMPDEST PUSH1 0x60 DUP2 MLOAD DUP4 MLOAD EQ PUSH2 0x6EC JUMPI PUSH1 0x40 MLOAD PUSH32 0x8C379A000000000000000000000000000000000000000000000000000000000 DUP2 MSTORE PUSH1 0x4 ADD PUSH2 0x6E3 SWAP1 PUSH2 0x2EE8 JUMP JUMPDEST PUSH1 0x40 MLOAD DUP1 SWAP2 SUB SWAP1 REVERT JUMPDEST PUSH1 0x0 DUP4 MLOAD PUSH8 0xFFFFFFFFFFFFFFFF DUP2 GT ISZERO PUSH2 0x709 JUMPI PUSH2 0x708 PUSH2 0x340F JUMP JUMPDEST JUMPDEST PUSH1 0x40 MLOAD SWAP1 DUP1 DUP3 MSTORE DUP1 PUSH1 0x20 MUL PUSH1 0x20 ADD DUP3 ADD PUSH1 0x40 MSTORE DUP1 ISZERO PUSH2 0x737 JUMPI DUP2 PUSH1 0x20 ADD PUSH1 0x20 DUP3 MUL DUP1 CALLDATASIZE DUP4 CALLDATACOPY DUP1 DUP3 ADD SWAP2 POP POP SWAP1 POP JUMPDEST POP SWAP1 POP PUSH1 0x0 JUMPDEST DUP5 MLOAD DUP2 LT ISZERO PUSH2 0x7B4 JUMPI PUSH2 0x784 DUP6 DUP3 DUP2 MLOAD DUP2 LT PUSH2 0x75C JUMPI PUSH2 0x75B PUSH2 0x33E0 JUMP JUMPDEST JUMPDEST PUSH1 0x20 MUL PUSH1 0x20 ADD ADD MLOAD DUP6 DUP4 DUP2 MLOAD DUP2 LT PUSH2 0x777 JUMPI PUSH2 0x776 PUSH2 0x33E0 JUMP JUMPDEST JUMPDEST PUSH1 0x20 MUL PUSH1 0x20 ADD ADD MLOAD PUSH2 0x372 JUMP JUMPDEST DUP3 DUP3 DUP2 MLOAD DUP2 LT PUSH2 0x797 JUMPI PUSH2 0x796 PUSH2 0x33E0 JUMP JUMPDEST JUMPDEST PUSH1 0x20 MUL PUSH1 0x20 ADD ADD DUP2 DUP2 MSTORE POP POP DUP1 PUSH2 0x7AD SWAP1 PUSH2 0x3339 JUMP JUMPDEST SWAP1 POP PUSH2 0x73D JUMP JUMPDEST POP DUP1 SWAP2 POP POP SWAP3 SWAP2 POP POP JUMP JUMPDEST PUSH1 0x0 DUP1 PUSH1 0x4 DUP1 SLOAD SWAP1 POP SWAP1 POP PUSH2 0x7F7 PUSH1 0x3 PUSH1 0x0 SWAP1 SLOAD SWAP1 PUSH2 0x100 EXP SWAP1 DIV PUSH20 0xFFFFFFFFFFFFFFFFFFFFFFFFFFFFFFFFFFFFFFFF AND PUSH1 0x1 PUSH2 0x10DD JUMP JUMPDEST PUSH1 0x0 PUSH1 0x4 PUSH1 0x40 MLOAD DUP1 PUSH2 0x160 ADD PUSH1 0x40 MSTORE DUP1 DUP5 DUP2 MSTORE PUSH1 0x20 ADD DUP15 DUP2 MSTORE PUSH1 0x20 ADD DUP14 DUP2 MSTORE PUSH1 0x20 ADD DUP13 DUP2 MSTORE PUSH1 0x20 ADD DUP12 DUP2 MSTORE PUSH1 0x20 ADD DUP11 DUP2 MSTORE PUSH1 0x20 ADD DUP10 DUP2 MSTORE PUSH1 0x20 ADD DUP9 DUP2 MSTORE PUSH1 0x20 ADD DUP8 PUSH20 0xFFFFFFFFFFFFFFFFFFFFFFFFFFFFFFFFFFFFFFFF AND DUP2 MSTORE PUSH1 0x20 ADD DUP4 ISZERO ISZERO DUP2 MSTORE PUSH1 0x20 ADD DUP7 DUP2 MSTORE POP SWAP1 DUP1 PUSH1 0x1 DUP2 SLOAD ADD DUP1 DUP3 SSTORE DUP1 SWAP2 POP POP PUSH1 0x1 SWAP1 SUB SWAP1 PUSH1 0x0 MSTORE PUSH1 0x20 PUSH1 0x0 KECCAK256 SWAP1 PUSH1 0xA MUL ADD PUSH1 0x0 SWAP1 SWAP2 SWAP1 SWAP2 SWAP1 SWAP2 POP PUSH1 0x0 DUP3 ADD MLOAD DUP2 PUSH1 0x0 ADD SSTORE PUSH1 0x20 DUP3 ADD MLOAD DUP2 PUSH1 0x1 ADD SWAP1 DUP1 MLOAD SWAP1 PUSH1 0x20 ADD SWAP1 PUSH2 0x8AE SWAP3 SWAP2 SWAP1 PUSH2 0x20AC JUMP JUMPDEST POP PUSH1 0x40 DUP3 ADD MLOAD DUP2 PUSH1 0x2 ADD SWAP1 DUP1 MLOAD SWAP1 PUSH1 0x20 ADD SWAP1 PUSH2 0x8CB SWAP3 SWAP2 SWAP1 PUSH2 0x20AC JUMP JUMPDEST POP PUSH1 0x60 DUP3 ADD MLOAD DUP2 PUSH1 0x3 ADD SWAP1 DUP1 MLOAD SWAP1 PUSH1 0x20 ADD SWAP1 PUSH2 0x8E8 SWAP3 SWAP2 SWAP1 PUSH2 0x20AC JUMP JUMPDEST POP PUSH1 0x80 DUP3 ADD MLOAD DUP2 PUSH1 0x4 ADD SWAP1 DUP1 MLOAD SWAP1 PUSH1 0x20 ADD SWAP1 PUSH2 0x905 SWAP3 SWAP2 SWAP1 PUSH2 0x20AC JUMP JUMPDEST POP PUSH1 0xA0 DUP3 ADD MLOAD DUP2 PUSH1 0x5 ADD SWAP1 DUP1 MLOAD SWAP1 PUSH1 0x20 ADD SWAP1 PUSH2 0x922 SWAP3 SWAP2 SWAP1 PUSH2 0x20AC JUMP JUMPDEST POP PUSH1 0xC0 DUP3 ADD MLOAD DUP2 PUSH1 0x6 ADD SWAP1 DUP1 MLOAD SWAP1 PUSH1 0x20 ADD SWAP1 PUSH2 0x93F SWAP3 SWAP2 SWAP1 PUSH2 0x20AC JUMP JUMPDEST POP PUSH1 0xE0 DUP3 ADD MLOAD DUP2 PUSH1 0x7 ADD SWAP1 DUP1 MLOAD SWAP1 PUSH1 0x20 ADD SWAP1 PUSH2 0x95C SWAP3 SWAP2 SWAP1 PUSH2 0x20AC JUMP JUMPDEST POP PUSH2 0x100 DUP3 ADD MLOAD DUP2 PUSH1 0x8 ADD PUSH1 0x0 PUSH2 0x100 EXP DUP2 SLOAD DUP2 PUSH20 0xFFFFFFFFFFFFFFFFFFFFFFFFFFFFFFFFFFFFFFFF MUL NOT AND SWAP1 DUP4 PUSH20 0xFFFFFFFFFFFFFFFFFFFFFFFFFFFFFFFFFFFFFFFF AND MUL OR SWAP1 SSTORE POP PUSH2 0x120 DUP3 ADD MLOAD DUP2 PUSH1 0x8 ADD PUSH1 0x14 PUSH2 0x100 EXP DUP2 SLOAD DUP2 PUSH1 0xFF MUL NOT AND SWAP1 DUP4 ISZERO ISZERO MUL OR SWAP1 SSTORE POP PUSH2 0x140 DUP3 ADD MLOAD DUP2 PUSH1 0x9 ADD SWAP1 DUP1 MLOAD SWAP1 PUSH1 0x20 ADD SWAP1 PUSH2 0x9E3 SWAP3 SWAP2 SWAP1 PUSH2 0x20AC JUMP JUMPDEST POP POP POP PUSH2 0xA02 DUP6 DUP4 PUSH1 0x1 PUSH1 0x40 MLOAD DUP1 PUSH1 0x20 ADD PUSH1 0x40 MSTORE DUP1 PUSH1 0x0 DUP2 MSTORE POP PUSH2 0x16B4 JUMP JUMPDEST DUP2 PUSH1 0x5 DUP14 PUSH1 0x40 MLOAD PUSH2 0xA13 SWAP2 SWAP1 PUSH2 0x2C5E JUMP JUMPDEST SWAP1 DUP2 MSTORE PUSH1 0x20 ADD PUSH1 0x40 MLOAD DUP1 SWAP2 SUB SWAP1 KECCAK256 DUP2 SWAP1 SSTORE POP DUP2 SWAP3 POP POP POP SWAP10 SWAP9 POP POP POP POP POP POP POP POP POP JUMP JUMPDEST PUSH1 0x4 DUP2 DUP2 SLOAD DUP2 LT PUSH2 0xA47 JUMPI PUSH1 0x0 DUP1 REVERT JUMPDEST SWAP1 PUSH1 0x0 MSTORE PUSH1 0x20 PUSH1 0x0 KECCAK256 SWAP1 PUSH1 0xA MUL ADD PUSH1 0x0 SWAP2 POP SWAP1 POP DUP1 PUSH1 0x0 ADD SLOAD SWAP1 DUP1 PUSH1 0x1 ADD DUP1 SLOAD PUSH2 0xA70 SWAP1 PUSH2 0x32D6 JUMP JUMPDEST DUP1 PUSH1 0x1F ADD PUSH1 0x20 DUP1 SWAP2 DIV MUL PUSH1 0x20 ADD PUSH1 0x40 MLOAD SWAP1 DUP2 ADD PUSH1 0x40 MSTORE DUP1 SWAP3 SWAP2 SWAP1 DUP2 DUP2 MSTORE PUSH1 0x20 ADD DUP3 DUP1 SLOAD PUSH2 0xA9C SWAP1 PUSH2 0x32D6 JUMP JUMPDEST DUP1 ISZERO PUSH2 0xAE9 JUMPI DUP1 PUSH1 0x1F LT PUSH2 0xABE JUMPI PUSH2 0x100 DUP1 DUP4 SLOAD DIV MUL DUP4 MSTORE SWAP2 PUSH1 0x20 ADD SWAP2 PUSH2 0xAE9 JUMP JUMPDEST DUP3 ADD SWAP2 SWAP1 PUSH1 0x0 MSTORE PUSH1 0x20 PUSH1 0x0 KECCAK256 SWAP1 JUMPDEST DUP2 SLOAD DUP2 MSTORE SWAP1 PUSH1 0x1 ADD SWAP1 PUSH1 0x20 ADD DUP1 DUP4 GT PUSH2 0xACC JUMPI DUP3 SWAP1 SUB PUSH1 0x1F AND DUP3 ADD SWAP2 JUMPDEST POP POP POP POP POP SWAP1 DUP1 PUSH1 0x2 ADD DUP1 SLOAD PUSH2 0xAFE SWAP1 PUSH2 0x32D6 JUMP JUMPDEST DUP1 PUSH1 0x1F ADD PUSH1 0x20 DUP1 SWAP2 DIV MUL PUSH1 0x20 ADD PUSH1 0x40 MLOAD SWAP1 DUP2 ADD PUSH1 0x40 MSTORE DUP1 SWAP3 SWAP2 SWAP1 DUP2 DUP2 MSTORE PUSH1 0x20 ADD DUP3 DUP1 SLOAD PUSH2 0xB2A SWAP1 PUSH2 0x32D6 JUMP JUMPDEST DUP1 ISZERO PUSH2 0xB77 JUMPI DUP1 PUSH1 0x1F LT PUSH2 0xB4C JUMPI PUSH2 0x100 DUP1 DUP4 SLOAD DIV MUL DUP4 MSTORE SWAP2 PUSH1 0x20 ADD SWAP2 PUSH2 0xB77 JUMP JUMPDEST DUP3 ADD SWAP2 SWAP1 PUSH1 0x0 MSTORE PUSH1 0x20 PUSH1 0x0 KECCAK256 SWAP1 JUMPDEST DUP2 SLOAD DUP2 MSTORE SWAP1 PUSH1 0x1 ADD SWAP1 PUSH1 0x20 ADD DUP1 DUP4 GT PUSH2 0xB5A JUMPI DUP3 SWAP1 SUB PUSH1 0x1F AND DUP3 ADD SWAP2 JUMPDEST POP POP POP POP POP SWAP1 DUP1 PUSH1 0x3 ADD DUP1 SLOAD PUSH2 0xB8C SWAP1 PUSH2 0x32D6 JUMP JUMPDEST DUP1 PUSH1 0x1F ADD PUSH1 0x20 DUP1 SWAP2 DIV MUL PUSH1 0x20 ADD PUSH1 0x40 MLOAD SWAP1 DUP2 ADD PUSH1 0x40 MSTORE DUP1 SWAP3 SWAP2 SWAP1 DUP2 DUP2 MSTORE PUSH1 0x20 ADD DUP3 DUP1 SLOAD PUSH2 0xBB8 SWAP1 PUSH2 0x32D6 JUMP JUMPDEST DUP1 ISZERO PUSH2 0xC05 JUMPI DUP1 PUSH1 0x1F LT PUSH2 0xBDA JUMPI PUSH2 0x100 DUP1 DUP4 SLOAD DIV MUL DUP4 MSTORE SWAP2 PUSH1 0x20 ADD SWAP2 PUSH2 0xC05 JUMP JUMPDEST DUP3 ADD SWAP2 SWAP1 PUSH1 0x0 MSTORE PUSH1 0x20 PUSH1 0x0 KECCAK256 SWAP1 JUMPDEST DUP2 SLOAD DUP2 MSTORE SWAP1 PUSH1 0x1 ADD SWAP1 PUSH1 0x20 ADD DUP1 DUP4 GT PUSH2 0xBE8 JUMPI DUP3 SWAP1 SUB PUSH1 0x1F AND DUP3 ADD SWAP2 JUMPDEST POP POP POP POP POP SWAP1 DUP1 PUSH1 0x4 ADD DUP1 SLOAD PUSH2 0xC1A SWAP1 PUSH2 0x32D6 JUMP JUMPDEST DUP1 PUSH1 0x1F ADD PUSH1 0x20 DUP1 SWAP2 DIV MUL PUSH1 0x20 ADD PUSH1 0x40 MLOAD SWAP1 DUP2 ADD PUSH1 0x40 MSTORE DUP1 SWAP3 SWAP2 SWAP1 DUP2 DUP2 MSTORE PUSH1 0x20 ADD DUP3 DUP1 SLOAD PUSH2 0xC46 SWAP1 PUSH2 0x32D6 JUMP JUMPDEST DUP1 ISZERO PUSH2 0xC93 JUMPI DUP1 PUSH1 0x1F LT PUSH2 0xC68 JUMPI PUSH2 0x100 DUP1 DUP4 SLOAD DIV MUL DUP4 MSTORE SWAP2 PUSH1 0x20 ADD SWAP2 PUSH2 0xC93 JUMP JUMPDEST DUP3 ADD SWAP2 SWAP1 PUSH1 0x0 MSTORE PUSH1 0x20 PUSH1 0x0 KECCAK256 SWAP1 JUMPDEST DUP2 SLOAD DUP2 MSTORE SWAP1 PUSH1 0x1 ADD SWAP1 PUSH1 0x20 ADD DUP1 DUP4 GT PUSH2 0xC76 JUMPI DUP3 SWAP1 SUB PUSH1 0x1F AND DUP3 ADD SWAP2 JUMPDEST POP POP POP POP POP SWAP1 DUP1 PUSH1 0x5 ADD DUP1 SLOAD PUSH2 0xCA8 SWAP1 PUSH2 0x32D6 JUMP JUMPDEST DUP1 PUSH1 0x1F ADD PUSH1 0x20 DUP1 SWAP2 DIV MUL PUSH1 0x20 ADD PUSH1 0x40 MLOAD SWAP1 DUP2 ADD PUSH1 0x40 MSTORE DUP1 SWAP3 SWAP2 SWAP1 DUP2 DUP2 MSTORE PUSH1 0x20 ADD DUP3 DUP1 SLOAD PUSH2 0xCD4 SWAP1 PUSH2 0x32D6 JUMP JUMPDEST DUP1 ISZERO PUSH2 0xD21 JUMPI DUP1 PUSH1 0x1F LT PUSH2 0xCF6 JUMPI PUSH2 0x100 DUP1 DUP4 SLOAD DIV MUL DUP4 MSTORE SWAP2 PUSH1 0x20 ADD SWAP2 PUSH2 0xD21 JUMP JUMPDEST DUP3 ADD SWAP2 SWAP1 PUSH1 0x0 MSTORE PUSH1 0x20 PUSH1 0x0 KECCAK256 SWAP1 JUMPDEST DUP2 SLOAD DUP2 MSTORE SWAP1 PUSH1 0x1 ADD SWAP1 PUSH1 0x20 ADD DUP1 DUP4 GT PUSH2 0xD04 JUMPI DUP3 SWAP1 SUB PUSH1 0x1F AND DUP3 ADD SWAP2 JUMPDEST POP POP POP POP POP SWAP1 DUP1 PUSH1 0x6 ADD DUP1 SLOAD PUSH2 0xD36 SWAP1 PUSH2 0x32D6 JUMP JUMPDEST DUP1 PUSH1 0x1F ADD PUSH1 0x20 DUP1 SWAP2 DIV MUL PUSH1 0x20 ADD PUSH1 0x40 MLOAD SWAP1 DUP2 ADD PUSH1 0x40 MSTORE DUP1 SWAP3 SWAP2 SWAP1 DUP2 DUP2 MSTORE PUSH1 0x20 ADD DUP3 DUP1 SLOAD PUSH2 0xD62 SWAP1 PUSH2 0x32D6 JUMP JUMPDEST DUP1 ISZERO PUSH2 0xDAF JUMPI DUP1 PUSH1 0x1F LT PUSH2 0xD84 JUMPI PUSH2 0x100 DUP1 DUP4 SLOAD DIV MUL DUP4 MSTORE SWAP2 PUSH1 0x20 ADD SWAP2 PUSH2 0xDAF JUMP JUMPDEST DUP3 ADD SWAP2 SWAP1 PUSH1 0x0 MSTORE PUSH1 0x20 PUSH1 0x0 KECCAK256 SWAP1 JUMPDEST DUP2 SLOAD DUP2 MSTORE SWAP1 PUSH1 0x1 ADD SWAP1 PUSH1 0x20 ADD DUP1 DUP4 GT PUSH2 0xD92 JUMPI DUP3 SWAP1 SUB PUSH1 0x1F AND DUP3 ADD SWAP2 JUMPDEST POP POP POP POP POP SWAP1 DUP1 PUSH1 0x7 ADD DUP1 SLOAD PUSH2 0xDC4 SWAP1 PUSH2 0x32D6 JUMP JUMPDEST DUP1 PUSH1 0x1F ADD PUSH1 0x20 DUP1 SWAP2 DIV MUL PUSH1 0x20 ADD PUSH1 0x40 MLOAD SWAP1 DUP2 ADD PUSH1 0x40 MSTORE DUP1 SWAP3 SWAP2 SWAP1 DUP2 DUP2 MSTORE PUSH1 0x20 ADD DUP3 DUP1 SLOAD PUSH2 0xDF0 SWAP1 PUSH2 0x32D6 JUMP JUMPDEST DUP1 ISZERO PUSH2 0xE3D JUMPI DUP1 PUSH1 0x1F LT PUSH2 0xE12 JUMPI PUSH2 0x100 DUP1 DUP4 SLOAD DIV MUL DUP4 MSTORE SWAP2 PUSH1 0x20 ADD SWAP2 PUSH2 0xE3D JUMP JUMPDEST DUP3 ADD SWAP2 SWAP1 PUSH1 0x0 MSTORE PUSH1 0x20 PUSH1 0x0 KECCAK256 SWAP1 JUMPDEST DUP2 SLOAD DUP2 MSTORE SWAP1 PUSH1 0x1 ADD SWAP1 PUSH1 0x20 ADD DUP1 DUP4 GT PUSH2 0xE20 JUMPI DUP3 SWAP1 SUB PUSH1 0x1F AND DUP3 ADD SWAP2 JUMPDEST POP POP POP POP POP SWAP1 DUP1 PUSH1 0x8 ADD PUSH1 0x0 SWAP1 SLOAD SWAP1 PUSH2 0x100 EXP SWAP1 DIV PUSH20 0xFFFFFFFFFFFFFFFFFFFFFFFFFFFFFFFFFFFFFFFF AND SWAP1 DUP1 PUSH1 0x8 ADD PUSH1 0x14 SWAP1 SLOAD SWAP1 PUSH2 0x100 EXP SWAP1 DIV PUSH1 0xFF AND SWAP1 DUP1 PUSH1 0x9 ADD DUP1 SLOAD PUSH2 0xE8B SWAP1 PUSH2 0x32D6 JUMP JUMPDEST DUP1 PUSH1 0x1F ADD PUSH1 0x20 DUP1 SWAP2 DIV MUL PUSH1 0x20 ADD PUSH1 0x40 MLOAD SWAP1 DUP2 ADD PUSH1 0x40 MSTORE DUP1 SWAP3 SWAP2 SWAP1 DUP2 DUP2 MSTORE PUSH1 0x20 ADD DUP3 DUP1 SLOAD PUSH2 0xEB7 SWAP1 PUSH2 0x32D6 JUMP JUMPDEST DUP1 ISZERO PUSH2 0xF04 JUMPI DUP1 PUSH1 0x1F LT PUSH2 0xED9 JUMPI PUSH2 0x100 DUP1 DUP4 SLOAD DIV MUL DUP4 MSTORE SWAP2 PUSH1 0x20 ADD SWAP2 PUSH2 0xF04 JUMP JUMPDEST DUP3 ADD SWAP2 SWAP1 PUSH1 0x0 MSTORE PUSH1 0x20 PUSH1 0x0 KECCAK256 SWAP1 JUMPDEST DUP2 SLOAD DUP2 MSTORE SWAP1 PUSH1 0x1 ADD SWAP1 PUSH1 0x20 ADD DUP1 DUP4 GT PUSH2 0xEE7 JUMPI DUP3 SWAP1 SUB PUSH1 0x1F AND DUP3 ADD SWAP2 JUMPDEST POP POP POP POP POP SWAP1 POP DUP12 JUMP JUMPDEST PUSH1 0x0 PUSH1 0x4 DUP4 DUP2 SLOAD DUP2 LT PUSH2 0xF24 JUMPI PUSH2 0xF23 PUSH2 0x33E0 JUMP JUMPDEST JUMPDEST SWAP1 PUSH1 0x0 MSTORE PUSH1 0x20 PUSH1 0x0 KECCAK256 SWAP1 PUSH1 0xA MUL ADD PUSH1 0x8 ADD PUSH1 0x0 SWAP1 SLOAD SWAP1 PUSH2 0x100 EXP SWAP1 DIV PUSH20 0xFFFFFFFFFFFFFFFFFFFFFFFFFFFFFFFFFFFFFFFF AND SWAP1 POP PUSH2 0xF75 DUP2 CALLER DUP6 PUSH1 0x1 PUSH1 0x40 MLOAD DUP1 PUSH1 0x20 ADD PUSH1 0x40 MSTORE DUP1 PUSH1 0x0 DUP2 MSTORE POP PUSH2 0x184A JUMP JUMPDEST DUP2 PUSH1 0x4 DUP5 DUP2 SLOAD DUP2 LT PUSH2 0xF8A JUMPI PUSH2 0xF89 PUSH2 0x33E0 JUMP JUMPDEST JUMPDEST SWAP1 PUSH1 0x0 MSTORE PUSH1 0x20 PUSH1 0x0 KECCAK256 SWAP1 PUSH1 0xA MUL ADD PUSH1 0x8 ADD PUSH1 0x0 PUSH2 0x100 EXP DUP2 SLOAD DUP2 PUSH20 0xFFFFFFFFFFFFFFFFFFFFFFFFFFFFFFFFFFFFFFFF MUL NOT AND SWAP1 DUP4 PUSH20 0xFFFFFFFFFFFFFFFFFFFFFFFFFFFFFFFFFFFFFFFF AND MUL OR SWAP1 SSTORE POP PUSH1 0x0 PUSH1 0x4 DUP5 DUP2 SLOAD DUP2 LT PUSH2 0xFEF JUMPI PUSH2 0xFEE PUSH2 0x33E0 JUMP JUMPDEST JUMPDEST SWAP1 PUSH1 0x0 MSTORE PUSH1 0x20 PUSH1 0x0 KECCAK256 SWAP1 PUSH1 0xA MUL ADD PUSH1 0x8 ADD PUSH1 0x14 PUSH2 0x100 EXP DUP2 SLOAD DUP2 PUSH1 0xFF MUL NOT AND SWAP1 DUP4 ISZERO ISZERO MUL OR SWAP1 SSTORE POP POP POP POP JUMP JUMPDEST PUSH1 0x0 PUSH1 0x4 DUP3 DUP2 SLOAD DUP2 LT PUSH2 0x1032 JUMPI PUSH2 0x1031 PUSH2 0x33E0 JUMP JUMPDEST JUMPDEST SWAP1 PUSH1 0x0 MSTORE PUSH1 0x20 PUSH1 0x0 KECCAK256 SWAP1 PUSH1 0xA MUL ADD PUSH1 0x8 ADD PUSH1 0x0 SWAP1 SLOAD SWAP1 PUSH2 0x100 EXP SWAP1 DIV PUSH20 0xFFFFFFFFFFFFFFFFFFFFFFFFFFFFFFFFFFFFFFFF AND SWAP1 POP CALLER PUSH20 0xFFFFFFFFFFFFFFFFFFFFFFFFFFFFFFFFFFFFFFFF AND DUP2 PUSH20 0xFFFFFFFFFFFFFFFFFFFFFFFFFFFFFFFFFFFFFFFF AND EQ ISZERO PUSH2 0x10D9 JUMPI PUSH1 0x1 PUSH1 0x4 DUP4 DUP2 SLOAD DUP2 LT PUSH2 0x10B0 JUMPI PUSH2 0x10AF PUSH2 0x33E0 JUMP JUMPDEST JUMPDEST SWAP1 PUSH1 0x0 MSTORE PUSH1 0x20 PUSH1 0x0 KECCAK256 SWAP1 PUSH1 0xA MUL ADD PUSH1 0x8 ADD PUSH1 0x14 PUSH2 0x100 EXP DUP2 SLOAD DUP2 PUSH1 0xFF MUL NOT AND SWAP1 DUP4 ISZERO ISZERO MUL OR SWAP1 SSTORE POP JUMPDEST POP POP JUMP JUMPDEST PUSH2 0x10EF PUSH2 0x10E8 PUSH2 0x1398 JUMP JUMPDEST DUP4 DUP4 PUSH2 0x1ACC JUMP JUMPDEST POP POP JUMP JUMPDEST PUSH1 0x0 DUP1 PUSH1 0x4 DUP1 SLOAD SWAP1 POP SWAP1 POP DUP1 SWAP2 POP POP SWAP1 JUMP JUMPDEST PUSH1 0x0 PUSH1 0x1 PUSH1 0x0 DUP5 PUSH20 0xFFFFFFFFFFFFFFFFFFFFFFFFFFFFFFFFFFFFFFFF AND PUSH20 0xFFFFFFFFFFFFFFFFFFFFFFFFFFFFFFFFFFFFFFFF AND DUP2 MSTORE PUSH1 0x20 ADD SWAP1 DUP2 MSTORE PUSH1 0x20 ADD PUSH1 0x0 KECCAK256 PUSH1 0x0 DUP4 PUSH20 0xFFFFFFFFFFFFFFFFFFFFFFFFFFFFFFFFFFFFFFFF AND PUSH20 0xFFFFFFFFFFFFFFFFFFFFFFFFFFFFFFFFFFFFFFFF AND DUP2 MSTORE PUSH1 0x20 ADD SWAP1 DUP2 MSTORE PUSH1 0x20 ADD PUSH1 0x0 KECCAK256 PUSH1 0x0 SWAP1 SLOAD SWAP1 PUSH2 0x100 EXP SWAP1 DIV PUSH1 0xFF AND SWAP1 POP SWAP3 SWAP2 POP POP JUMP JUMPDEST PUSH2 0x11A1 PUSH2 0x1398 JUMP JUMPDEST PUSH20 0xFFFFFFFFFFFFFFFFFFFFFFFFFFFFFFFFFFFFFFFF AND DUP6 PUSH20 0xFFFFFFFFFFFFFFFFFFFFFFFFFFFFFFFFFFFFFFFF AND EQ DUP1 PUSH2 0x11E7 JUMPI POP PUSH2 0x11E6 DUP6 PUSH2 0x11E1 PUSH2 0x1398 JUMP JUMPDEST PUSH2 0x1105 JUMP JUMPDEST JUMPDEST PUSH2 0x1226 JUMPI PUSH1 0x40 MLOAD PUSH32 0x8C379A000000000000000000000000000000000000000000000000000000000 DUP2 MSTORE PUSH1 0x4 ADD PUSH2 0x121D SWAP1 PUSH2 0x2E48 JUMP JUMPDEST PUSH1 0x40 MLOAD DUP1 SWAP2 SUB SWAP1 REVERT JUMPDEST PUSH2 0x1233 DUP6 DUP6 DUP6 DUP6 DUP6 PUSH2 0x184A JUMP JUMPDEST POP POP POP POP POP JUMP JUMPDEST PUSH1 0x0 PUSH1 0x5 DUP4 PUSH1 0x40 MLOAD PUSH2 0x124C SWAP2 SWAP1 PUSH2 0x2C5E JUMP JUMPDEST SWAP1 DUP2 MSTORE PUSH1 0x20 ADD PUSH1 0x40 MLOAD DUP1 SWAP2 SUB SWAP1 KECCAK256 SLOAD SWAP1 POP PUSH1 0x0 PUSH1 0x4 DUP3 DUP2 SLOAD DUP2 LT PUSH2 0x1273 JUMPI PUSH2 0x1272 PUSH2 0x33E0 JUMP JUMPDEST JUMPDEST SWAP1 PUSH1 0x0 MSTORE PUSH1 0x20 PUSH1 0x0 KECCAK256 SWAP1 PUSH1 0xA MUL ADD PUSH1 0x8 ADD PUSH1 0x0 SWAP1 SLOAD SWAP1 PUSH2 0x100 EXP SWAP1 DIV PUSH20 0xFFFFFFFFFFFFFFFFFFFFFFFFFFFFFFFFFFFFFFFF AND SWAP1 POP PUSH2 0x12C4 DUP2 DUP5 DUP5 PUSH1 0x1 PUSH1 0x40 MLOAD DUP1 PUSH1 0x20 ADD PUSH1 0x40 MSTORE DUP1 PUSH1 0x0 DUP2 MSTORE POP PUSH2 0x184A JUMP JUMPDEST DUP3 PUSH1 0x4 DUP4 DUP2 SLOAD DUP2 LT PUSH2 0x12D9 JUMPI PUSH2 0x12D8 PUSH2 0x33E0 JUMP JUMPDEST JUMPDEST SWAP1 PUSH1 0x0 MSTORE PUSH1 0x20 PUSH1 0x0 KECCAK256 SWAP1 PUSH1 0xA MUL ADD PUSH1 0x8 ADD PUSH1 0x0 PUSH2 0x100 EXP DUP2 SLOAD DUP2 PUSH20 0xFFFFFFFFFFFFFFFFFFFFFFFFFFFFFFFFFFFFFFFF MUL NOT AND SWAP1 DUP4 PUSH20 0xFFFFFFFFFFFFFFFFFFFFFFFFFFFFFFFFFFFFFFFF AND MUL OR SWAP1 SSTORE POP POP POP POP POP JUMP JUMPDEST PUSH1 0x0 PUSH32 0x1FFC9A700000000000000000000000000000000000000000000000000000000 PUSH28 0xFFFFFFFFFFFFFFFFFFFFFFFFFFFFFFFFFFFFFFFFFFFFFFFFFFFFFFFF NOT AND DUP3 PUSH28 0xFFFFFFFFFFFFFFFFFFFFFFFFFFFFFFFFFFFFFFFFFFFFFFFFFFFFFFFF NOT AND EQ SWAP1 POP SWAP2 SWAP1 POP JUMP JUMPDEST PUSH1 0x0 CALLER SWAP1 POP SWAP1 JUMP JUMPDEST DUP2 MLOAD DUP4 MLOAD EQ PUSH2 0x13E4 JUMPI PUSH1 0x40 MLOAD PUSH32 0x8C379A000000000000000000000000000000000000000000000000000000000 DUP2 MSTORE PUSH1 0x4 ADD PUSH2 0x13DB SWAP1 PUSH2 0x2F08 JUMP JUMPDEST PUSH1 0x40 MLOAD DUP1 SWAP2 SUB SWAP1 REVERT JUMPDEST PUSH1 0x0 PUSH20 0xFFFFFFFFFFFFFFFFFFFFFFFFFFFFFFFFFFFFFFFF AND DUP5 PUSH20 0xFFFFFFFFFFFFFFFFFFFFFFFFFFFFFFFFFFFFFFFF AND EQ ISZERO PUSH2 0x1454 JUMPI PUSH1 0x40 MLOAD PUSH32 0x8C379A000000000000000000000000000000000000000000000000000000000 DUP2 MSTORE PUSH1 0x4 ADD PUSH2 0x144B SWAP1 PUSH2 0x2E68 JUMP JUMPDEST PUSH1 0x40 MLOAD DUP1 SWAP2 SUB SWAP1 REVERT JUMPDEST PUSH1 0x0 PUSH2 0x145E PUSH2 0x1398 JUMP JUMPDEST SWAP1 POP PUSH2 0x146E DUP2 DUP8 DUP8 DUP8 DUP8 DUP8 PUSH2 0x1C39 JUMP JUMPDEST PUSH1 0x0 JUMPDEST DUP5 MLOAD DUP2 LT ISZERO PUSH2 0x161F JUMPI PUSH1 0x0 DUP6 DUP3 DUP2 MLOAD DUP2 LT PUSH2 0x148F JUMPI PUSH2 0x148E PUSH2 0x33E0 JUMP JUMPDEST JUMPDEST PUSH1 0x20 MUL PUSH1 0x20 ADD ADD MLOAD SWAP1 POP PUSH1 0x0 DUP6 DUP4 DUP2 MLOAD DUP2 LT PUSH2 0x14AE JUMPI PUSH2 0x14AD PUSH2 0x33E0 JUMP JUMPDEST JUMPDEST PUSH1 0x20 MUL PUSH1 0x20 ADD ADD MLOAD SWAP1 POP PUSH1 0x0 DUP1 PUSH1 0x0 DUP5 DUP2 MSTORE PUSH1 0x20 ADD SWAP1 DUP2 MSTORE PUSH1 0x20 ADD PUSH1 0x0 KECCAK256 PUSH1 0x0 DUP12 PUSH20 0xFFFFFFFFFFFFFFFFFFFFFFFFFFFFFFFFFFFFFFFF AND PUSH20 0xFFFFFFFFFFFFFFFFFFFFFFFFFFFFFFFFFFFFFFFF AND DUP2 MSTORE PUSH1 0x20 ADD SWAP1 DUP2 MSTORE PUSH1 0x20 ADD PUSH1 0x0 KECCAK256 SLOAD SWAP1 POP DUP2 DUP2 LT ISZERO PUSH2 0x154F JUMPI PUSH1 0x40 MLOAD PUSH32 0x8C379A000000000000000000000000000000000000000000000000000000000 DUP2 MSTORE PUSH1 0x4 ADD PUSH2 0x1546 SWAP1 PUSH2 0x2EA8 JUMP JUMPDEST PUSH1 0x40 MLOAD DUP1 SWAP2 SUB SWAP1 REVERT JUMPDEST DUP2 DUP2 SUB PUSH1 0x0 DUP1 DUP6 DUP2 MSTORE PUSH1 0x20 ADD SWAP1 DUP2 MSTORE PUSH1 0x20 ADD PUSH1 0x0 KECCAK256 PUSH1 0x0 DUP13 PUSH20 0xFFFFFFFFFFFFFFFFFFFFFFFFFFFFFFFFFFFFFFFF AND PUSH20 0xFFFFFFFFFFFFFFFFFFFFFFFFFFFFFFFFFFFFFFFF AND DUP2 MSTORE PUSH1 0x20 ADD SWAP1 DUP2 MSTORE PUSH1 0x20 ADD PUSH1 0x0 KECCAK256 DUP2 SWAP1 SSTORE POP DUP2 PUSH1 0x0 DUP1 DUP6 DUP2 MSTORE PUSH1 0x20 ADD SWAP1 DUP2 MSTORE PUSH1 0x20 ADD PUSH1 0x0 KECCAK256 PUSH1 0x0 DUP12 PUSH20 0xFFFFFFFFFFFFFFFFFFFFFFFFFFFFFFFFFFFFFFFF AND PUSH20 0xFFFFFFFFFFFFFFFFFFFFFFFFFFFFFFFFFFFFFFFF AND DUP2 MSTORE PUSH1 0x20 ADD SWAP1 DUP2 MSTORE PUSH1 0x20 ADD PUSH1 0x0 KECCAK256 PUSH1 0x0 DUP3 DUP3 SLOAD PUSH2 0x1604 SWAP2 SWAP1 PUSH2 0x31CA JUMP JUMPDEST SWAP3 POP POP DUP2 SWAP1 SSTORE POP POP POP POP DUP1 PUSH2 0x1618 SWAP1 PUSH2 0x3339 JUMP JUMPDEST SWAP1 POP PUSH2 0x1471 JUMP JUMPDEST POP DUP5 PUSH20 0xFFFFFFFFFFFFFFFFFFFFFFFFFFFFFFFFFFFFFFFF AND DUP7 PUSH20 0xFFFFFFFFFFFFFFFFFFFFFFFFFFFFFFFFFFFFFFFF AND DUP3 PUSH20 0xFFFFFFFFFFFFFFFFFFFFFFFFFFFFFFFFFFFFFFFF AND PUSH32 0x4A39DC06D4C0DBC64B70AF90FD698A233A518AA5D07E595D983B8C0526C8F7FB DUP8 DUP8 PUSH1 0x40 MLOAD PUSH2 0x1696 SWAP3 SWAP2 SWAP1 PUSH2 0x2D74 JUMP JUMPDEST PUSH1 0x40 MLOAD DUP1 SWAP2 SUB SWAP1 LOG4 PUSH2 0x16AC DUP2 DUP8 DUP8 DUP8 DUP8 DUP8 PUSH2 0x1C41 JUMP JUMPDEST POP POP POP POP POP POP JUMP JUMPDEST PUSH1 0x0 PUSH20 0xFFFFFFFFFFFFFFFFFFFFFFFFFFFFFFFFFFFFFFFF AND DUP5 PUSH20 0xFFFFFFFFFFFFFFFFFFFFFFFFFFFFFFFFFFFFFFFF AND EQ ISZERO PUSH2 0x1724 JUMPI PUSH1 0x40 MLOAD PUSH32 0x8C379A000000000000000000000000000000000000000000000000000000000 DUP2 MSTORE PUSH1 0x4 ADD PUSH2 0x171B SWAP1 PUSH2 0x2F28 JUMP JUMPDEST PUSH1 0x40 MLOAD DUP1 SWAP2 SUB SWAP1 REVERT JUMPDEST PUSH1 0x0 PUSH2 0x172E PUSH2 0x1398 JUMP JUMPDEST SWAP1 POP PUSH2 0x174F DUP2 PUSH1 0x0 DUP8 PUSH2 0x1740 DUP9 PUSH2 0x1E28 JUMP JUMPDEST PUSH2 0x1749 DUP9 PUSH2 0x1E28 JUMP JUMPDEST DUP8 PUSH2 0x1C39 JUMP JUMPDEST DUP3 PUSH1 0x0 DUP1 DUP7 DUP2 MSTORE PUSH1 0x20 ADD SWAP1 DUP2 MSTORE PUSH1 0x20 ADD PUSH1 0x0 KECCAK256 PUSH1 0x0 DUP8 PUSH20 0xFFFFFFFFFFFFFFFFFFFFFFFFFFFFFFFFFFFFFFFF AND PUSH20 0xFFFFFFFFFFFFFFFFFFFFFFFFFFFFFFFFFFFFFFFF AND DUP2 MSTORE PUSH1 0x20 ADD SWAP1 DUP2 MSTORE PUSH1 0x20 ADD PUSH1 0x0 KECCAK256 PUSH1 0x0 DUP3 DUP3 SLOAD PUSH2 0x17AE SWAP2 SWAP1 PUSH2 0x31CA JUMP JUMPDEST SWAP3 POP POP DUP2 SWAP1 SSTORE POP DUP5 PUSH20 0xFFFFFFFFFFFFFFFFFFFFFFFFFFFFFFFFFFFFFFFF AND PUSH1 0x0 PUSH20 0xFFFFFFFFFFFFFFFFFFFFFFFFFFFFFFFFFFFFFFFF AND DUP3 PUSH20 0xFFFFFFFFFFFFFFFFFFFFFFFFFFFFFFFFFFFFFFFF AND PUSH32 0xC3D58168C5AE7397731D063D5BBF3D657854427343F4C083240F7AACAA2D0F62 DUP8 DUP8 PUSH1 0x40 MLOAD PUSH2 0x182C SWAP3 SWAP2 SWAP1 PUSH2 0x3046 JUMP JUMPDEST PUSH1 0x40 MLOAD DUP1 SWAP2 SUB SWAP1 LOG4 PUSH2 0x1843 DUP2 PUSH1 0x0 DUP8 DUP8 DUP8 DUP8 PUSH2 0x1EA2 JUMP JUMPDEST POP POP POP POP POP JUMP JUMPDEST PUSH1 0x0 PUSH20 0xFFFFFFFFFFFFFFFFFFFFFFFFFFFFFFFFFFFFFFFF AND DUP5 PUSH20 0xFFFFFFFFFFFFFFFFFFFFFFFFFFFFFFFFFFFFFFFF AND EQ ISZERO PUSH2 0x18BA JUMPI PUSH1 0x40 MLOAD PUSH32 0x8C379A000000000000000000000000000000000000000000000000000000000 DUP2 MSTORE PUSH1 0x4 ADD PUSH2 0x18B1 SWAP1 PUSH2 0x2E68 JUMP JUMPDEST PUSH1 0x40 MLOAD DUP1 SWAP2 SUB SWAP1 REVERT JUMPDEST PUSH1 0x0 PUSH2 0x18C4 PUSH2 0x1398 JUMP JUMPDEST SWAP1 POP PUSH2 0x18E4 DUP2 DUP8 DUP8 PUSH2 0x18D5 DUP9 PUSH2 0x1E28 JUMP JUMPDEST PUSH2 0x18DE DUP9 PUSH2 0x1E28 JUMP JUMPDEST DUP8 PUSH2 0x1C39 JUMP JUMPDEST PUSH1 0x0 DUP1 PUSH1 0x0 DUP7 DUP2 MSTORE PUSH1 0x20 ADD SWAP1 DUP2 MSTORE PUSH1 0x20 ADD PUSH1 0x0 KECCAK256 PUSH1 0x0 DUP9 PUSH20 0xFFFFFFFFFFFFFFFFFFFFFFFFFFFFFFFFFFFFFFFF AND PUSH20 0xFFFFFFFFFFFFFFFFFFFFFFFFFFFFFFFFFFFFFFFF AND DUP2 MSTORE PUSH1 0x20 ADD SWAP1 DUP2 MSTORE PUSH1 0x20 ADD PUSH1 0x0 KECCAK256 SLOAD SWAP1 POP DUP4 DUP2 LT ISZERO PUSH2 0x197B JUMPI PUSH1 0x40 MLOAD PUSH32 0x8C379A000000000000000000000000000000000000000000000000000000000 DUP2 MSTORE PUSH1 0x4 ADD PUSH2 0x1972 SWAP1 PUSH2 0x2EA8 JUMP JUMPDEST PUSH1 0x40 MLOAD DUP1 SWAP2 SUB SWAP1 REVERT JUMPDEST DUP4 DUP2 SUB PUSH1 0x0 DUP1 DUP8 DUP2 MSTORE PUSH1 0x20 ADD SWAP1 DUP2 MSTORE PUSH1 0x20 ADD PUSH1 0x0 KECCAK256 PUSH1 0x0 DUP10 PUSH20 0xFFFFFFFFFFFFFFFFFFFFFFFFFFFFFFFFFFFFFFFF AND PUSH20 0xFFFFFFFFFFFFFFFFFFFFFFFFFFFFFFFFFFFFFFFF AND DUP2 MSTORE PUSH1 0x20 ADD SWAP1 DUP2 MSTORE PUSH1 0x20 ADD PUSH1 0x0 KECCAK256 DUP2 SWAP1 SSTORE POP DUP4 PUSH1 0x0 DUP1 DUP8 DUP2 MSTORE PUSH1 0x20 ADD SWAP1 DUP2 MSTORE PUSH1 0x20 ADD PUSH1 0x0 KECCAK256 PUSH1 0x0 DUP9 PUSH20 0xFFFFFFFFFFFFFFFFFFFFFFFFFFFFFFFFFFFFFFFF AND PUSH20 0xFFFFFFFFFFFFFFFFFFFFFFFFFFFFFFFFFFFFFFFF AND DUP2 MSTORE PUSH1 0x20 ADD SWAP1 DUP2 MSTORE PUSH1 0x20 ADD PUSH1 0x0 KECCAK256 PUSH1 0x0 DUP3 DUP3 SLOAD PUSH2 0x1A30 SWAP2 SWAP1 PUSH2 0x31CA JUMP JUMPDEST SWAP3 POP POP DUP2 SWAP1 SSTORE POP DUP6 PUSH20 0xFFFFFFFFFFFFFFFFFFFFFFFFFFFFFFFFFFFFFFFF AND DUP8 PUSH20 0xFFFFFFFFFFFFFFFFFFFFFFFFFFFFFFFFFFFFFFFF AND DUP4 PUSH20 0xFFFFFFFFFFFFFFFFFFFFFFFFFFFFFFFFFFFFFFFF AND PUSH32 0xC3D58168C5AE7397731D063D5BBF3D657854427343F4C083240F7AACAA2D0F62 DUP9 DUP9 PUSH1 0x40 MLOAD PUSH2 0x1AAD SWAP3 SWAP2 SWAP1 PUSH2 0x3046 JUMP JUMPDEST PUSH1 0x40 MLOAD DUP1 SWAP2 SUB SWAP1 LOG4 PUSH2 0x1AC3 DUP3 DUP9 DUP9 DUP9 DUP9 DUP9 PUSH2 0x1EA2 JUMP JUMPDEST POP POP POP POP POP POP POP JUMP JUMPDEST DUP2 PUSH20 0xFFFFFFFFFFFFFFFFFFFFFFFFFFFFFFFFFFFFFFFF AND DUP4 PUSH20 0xFFFFFFFFFFFFFFFFFFFFFFFFFFFFFFFFFFFFFFFF AND EQ ISZERO PUSH2 0x1B3B JUMPI PUSH1 0x40 MLOAD PUSH32 0x8C379A000000000000000000000000000000000000000000000000000000000 DUP2 MSTORE PUSH1 0x4 ADD PUSH2 0x1B32 SWAP1 PUSH2 0x2EC8 JUMP JUMPDEST PUSH1 0x40 MLOAD DUP1 SWAP2 SUB SWAP1 REVERT JUMPDEST DUP1 PUSH1 0x1 PUSH1 0x0 DUP6 PUSH20 0xFFFFFFFFFFFFFFFFFFFFFFFFFFFFFFFFFFFFFFFF AND PUSH20 0xFFFFFFFFFFFFFFFFFFFFFFFFFFFFFFFFFFFFFFFF AND DUP2 MSTORE PUSH1 0x20 ADD SWAP1 DUP2 MSTORE PUSH1 0x20 ADD PUSH1 0x0 KECCAK256 PUSH1 0x0 DUP5 PUSH20 0xFFFFFFFFFFFFFFFFFFFFFFFFFFFFFFFFFFFFFFFF AND PUSH20 0xFFFFFFFFFFFFFFFFFFFFFFFFFFFFFFFFFFFFFFFF AND DUP2 MSTORE PUSH1 0x20 ADD SWAP1 DUP2 MSTORE PUSH1 0x20 ADD PUSH1 0x0 KECCAK256 PUSH1 0x0 PUSH2 0x100 EXP DUP2 SLOAD DUP2 PUSH1 0xFF MUL NOT AND SWAP1 DUP4 ISZERO ISZERO MUL OR SWAP1 SSTORE POP DUP2 PUSH20 0xFFFFFFFFFFFFFFFFFFFFFFFFFFFFFFFFFFFFFFFF AND DUP4 PUSH20 0xFFFFFFFFFFFFFFFFFFFFFFFFFFFFFFFFFFFFFFFF AND PUSH32 0x17307EAB39AB6107E8899845AD3D59BD9653F200F220920489CA2B5937696C31 DUP4 PUSH1 0x40 MLOAD PUSH2 0x1C2C SWAP2 SWAP1 PUSH2 0x2DAB JUMP JUMPDEST PUSH1 0x40 MLOAD DUP1 SWAP2 SUB SWAP1 LOG3 POP POP POP JUMP JUMPDEST POP POP POP POP POP POP JUMP JUMPDEST PUSH2 0x1C60 DUP5 PUSH20 0xFFFFFFFFFFFFFFFFFFFFFFFFFFFFFFFFFFFFFFFF AND PUSH2 0x2089 JUMP JUMPDEST ISZERO PUSH2 0x1E20 JUMPI DUP4 PUSH20 0xFFFFFFFFFFFFFFFFFFFFFFFFFFFFFFFFFFFFFFFF AND PUSH4 0xBC197C81 DUP8 DUP8 DUP7 DUP7 DUP7 PUSH1 0x40 MLOAD DUP7 PUSH4 0xFFFFFFFF AND PUSH1 0xE0 SHL DUP2 MSTORE PUSH1 0x4 ADD PUSH2 0x1CA6 SWAP6 SWAP5 SWAP4 SWAP3 SWAP2 SWAP1 PUSH2 0x2C90 JUMP JUMPDEST PUSH1 0x20 PUSH1 0x40 MLOAD DUP1 DUP4 SUB DUP2 PUSH1 0x0 DUP8 DUP1 EXTCODESIZE ISZERO DUP1 ISZERO PUSH2 0x1CC0 JUMPI PUSH1 0x0 DUP1 REVERT JUMPDEST POP GAS CALL SWAP3 POP POP POP DUP1 ISZERO PUSH2 0x1CF1 JUMPI POP PUSH1 0x40 MLOAD RETURNDATASIZE PUSH1 0x1F NOT PUSH1 0x1F DUP3 ADD AND DUP3 ADD DUP1 PUSH1 0x40 MSTORE POP DUP2 ADD SWAP1 PUSH2 0x1CEE SWAP2 SWAP1 PUSH2 0x269F JUMP JUMPDEST PUSH1 0x1 JUMPDEST PUSH2 0x1D97 JUMPI PUSH2 0x1CFD PUSH2 0x343E JUMP JUMPDEST DUP1 PUSH4 0x8C379A0 EQ ISZERO PUSH2 0x1D5A JUMPI POP PUSH2 0x1D12 PUSH2 0x37FC JUMP JUMPDEST DUP1 PUSH2 0x1D1D JUMPI POP PUSH2 0x1D5C JUMP JUMPDEST DUP1 PUSH1 0x40 MLOAD PUSH32 0x8C379A000000000000000000000000000000000000000000000000000000000 DUP2 MSTORE PUSH1 0x4 ADD PUSH2 0x1D51 SWAP2 SWAP1 PUSH2 0x2DC6 JUMP JUMPDEST PUSH1 0x40 MLOAD DUP1 SWAP2 SUB SWAP1 REVERT JUMPDEST POP JUMPDEST PUSH1 0x40 MLOAD PUSH32 0x8C379A000000000000000000000000000000000000000000000000000000000 DUP2 MSTORE PUSH1 0x4 ADD PUSH2 0x1D8E SWAP1 PUSH2 0x2DE8 JUMP JUMPDEST PUSH1 0x40 MLOAD DUP1 SWAP2 SUB SWAP1 REVERT JUMPDEST PUSH4 0xBC197C81 PUSH1 0xE0 SHL PUSH28 0xFFFFFFFFFFFFFFFFFFFFFFFFFFFFFFFFFFFFFFFFFFFFFFFFFFFFFFFF NOT AND DUP2 PUSH28 0xFFFFFFFFFFFFFFFFFFFFFFFFFFFFFFFFFFFFFFFFFFFFFFFFFFFFFFFF NOT AND EQ PUSH2 0x1E1E JUMPI PUSH1 0x40 MLOAD PUSH32 0x8C379A000000000000000000000000000000000000000000000000000000000 DUP2 MSTORE PUSH1 0x4 ADD PUSH2 0x1E15 SWAP1 PUSH2 0x2E08 JUMP JUMPDEST PUSH1 0x40 MLOAD DUP1 SWAP2 SUB SWAP1 REVERT JUMPDEST POP JUMPDEST POP POP POP POP POP POP JUMP JUMPDEST PUSH1 0x60 PUSH1 0x0 PUSH1 0x1 PUSH8 0xFFFFFFFFFFFFFFFF DUP2 GT ISZERO PUSH2 0x1E47 JUMPI PUSH2 0x1E46 PUSH2 0x340F JUMP JUMPDEST JUMPDEST PUSH1 0x40 MLOAD SWAP1 DUP1 DUP3 MSTORE DUP1 PUSH1 0x20 MUL PUSH1 0x20 ADD DUP3 ADD PUSH1 0x40 MSTORE DUP1 ISZERO PUSH2 0x1E75 JUMPI DUP2 PUSH1 0x20 ADD PUSH1 0x20 DUP3 MUL DUP1 CALLDATASIZE DUP4 CALLDATACOPY DUP1 DUP3 ADD SWAP2 POP POP SWAP1 POP JUMPDEST POP SWAP1 POP DUP3 DUP2 PUSH1 0x0 DUP2 MLOAD DUP2 LT PUSH2 0x1E8D JUMPI PUSH2 0x1E8C PUSH2 0x33E0 JUMP JUMPDEST JUMPDEST PUSH1 0x20 MUL PUSH1 0x20 ADD ADD DUP2 DUP2 MSTORE POP POP DUP1 SWAP2 POP POP SWAP2 SWAP1 POP JUMP JUMPDEST PUSH2 0x1EC1 DUP5 PUSH20 0xFFFFFFFFFFFFFFFFFFFFFFFFFFFFFFFFFFFFFFFF AND PUSH2 0x2089 JUMP JUMPDEST ISZERO PUSH2 0x2081 JUMPI DUP4 PUSH20 0xFFFFFFFFFFFFFFFFFFFFFFFFFFFFFFFFFFFFFFFF AND PUSH4 0xF23A6E61 DUP8 DUP8 DUP7 DUP7 DUP7 PUSH1 0x40 MLOAD DUP7 PUSH4 0xFFFFFFFF AND PUSH1 0xE0 SHL DUP2 MSTORE PUSH1 0x4 ADD PUSH2 0x1F07 SWAP6 SWAP5 SWAP4 SWAP3 SWAP2 SWAP1 PUSH2 0x2CF8 JUMP JUMPDEST PUSH1 0x20 PUSH1 0x40 MLOAD DUP1 DUP4 SUB DUP2 PUSH1 0x0 DUP8 DUP1 EXTCODESIZE ISZERO DUP1 ISZERO PUSH2 0x1F21 JUMPI PUSH1 0x0 DUP1 REVERT JUMPDEST POP GAS CALL SWAP3 POP POP POP DUP1 ISZERO PUSH2 0x1F52 JUMPI POP PUSH1 0x40 MLOAD RETURNDATASIZE PUSH1 0x1F NOT PUSH1 0x1F DUP3 ADD AND DUP3 ADD DUP1 PUSH1 0x40 MSTORE POP DUP2 ADD SWAP1 PUSH2 0x1F4F SWAP2 SWAP1 PUSH2 0x269F JUMP JUMPDEST PUSH1 0x1 JUMPDEST PUSH2 0x1FF8 JUMPI PUSH2 0x1F5E PUSH2 0x343E JUMP JUMPDEST DUP1 PUSH4 0x8C379A0 EQ ISZERO PUSH2 0x1FBB JUMPI POP PUSH2 0x1F73 PUSH2 0x37FC JUMP JUMPDEST DUP1 PUSH2 0x1F7E JUMPI POP PUSH2 0x1FBD JUMP JUMPDEST DUP1 PUSH1 0x40 MLOAD PUSH32 0x8C379A000000000000000000000000000000000000000000000000000000000 DUP2 MSTORE PUSH1 0x4 ADD PUSH2 0x1FB2 SWAP2 SWAP1 PUSH2 0x2DC6 JUMP JUMPDEST PUSH1 0x40 MLOAD DUP1 SWAP2 SUB SWAP1 REVERT JUMPDEST POP JUMPDEST PUSH1 0x40 MLOAD PUSH32 0x8C379A000000000000000000000000000000000000000000000000000000000 DUP2 MSTORE PUSH1 0x4 ADD PUSH2 0x1FEF SWAP1 PUSH2 0x2DE8 JUMP JUMPDEST PUSH1 0x40 MLOAD DUP1 SWAP2 SUB SWAP1 REVERT JUMPDEST PUSH4 0xF23A6E61 PUSH1 0xE0 SHL PUSH28 0xFFFFFFFFFFFFFFFFFFFFFFFFFFFFFFFFFFFFFFFFFFFFFFFFFFFFFFFF NOT AND DUP2 PUSH28 0xFFFFFFFFFFFFFFFFFFFFFFFFFFFFFFFFFFFFFFFFFFFFFFFFFFFFFFFF NOT AND EQ PUSH2 0x207F JUMPI PUSH1 0x40 MLOAD PUSH32 0x8C379A000000000000000000000000000000000000000000000000000000000 DUP2 MSTORE PUSH1 0x4 ADD PUSH2 0x2076 SWAP1 PUSH2 0x2E08 JUMP JUMPDEST PUSH1 0x40 MLOAD DUP1 SWAP2 SUB SWAP1 REVERT JUMPDEST POP JUMPDEST POP POP POP POP POP POP JUMP JUMPDEST PUSH1 0x0 DUP1 DUP3 PUSH20 0xFFFFFFFFFFFFFFFFFFFFFFFFFFFFFFFFFFFFFFFF AND EXTCODESIZE GT SWAP1 POP SWAP2 SWAP1 POP JUMP JUMPDEST DUP3 DUP1 SLOAD PUSH2 0x20B8 SWAP1 PUSH2 0x32D6 JUMP JUMPDEST SWAP1 PUSH1 0x0 MSTORE PUSH1 0x20 PUSH1 0x0 KECCAK256 SWAP1 PUSH1 0x1F ADD PUSH1 0x20 SWAP1 DIV DUP2 ADD SWAP3 DUP3 PUSH2 0x20DA JUMPI PUSH1 0x0 DUP6 SSTORE PUSH2 0x2121 JUMP JUMPDEST DUP3 PUSH1 0x1F LT PUSH2 0x20F3 JUMPI DUP1 MLOAD PUSH1 0xFF NOT AND DUP4 DUP1 ADD OR DUP6 SSTORE PUSH2 0x2121 JUMP JUMPDEST DUP3 DUP1 ADD PUSH1 0x1 ADD DUP6 SSTORE DUP3 ISZERO PUSH2 0x2121 JUMPI SWAP2 DUP3 ADD JUMPDEST DUP3 DUP2 GT ISZERO PUSH2 0x2120 JUMPI DUP3 MLOAD DUP3 SSTORE SWAP2 PUSH1 0x20 ADD SWAP2 SWAP1 PUSH1 0x1 ADD SWAP1 PUSH2 0x2105 JUMP JUMPDEST JUMPDEST POP SWAP1 POP PUSH2 0x212E SWAP2 SWAP1 PUSH2 0x2132 JUMP JUMPDEST POP SWAP1 JUMP JUMPDEST JUMPDEST DUP1 DUP3 GT ISZERO PUSH2 0x214B JUMPI PUSH1 0x0 DUP2 PUSH1 0x0 SWAP1 SSTORE POP PUSH1 0x1 ADD PUSH2 0x2133 JUMP JUMPDEST POP SWAP1 JUMP JUMPDEST PUSH1 0x0 PUSH2 0x2162 PUSH2 0x215D DUP5 PUSH2 0x3094 JUMP JUMPDEST PUSH2 0x306F JUMP JUMPDEST SWAP1 POP DUP1 DUP4 DUP3 MSTORE PUSH1 0x20 DUP3 ADD SWAP1 POP DUP3 DUP6 PUSH1 0x20 DUP7 MUL DUP3 ADD GT ISZERO PUSH2 0x2185 JUMPI PUSH2 0x2184 PUSH2 0x3465 JUMP JUMPDEST JUMPDEST PUSH1 0x0 JUMPDEST DUP6 DUP2 LT ISZERO PUSH2 0x21B5 JUMPI DUP2 PUSH2 0x219B DUP9 DUP3 PUSH2 0x22B3 JUMP JUMPDEST DUP5 MSTORE PUSH1 0x20 DUP5 ADD SWAP4 POP PUSH1 0x20 DUP4 ADD SWAP3 POP POP PUSH1 0x1 DUP2 ADD SWAP1 POP PUSH2 0x2188 JUMP JUMPDEST POP POP POP SWAP4 SWAP3 POP POP POP JUMP JUMPDEST PUSH1 0x0 PUSH2 0x21D2 PUSH2 0x21CD DUP5 PUSH2 0x30C0 JUMP JUMPDEST PUSH2 0x306F JUMP JUMPDEST SWAP1 POP DUP1 DUP4 DUP3 MSTORE PUSH1 0x20 DUP3 ADD SWAP1 POP DUP3 DUP6 PUSH1 0x20 DUP7 MUL DUP3 ADD GT ISZERO PUSH2 0x21F5 JUMPI PUSH2 0x21F4 PUSH2 0x3465 JUMP JUMPDEST JUMPDEST PUSH1 0x0 JUMPDEST DUP6 DUP2 LT ISZERO PUSH2 0x2225 JUMPI DUP2 PUSH2 0x220B DUP9 DUP3 PUSH2 0x23BF JUMP JUMPDEST DUP5 MSTORE PUSH1 0x20 DUP5 ADD SWAP4 POP PUSH1 0x20 DUP4 ADD SWAP3 POP POP PUSH1 0x1 DUP2 ADD SWAP1 POP PUSH2 0x21F8 JUMP JUMPDEST POP POP POP SWAP4 SWAP3 POP POP POP JUMP JUMPDEST PUSH1 0x0 PUSH2 0x2242 PUSH2 0x223D DUP5 PUSH2 0x30EC JUMP JUMPDEST PUSH2 0x306F JUMP JUMPDEST SWAP1 POP DUP3 DUP2 MSTORE PUSH1 0x20 DUP2 ADD DUP5 DUP5 DUP5 ADD GT ISZERO PUSH2 0x225E JUMPI PUSH2 0x225D PUSH2 0x346A JUMP JUMPDEST JUMPDEST PUSH2 0x2269 DUP5 DUP3 DUP6 PUSH2 0x3294 JUMP JUMPDEST POP SWAP4 SWAP3 POP POP POP JUMP JUMPDEST PUSH1 0x0 PUSH2 0x2284 PUSH2 0x227F DUP5 PUSH2 0x311D JUMP JUMPDEST PUSH2 0x306F JUMP JUMPDEST SWAP1 POP DUP3 DUP2 MSTORE PUSH1 0x20 DUP2 ADD DUP5 DUP5 DUP5 ADD GT ISZERO PUSH2 0x22A0 JUMPI PUSH2 0x229F PUSH2 0x346A JUMP JUMPDEST JUMPDEST PUSH2 0x22AB DUP5 DUP3 DUP6 PUSH2 0x3294 JUMP JUMPDEST POP SWAP4 SWAP3 POP POP POP JUMP JUMPDEST PUSH1 0x0 DUP2 CALLDATALOAD SWAP1 POP PUSH2 0x22C2 DUP2 PUSH2 0x3892 JUMP JUMPDEST SWAP3 SWAP2 POP POP JUMP JUMPDEST PUSH1 0x0 DUP3 PUSH1 0x1F DUP4 ADD SLT PUSH2 0x22DD JUMPI PUSH2 0x22DC PUSH2 0x3460 JUMP JUMPDEST JUMPDEST DUP2 CALLDATALOAD PUSH2 0x22ED DUP5 DUP3 PUSH1 0x20 DUP7 ADD PUSH2 0x214F JUMP JUMPDEST SWAP2 POP POP SWAP3 SWAP2 POP POP JUMP JUMPDEST PUSH1 0x0 DUP3 PUSH1 0x1F DUP4 ADD SLT PUSH2 0x230B JUMPI PUSH2 0x230A PUSH2 0x3460 JUMP JUMPDEST JUMPDEST DUP2 CALLDATALOAD PUSH2 0x231B DUP5 DUP3 PUSH1 0x20 DUP7 ADD PUSH2 0x21BF JUMP JUMPDEST SWAP2 POP POP SWAP3 SWAP2 POP POP JUMP JUMPDEST PUSH1 0x0 DUP2 CALLDATALOAD SWAP1 POP PUSH2 0x2333 DUP2 PUSH2 0x38A9 JUMP JUMPDEST SWAP3 SWAP2 POP POP JUMP JUMPDEST PUSH1 0x0 DUP2 CALLDATALOAD SWAP1 POP PUSH2 0x2348 DUP2 PUSH2 0x38C0 JUMP JUMPDEST SWAP3 SWAP2 POP POP JUMP JUMPDEST PUSH1 0x0 DUP2 MLOAD SWAP1 POP PUSH2 0x235D DUP2 PUSH2 0x38C0 JUMP JUMPDEST SWAP3 SWAP2 POP POP JUMP JUMPDEST PUSH1 0x0 DUP3 PUSH1 0x1F DUP4 ADD SLT PUSH2 0x2378 JUMPI PUSH2 0x2377 PUSH2 0x3460 JUMP JUMPDEST JUMPDEST DUP2 CALLDATALOAD PUSH2 0x2388 DUP5 DUP3 PUSH1 0x20 DUP7 ADD PUSH2 0x222F JUMP JUMPDEST SWAP2 POP POP SWAP3 SWAP2 POP POP JUMP JUMPDEST PUSH1 0x0 DUP3 PUSH1 0x1F DUP4 ADD SLT PUSH2 0x23A6 JUMPI PUSH2 0x23A5 PUSH2 0x3460 JUMP JUMPDEST JUMPDEST DUP2 CALLDATALOAD PUSH2 0x23B6 DUP5 DUP3 PUSH1 0x20 DUP7 ADD PUSH2 0x2271 JUMP JUMPDEST SWAP2 POP POP SWAP3 SWAP2 POP POP JUMP JUMPDEST PUSH1 0x0 DUP2 CALLDATALOAD SWAP1 POP PUSH2 0x23CE DUP2 PUSH2 0x38D7 JUMP JUMPDEST SWAP3 SWAP2 POP POP JUMP JUMPDEST PUSH1 0x0 DUP1 PUSH1 0x40 DUP4 DUP6 SUB SLT ISZERO PUSH2 0x23EB JUMPI PUSH2 0x23EA PUSH2 0x3474 JUMP JUMPDEST JUMPDEST PUSH1 0x0 PUSH2 0x23F9 DUP6 DUP3 DUP7 ADD PUSH2 0x22B3 JUMP JUMPDEST SWAP3 POP POP PUSH1 0x20 PUSH2 0x240A DUP6 DUP3 DUP7 ADD PUSH2 0x22B3 JUMP JUMPDEST SWAP2 POP POP SWAP3 POP SWAP3 SWAP1 POP JUMP JUMPDEST PUSH1 0x0 DUP1 PUSH1 0x0 DUP1 PUSH1 0x0 PUSH1 0xA0 DUP7 DUP9 SUB SLT ISZERO PUSH2 0x2430 JUMPI PUSH2 0x242F PUSH2 0x3474 JUMP JUMPDEST JUMPDEST PUSH1 0x0 PUSH2 0x243E DUP9 DUP3 DUP10 ADD PUSH2 0x22B3 JUMP JUMPDEST SWAP6 POP POP PUSH1 0x20 PUSH2 0x244F DUP9 DUP3 DUP10 ADD PUSH2 0x22B3 JUMP JUMPDEST SWAP5 POP POP PUSH1 0x40 DUP7 ADD CALLDATALOAD PUSH8 0xFFFFFFFFFFFFFFFF DUP2 GT ISZERO PUSH2 0x2470 JUMPI PUSH2 0x246F PUSH2 0x346F JUMP JUMPDEST JUMPDEST PUSH2 0x247C DUP9 DUP3 DUP10 ADD PUSH2 0x22F6 JUMP JUMPDEST SWAP4 POP POP PUSH1 0x60 DUP7 ADD CALLDATALOAD PUSH8 0xFFFFFFFFFFFFFFFF DUP2 GT ISZERO PUSH2 0x249D JUMPI PUSH2 0x249C PUSH2 0x346F JUMP JUMPDEST JUMPDEST PUSH2 0x24A9 DUP9 DUP3 DUP10 ADD PUSH2 0x22F6 JUMP JUMPDEST SWAP3 POP POP PUSH1 0x80 DUP7 ADD CALLDATALOAD PUSH8 0xFFFFFFFFFFFFFFFF DUP2 GT ISZERO PUSH2 0x24CA JUMPI PUSH2 0x24C9 PUSH2 0x346F JUMP JUMPDEST JUMPDEST PUSH2 0x24D6 DUP9 DUP3 DUP10 ADD PUSH2 0x2363 JUMP JUMPDEST SWAP2 POP POP SWAP3 SWAP6 POP SWAP3 SWAP6 SWAP1 SWAP4 POP JUMP JUMPDEST PUSH1 0x0 DUP1 PUSH1 0x0 DUP1 PUSH1 0x0 PUSH1 0xA0 DUP7 DUP9 SUB SLT ISZERO PUSH2 0x24FF JUMPI PUSH2 0x24FE PUSH2 0x3474 JUMP JUMPDEST JUMPDEST PUSH1 0x0 PUSH2 0x250D DUP9 DUP3 DUP10 ADD PUSH2 0x22B3 JUMP JUMPDEST SWAP6 POP POP PUSH1 0x20 PUSH2 0x251E DUP9 DUP3 DUP10 ADD PUSH2 0x22B3 JUMP JUMPDEST SWAP5 POP POP PUSH1 0x40 PUSH2 0x252F DUP9 DUP3 DUP10 ADD PUSH2 0x23BF JUMP JUMPDEST SWAP4 POP POP PUSH1 0x60 PUSH2 0x2540 DUP9 DUP3 DUP10 ADD PUSH2 0x23BF JUMP JUMPDEST SWAP3 POP POP PUSH1 0x80 DUP7 ADD CALLDATALOAD PUSH8 0xFFFFFFFFFFFFFFFF DUP2 GT ISZERO PUSH2 0x2561 JUMPI PUSH2 0x2560 PUSH2 0x346F JUMP JUMPDEST JUMPDEST PUSH2 0x256D DUP9 DUP3 DUP10 ADD PUSH2 0x2363 JUMP JUMPDEST SWAP2 POP POP SWAP3 SWAP6 POP SWAP3 SWAP6 SWAP1 SWAP4 POP JUMP JUMPDEST PUSH1 0x0 DUP1 PUSH1 0x40 DUP4 DUP6 SUB SLT ISZERO PUSH2 0x2591 JUMPI PUSH2 0x2590 PUSH2 0x3474 JUMP JUMPDEST JUMPDEST PUSH1 0x0 PUSH2 0x259F DUP6 DUP3 DUP7 ADD PUSH2 0x22B3 JUMP JUMPDEST SWAP3 POP POP PUSH1 0x20 PUSH2 0x25B0 DUP6 DUP3 DUP7 ADD PUSH2 0x2324 JUMP JUMPDEST SWAP2 POP POP SWAP3 POP SWAP3 SWAP1 POP JUMP JUMPDEST PUSH1 0x0 DUP1 PUSH1 0x40 DUP4 DUP6 SUB SLT ISZERO PUSH2 0x25D1 JUMPI PUSH2 0x25D0 PUSH2 0x3474 JUMP JUMPDEST JUMPDEST PUSH1 0x0 PUSH2 0x25DF DUP6 DUP3 DUP7 ADD PUSH2 0x22B3 JUMP JUMPDEST SWAP3 POP POP PUSH1 0x20 PUSH2 0x25F0 DUP6 DUP3 DUP7 ADD PUSH2 0x23BF JUMP JUMPDEST SWAP2 POP POP SWAP3 POP SWAP3 SWAP1 POP JUMP JUMPDEST PUSH1 0x0 DUP1 PUSH1 0x40 DUP4 DUP6 SUB SLT ISZERO PUSH2 0x2611 JUMPI PUSH2 0x2610 PUSH2 0x3474 JUMP JUMPDEST JUMPDEST PUSH1 0x0 DUP4 ADD CALLDATALOAD PUSH8 0xFFFFFFFFFFFFFFFF DUP2 GT ISZERO PUSH2 0x262F JUMPI PUSH2 0x262E PUSH2 0x346F JUMP JUMPDEST JUMPDEST PUSH2 0x263B DUP6 DUP3 DUP7 ADD PUSH2 0x22C8 JUMP JUMPDEST SWAP3 POP POP PUSH1 0x20 DUP4 ADD CALLDATALOAD PUSH8 0xFFFFFFFFFFFFFFFF DUP2 GT ISZERO PUSH2 0x265C JUMPI PUSH2 0x265B PUSH2 0x346F JUMP JUMPDEST JUMPDEST PUSH2 0x2668 DUP6 DUP3 DUP7 ADD PUSH2 0x22F6 JUMP JUMPDEST SWAP2 POP POP SWAP3 POP SWAP3 SWAP1 POP JUMP JUMPDEST PUSH1 0x0 PUSH1 0x20 DUP3 DUP5 SUB SLT ISZERO PUSH2 0x2688 JUMPI PUSH2 0x2687 PUSH2 0x3474 JUMP JUMPDEST JUMPDEST PUSH1 0x0 PUSH2 0x2696 DUP5 DUP3 DUP6 ADD PUSH2 0x2339 JUMP JUMPDEST SWAP2 POP POP SWAP3 SWAP2 POP POP JUMP JUMPDEST PUSH1 0x0 PUSH1 0x20 DUP3 DUP5 SUB SLT ISZERO PUSH2 0x26B5 JUMPI PUSH2 0x26B4 PUSH2 0x3474 JUMP JUMPDEST JUMPDEST PUSH1 0x0 PUSH2 0x26C3 DUP5 DUP3 DUP6 ADD PUSH2 0x234E JUMP JUMPDEST SWAP2 POP POP SWAP3 SWAP2 POP POP JUMP JUMPDEST PUSH1 0x0 PUSH1 0x20 DUP3 DUP5 SUB SLT ISZERO PUSH2 0x26E2 JUMPI PUSH2 0x26E1 PUSH2 0x3474 JUMP JUMPDEST JUMPDEST PUSH1 0x0 DUP3 ADD CALLDATALOAD PUSH8 0xFFFFFFFFFFFFFFFF DUP2 GT ISZERO PUSH2 0x2700 JUMPI PUSH2 0x26FF PUSH2 0x346F JUMP JUMPDEST JUMPDEST PUSH2 0x270C DUP5 DUP3 DUP6 ADD PUSH2 0x2391 JUMP JUMPDEST SWAP2 POP POP SWAP3 SWAP2 POP POP JUMP JUMPDEST PUSH1 0x0 DUP1 PUSH1 0x40 DUP4 DUP6 SUB SLT ISZERO PUSH2 0x272C JUMPI PUSH2 0x272B PUSH2 0x3474 JUMP JUMPDEST JUMPDEST PUSH1 0x0 DUP4 ADD CALLDATALOAD PUSH8 0xFFFFFFFFFFFFFFFF DUP2 GT ISZERO PUSH2 0x274A JUMPI PUSH2 0x2749 PUSH2 0x346F JUMP JUMPDEST JUMPDEST PUSH2 0x2756 DUP6 DUP3 DUP7 ADD PUSH2 0x2391 JUMP JUMPDEST SWAP3 POP POP PUSH1 0x20 PUSH2 0x2767 DUP6 DUP3 DUP7 ADD PUSH2 0x22B3 JUMP JUMPDEST SWAP2 POP POP SWAP3 POP SWAP3 SWAP1 POP JUMP JUMPDEST PUSH1 0x0 DUP1 PUSH1 0x0 DUP1 PUSH1 0x0 DUP1 PUSH1 0x0 DUP1 PUSH1 0x0 PUSH2 0x120 DUP11 DUP13 SUB SLT ISZERO PUSH2 0x2794 JUMPI PUSH2 0x2793 PUSH2 0x3474 JUMP JUMPDEST JUMPDEST PUSH1 0x0 DUP11 ADD CALLDATALOAD PUSH8 0xFFFFFFFFFFFFFFFF DUP2 GT ISZERO PUSH2 0x27B2 JUMPI PUSH2 0x27B1 PUSH2 0x346F JUMP JUMPDEST JUMPDEST PUSH2 0x27BE DUP13 DUP3 DUP14 ADD PUSH2 0x2391 JUMP JUMPDEST SWAP10 POP POP PUSH1 0x20 DUP11 ADD CALLDATALOAD PUSH8 0xFFFFFFFFFFFFFFFF DUP2 GT ISZERO PUSH2 0x27DF JUMPI PUSH2 0x27DE PUSH2 0x346F JUMP JUMPDEST JUMPDEST PUSH2 0x27EB DUP13 DUP3 DUP14 ADD PUSH2 0x2391 JUMP JUMPDEST SWAP9 POP POP PUSH1 0x40 DUP11 ADD CALLDATALOAD PUSH8 0xFFFFFFFFFFFFFFFF DUP2 GT ISZERO PUSH2 0x280C JUMPI PUSH2 0x280B PUSH2 0x346F JUMP JUMPDEST JUMPDEST PUSH2 0x2818 DUP13 DUP3 DUP14 ADD PUSH2 0x2391 JUMP JUMPDEST SWAP8 POP POP PUSH1 0x60 DUP11 ADD CALLDATALOAD PUSH8 0xFFFFFFFFFFFFFFFF DUP2 GT ISZERO PUSH2 0x2839 JUMPI PUSH2 0x2838 PUSH2 0x346F JUMP JUMPDEST JUMPDEST PUSH2 0x2845 DUP13 DUP3 DUP14 ADD PUSH2 0x2391 JUMP JUMPDEST SWAP7 POP POP PUSH1 0x80 DUP11 ADD CALLDATALOAD PUSH8 0xFFFFFFFFFFFFFFFF DUP2 GT ISZERO PUSH2 0x2866 JUMPI PUSH2 0x2865 PUSH2 0x346F JUMP JUMPDEST JUMPDEST PUSH2 0x2872 DUP13 DUP3 DUP14 ADD PUSH2 0x2391 JUMP JUMPDEST SWAP6 POP POP PUSH1 0xA0 DUP11 ADD CALLDATALOAD PUSH8 0xFFFFFFFFFFFFFFFF DUP2 GT ISZERO PUSH2 0x2893 JUMPI PUSH2 0x2892 PUSH2 0x346F JUMP JUMPDEST JUMPDEST PUSH2 0x289F DUP13 DUP3 DUP14 ADD PUSH2 0x2391 JUMP JUMPDEST SWAP5 POP POP PUSH1 0xC0 DUP11 ADD CALLDATALOAD PUSH8 0xFFFFFFFFFFFFFFFF DUP2 GT ISZERO PUSH2 0x28C0 JUMPI PUSH2 0x28BF PUSH2 0x346F JUMP JUMPDEST JUMPDEST PUSH2 0x28CC DUP13 DUP3 DUP14 ADD PUSH2 0x2391 JUMP JUMPDEST SWAP4 POP POP PUSH1 0xE0 PUSH2 0x28DD DUP13 DUP3 DUP14 ADD PUSH2 0x22B3 JUMP JUMPDEST SWAP3 POP POP PUSH2 0x100 DUP11 ADD CALLDATALOAD PUSH8 0xFFFFFFFFFFFFFFFF DUP2 GT ISZERO PUSH2 0x28FF JUMPI PUSH2 0x28FE PUSH2 0x346F JUMP JUMPDEST JUMPDEST PUSH2 0x290B DUP13 DUP3 DUP14 ADD PUSH2 0x2391 JUMP JUMPDEST SWAP2 POP POP SWAP3 SWAP6 SWAP9 POP SWAP3 SWAP6 SWAP9 POP SWAP3 SWAP6 SWAP9 JUMP JUMPDEST PUSH1 0x0 PUSH1 0x20 DUP3 DUP5 SUB SLT ISZERO PUSH2 0x2931 JUMPI PUSH2 0x2930 PUSH2 0x3474 JUMP JUMPDEST JUMPDEST PUSH1 0x0 PUSH2 0x293F DUP5 DUP3 DUP6 ADD PUSH2 0x23BF JUMP JUMPDEST SWAP2 POP POP SWAP3 SWAP2 POP POP JUMP JUMPDEST PUSH1 0x0 DUP1 PUSH1 0x40 DUP4 DUP6 SUB SLT ISZERO PUSH2 0x295F JUMPI PUSH2 0x295E PUSH2 0x3474 JUMP JUMPDEST JUMPDEST PUSH1 0x0 PUSH2 0x296D DUP6 DUP3 DUP7 ADD PUSH2 0x23BF JUMP JUMPDEST SWAP3 POP POP PUSH1 0x20 PUSH2 0x297E DUP6 DUP3 DUP7 ADD PUSH2 0x22B3 JUMP JUMPDEST SWAP2 POP POP SWAP3 POP SWAP3 SWAP1 POP JUMP JUMPDEST PUSH1 0x0 PUSH2 0x2994 DUP4 DUP4 PUSH2 0x2C40 JUMP JUMPDEST PUSH1 0x20 DUP4 ADD SWAP1 POP SWAP3 SWAP2 POP POP JUMP JUMPDEST PUSH2 0x29A9 DUP2 PUSH2 0x3220 JUMP JUMPDEST DUP3 MSTORE POP POP JUMP JUMPDEST PUSH1 0x0 PUSH2 0x29BA DUP3 PUSH2 0x315E JUMP JUMPDEST PUSH2 0x29C4 DUP2 DUP6 PUSH2 0x318C JUMP JUMPDEST SWAP4 POP PUSH2 0x29CF DUP4 PUSH2 0x314E JUMP JUMPDEST DUP1 PUSH1 0x0 JUMPDEST DUP4 DUP2 LT ISZERO PUSH2 0x2A00 JUMPI DUP2 MLOAD PUSH2 0x29E7 DUP9 DUP3 PUSH2 0x2988 JUMP JUMPDEST SWAP8 POP PUSH2 0x29F2 DUP4 PUSH2 0x317F JUMP JUMPDEST SWAP3 POP POP PUSH1 0x1 DUP2 ADD SWAP1 POP PUSH2 0x29D3 JUMP JUMPDEST POP DUP6 SWAP4 POP POP POP POP SWAP3 SWAP2 POP POP JUMP JUMPDEST PUSH2 0x2A16 DUP2 PUSH2 0x3232 JUMP JUMPDEST DUP3 MSTORE POP POP JUMP JUMPDEST PUSH1 0x0 PUSH2 0x2A27 DUP3 PUSH2 0x3169 JUMP JUMPDEST PUSH2 0x2A31 DUP2 DUP6 PUSH2 0x319D JUMP JUMPDEST SWAP4 POP PUSH2 0x2A41 DUP2 DUP6 PUSH1 0x20 DUP7 ADD PUSH2 0x32A3 JUMP JUMPDEST PUSH2 0x2A4A DUP2 PUSH2 0x3479 JUMP JUMPDEST DUP5 ADD SWAP2 POP POP SWAP3 SWAP2 POP POP JUMP JUMPDEST PUSH1 0x0 PUSH2 0x2A60 DUP3 PUSH2 0x3174 JUMP JUMPDEST PUSH2 0x2A6A DUP2 DUP6 PUSH2 0x31AE JUMP JUMPDEST SWAP4 POP PUSH2 0x2A7A DUP2 DUP6 PUSH1 0x20 DUP7 ADD PUSH2 0x32A3 JUMP JUMPDEST PUSH2 0x2A83 DUP2 PUSH2 0x3479 JUMP JUMPDEST DUP5 ADD SWAP2 POP POP SWAP3 SWAP2 POP POP JUMP JUMPDEST PUSH1 0x0 PUSH2 0x2A99 DUP3 PUSH2 0x3174 JUMP JUMPDEST PUSH2 0x2AA3 DUP2 DUP6 PUSH2 0x31BF JUMP JUMPDEST SWAP4 POP PUSH2 0x2AB3 DUP2 DUP6 PUSH1 0x20 DUP7 ADD PUSH2 0x32A3 JUMP JUMPDEST DUP1 DUP5 ADD SWAP2 POP POP SWAP3 SWAP2 POP POP JUMP JUMPDEST PUSH1 0x0 PUSH2 0x2ACC PUSH1 0x34 DUP4 PUSH2 0x31AE JUMP JUMPDEST SWAP2 POP PUSH2 0x2AD7 DUP3 PUSH2 0x3497 JUMP JUMPDEST PUSH1 0x40 DUP3 ADD SWAP1 POP SWAP2 SWAP1 POP JUMP JUMPDEST PUSH1 0x0 PUSH2 0x2AEF PUSH1 0x28 DUP4 PUSH2 0x31AE JUMP JUMPDEST SWAP2 POP PUSH2 0x2AFA DUP3 PUSH2 0x34E6 JUMP JUMPDEST PUSH1 0x40 DUP3 ADD SWAP1 POP SWAP2 SWAP1 POP JUMP JUMPDEST PUSH1 0x0 PUSH2 0x2B12 PUSH1 0x2B DUP4 PUSH2 0x31AE JUMP JUMPDEST SWAP2 POP PUSH2 0x2B1D DUP3 PUSH2 0x3535 JUMP JUMPDEST PUSH1 0x40 DUP3 ADD SWAP1 POP SWAP2 SWAP1 POP JUMP JUMPDEST PUSH1 0x0 PUSH2 0x2B35 PUSH1 0x29 DUP4 PUSH2 0x31AE JUMP JUMPDEST SWAP2 POP PUSH2 0x2B40 DUP3 PUSH2 0x3584 JUMP JUMPDEST PUSH1 0x40 DUP3 ADD SWAP1 POP SWAP2 SWAP1 POP JUMP JUMPDEST PUSH1 0x0 PUSH2 0x2B58 PUSH1 0x25 DUP4 PUSH2 0x31AE JUMP JUMPDEST SWAP2 POP PUSH2 0x2B63 DUP3 PUSH2 0x35D3 JUMP JUMPDEST PUSH1 0x40 DUP3 ADD SWAP1 POP SWAP2 SWAP1 POP JUMP JUMPDEST PUSH1 0x0 PUSH2 0x2B7B PUSH1 0x32 DUP4 PUSH2 0x31AE JUMP JUMPDEST SWAP2 POP PUSH2 0x2B86 DUP3 PUSH2 0x3622 JUMP JUMPDEST PUSH1 0x40 DUP3 ADD SWAP1 POP SWAP2 SWAP1 POP JUMP JUMPDEST PUSH1 0x0 PUSH2 0x2B9E PUSH1 0x2A DUP4 PUSH2 0x31AE JUMP JUMPDEST SWAP2 POP PUSH2 0x2BA9 DUP3 PUSH2 0x3671 JUMP JUMPDEST PUSH1 0x40 DUP3 ADD SWAP1 POP SWAP2 SWAP1 POP JUMP JUMPDEST PUSH1 0x0 PUSH2 0x2BC1 PUSH1 0x29 DUP4 PUSH2 0x31AE JUMP JUMPDEST SWAP2 POP PUSH2 0x2BCC DUP3 PUSH2 0x36C0 JUMP JUMPDEST PUSH1 0x40 DUP3 ADD SWAP1 POP SWAP2 SWAP1 POP JUMP JUMPDEST PUSH1 0x0 PUSH2 0x2BE4 PUSH1 0x29 DUP4 PUSH2 0x31AE JUMP JUMPDEST SWAP2 POP PUSH2 0x2BEF DUP3 PUSH2 0x370F JUMP JUMPDEST PUSH1 0x40 DUP3 ADD SWAP1 POP SWAP2 SWAP1 POP JUMP JUMPDEST PUSH1 0x0 PUSH2 0x2C07 PUSH1 0x28 DUP4 PUSH2 0x31AE JUMP JUMPDEST SWAP2 POP PUSH2 0x2C12 DUP3 PUSH2 0x375E JUMP JUMPDEST PUSH1 0x40 DUP3 ADD SWAP1 POP SWAP2 SWAP1 POP JUMP JUMPDEST PUSH1 0x0 PUSH2 0x2C2A PUSH1 0x21 DUP4 PUSH2 0x31AE JUMP JUMPDEST SWAP2 POP PUSH2 0x2C35 DUP3 PUSH2 0x37AD JUMP JUMPDEST PUSH1 0x40 DUP3 ADD SWAP1 POP SWAP2 SWAP1 POP JUMP JUMPDEST PUSH2 0x2C49 DUP2 PUSH2 0x328A JUMP JUMPDEST DUP3 MSTORE POP POP JUMP JUMPDEST PUSH2 0x2C58 DUP2 PUSH2 0x328A JUMP JUMPDEST DUP3 MSTORE POP POP JUMP JUMPDEST PUSH1 0x0 PUSH2 0x2C6A DUP3 DUP5 PUSH2 0x2A8E JUMP JUMPDEST SWAP2 POP DUP2 SWAP1 POP SWAP3 SWAP2 POP POP JUMP JUMPDEST PUSH1 0x0 PUSH1 0x20 DUP3 ADD SWAP1 POP PUSH2 0x2C8A PUSH1 0x0 DUP4 ADD DUP5 PUSH2 0x29A0 JUMP JUMPDEST SWAP3 SWAP2 POP POP JUMP JUMPDEST PUSH1 0x0 PUSH1 0xA0 DUP3 ADD SWAP1 POP PUSH2 0x2CA5 PUSH1 0x0 DUP4 ADD DUP9 PUSH2 0x29A0 JUMP JUMPDEST PUSH2 0x2CB2 PUSH1 0x20 DUP4 ADD DUP8 PUSH2 0x29A0 JUMP JUMPDEST DUP2 DUP2 SUB PUSH1 0x40 DUP4 ADD MSTORE PUSH2 0x2CC4 DUP2 DUP7 PUSH2 0x29AF JUMP JUMPDEST SWAP1 POP DUP2 DUP2 SUB PUSH1 0x60 DUP4 ADD MSTORE PUSH2 0x2CD8 DUP2 DUP6 PUSH2 0x29AF JUMP JUMPDEST SWAP1 POP DUP2 DUP2 SUB PUSH1 0x80 DUP4 ADD MSTORE PUSH2 0x2CEC DUP2 DUP5 PUSH2 0x2A1C JUMP JUMPDEST SWAP1 POP SWAP7 SWAP6 POP POP POP POP POP POP JUMP JUMPDEST PUSH1 0x0 PUSH1 0xA0 DUP3 ADD SWAP1 POP PUSH2 0x2D0D PUSH1 0x0 DUP4 ADD DUP9 PUSH2 0x29A0 JUMP JUMPDEST PUSH2 0x2D1A PUSH1 0x20 DUP4 ADD DUP8 PUSH2 0x29A0 JUMP JUMPDEST PUSH2 0x2D27 PUSH1 0x40 DUP4 ADD DUP7 PUSH2 0x2C4F JUMP JUMPDEST PUSH2 0x2D34 PUSH1 0x60 DUP4 ADD DUP6 PUSH2 0x2C4F JUMP JUMPDEST DUP2 DUP2 SUB PUSH1 0x80 DUP4 ADD MSTORE PUSH2 0x2D46 DUP2 DUP5 PUSH2 0x2A1C JUMP JUMPDEST SWAP1 POP SWAP7 SWAP6 POP POP POP POP POP POP JUMP JUMPDEST PUSH1 0x0 PUSH1 0x20 DUP3 ADD SWAP1 POP DUP2 DUP2 SUB PUSH1 0x0 DUP4 ADD MSTORE PUSH2 0x2D6C DUP2 DUP5 PUSH2 0x29AF JUMP JUMPDEST SWAP1 POP SWAP3 SWAP2 POP POP JUMP JUMPDEST PUSH1 0x0 PUSH1 0x40 DUP3 ADD SWAP1 POP DUP2 DUP2 SUB PUSH1 0x0 DUP4 ADD MSTORE PUSH2 0x2D8E DUP2 DUP6 PUSH2 0x29AF JUMP JUMPDEST SWAP1 POP DUP2 DUP2 SUB PUSH1 0x20 DUP4 ADD MSTORE PUSH2 0x2DA2 DUP2 DUP5 PUSH2 0x29AF JUMP JUMPDEST SWAP1 POP SWAP4 SWAP3 POP POP POP JUMP JUMPDEST PUSH1 0x0 PUSH1 0x20 DUP3 ADD SWAP1 POP PUSH2 0x2DC0 PUSH1 0x0 DUP4 ADD DUP5 PUSH2 0x2A0D JUMP JUMPDEST SWAP3 SWAP2 POP POP JUMP JUMPDEST PUSH1 0x0 PUSH1 0x20 DUP3 ADD SWAP1 POP DUP2 DUP2 SUB PUSH1 0x0 DUP4 ADD MSTORE PUSH2 0x2DE0 DUP2 DUP5 PUSH2 0x2A55 JUMP JUMPDEST SWAP1 POP SWAP3 SWAP2 POP POP JUMP JUMPDEST PUSH1 0x0 PUSH1 0x20 DUP3 ADD SWAP1 POP DUP2 DUP2 SUB PUSH1 0x0 DUP4 ADD MSTORE PUSH2 0x2E01 DUP2 PUSH2 0x2ABF JUMP JUMPDEST SWAP1 POP SWAP2 SWAP1 POP JUMP JUMPDEST PUSH1 0x0 PUSH1 0x20 DUP3 ADD SWAP1 POP DUP2 DUP2 SUB PUSH1 0x0 DUP4 ADD MSTORE PUSH2 0x2E21 DUP2 PUSH2 0x2AE2 JUMP JUMPDEST SWAP1 POP SWAP2 SWAP1 POP JUMP JUMPDEST PUSH1 0x0 PUSH1 0x20 DUP3 ADD SWAP1 POP DUP2 DUP2 SUB PUSH1 0x0 DUP4 ADD MSTORE PUSH2 0x2E41 DUP2 PUSH2 0x2B05 JUMP JUMPDEST SWAP1 POP SWAP2 SWAP1 POP JUMP JUMPDEST PUSH1 0x0 PUSH1 0x20 DUP3 ADD SWAP1 POP DUP2 DUP2 SUB PUSH1 0x0 DUP4 ADD MSTORE PUSH2 0x2E61 DUP2 PUSH2 0x2B28 JUMP JUMPDEST SWAP1 POP SWAP2 SWAP1 POP JUMP JUMPDEST PUSH1 0x0 PUSH1 0x20 DUP3 ADD SWAP1 POP DUP2 DUP2 SUB PUSH1 0x0 DUP4 ADD MSTORE PUSH2 0x2E81 DUP2 PUSH2 0x2B4B JUMP JUMPDEST SWAP1 POP SWAP2 SWAP1 POP JUMP JUMPDEST PUSH1 0x0 PUSH1 0x20 DUP3 ADD SWAP1 POP DUP2 DUP2 SUB PUSH1 0x0 DUP4 ADD MSTORE PUSH2 0x2EA1 DUP2 PUSH2 0x2B6E JUMP JUMPDEST SWAP1 POP SWAP2 SWAP1 POP JUMP JUMPDEST PUSH1 0x0 PUSH1 0x20 DUP3 ADD SWAP1 POP DUP2 DUP2 SUB PUSH1 0x0 DUP4 ADD MSTORE PUSH2 0x2EC1 DUP2 PUSH2 0x2B91 JUMP JUMPDEST SWAP1 POP SWAP2 SWAP1 POP JUMP JUMPDEST PUSH1 0x0 PUSH1 0x20 DUP3 ADD SWAP1 POP DUP2 DUP2 SUB PUSH1 0x0 DUP4 ADD MSTORE PUSH2 0x2EE1 DUP2 PUSH2 0x2BB4 JUMP JUMPDEST SWAP1 POP SWAP2 SWAP1 POP JUMP JUMPDEST PUSH1 0x0 PUSH1 0x20 DUP3 ADD SWAP1 POP DUP2 DUP2 SUB PUSH1 0x0 DUP4 ADD MSTORE PUSH2 0x2F01 DUP2 PUSH2 0x2BD7 JUMP JUMPDEST SWAP1 POP SWAP2 SWAP1 POP JUMP JUMPDEST PUSH1 0x0 PUSH1 0x20 DUP3 ADD SWAP1 POP DUP2 DUP2 SUB PUSH1 0x0 DUP4 ADD MSTORE PUSH2 0x2F21 DUP2 PUSH2 0x2BFA JUMP JUMPDEST SWAP1 POP SWAP2 SWAP1 POP JUMP JUMPDEST PUSH1 0x0 PUSH1 0x20 DUP3 ADD SWAP1 POP DUP2 DUP2 SUB PUSH1 0x0 DUP4 ADD MSTORE PUSH2 0x2F41 DUP2 PUSH2 0x2C1D JUMP JUMPDEST SWAP1 POP SWAP2 SWAP1 POP JUMP JUMPDEST PUSH1 0x0 PUSH1 0x20 DUP3 ADD SWAP1 POP PUSH2 0x2F5D PUSH1 0x0 DUP4 ADD DUP5 PUSH2 0x2C4F JUMP JUMPDEST SWAP3 SWAP2 POP POP JUMP JUMPDEST PUSH1 0x0 PUSH2 0x160 DUP3 ADD SWAP1 POP PUSH2 0x2F79 PUSH1 0x0 DUP4 ADD DUP15 PUSH2 0x2C4F JUMP JUMPDEST DUP2 DUP2 SUB PUSH1 0x20 DUP4 ADD MSTORE PUSH2 0x2F8B DUP2 DUP14 PUSH2 0x2A55 JUMP JUMPDEST SWAP1 POP DUP2 DUP2 SUB PUSH1 0x40 DUP4 ADD MSTORE PUSH2 0x2F9F DUP2 DUP13 PUSH2 0x2A55 JUMP JUMPDEST SWAP1 POP DUP2 DUP2 SUB PUSH1 0x60 DUP4 ADD MSTORE PUSH2 0x2FB3 DUP2 DUP12 PUSH2 0x2A55 JUMP JUMPDEST SWAP1 POP DUP2 DUP2 SUB PUSH1 0x80 DUP4 ADD MSTORE PUSH2 0x2FC7 DUP2 DUP11 PUSH2 0x2A55 JUMP JUMPDEST SWAP1 POP DUP2 DUP2 SUB PUSH1 0xA0 DUP4 ADD MSTORE PUSH2 0x2FDB DUP2 DUP10 PUSH2 0x2A55 JUMP JUMPDEST SWAP1 POP DUP2 DUP2 SUB PUSH1 0xC0 DUP4 ADD MSTORE PUSH2 0x2FEF DUP2 DUP9 PUSH2 0x2A55 JUMP JUMPDEST SWAP1 POP DUP2 DUP2 SUB PUSH1 0xE0 DUP4 ADD MSTORE PUSH2 0x3003 DUP2 DUP8 PUSH2 0x2A55 JUMP JUMPDEST SWAP1 POP PUSH2 0x3013 PUSH2 0x100 DUP4 ADD DUP7 PUSH2 0x29A0 JUMP JUMPDEST PUSH2 0x3021 PUSH2 0x120 DUP4 ADD DUP6 PUSH2 0x2A0D JUMP JUMPDEST DUP2 DUP2 SUB PUSH2 0x140 DUP4 ADD MSTORE PUSH2 0x3034 DUP2 DUP5 PUSH2 0x2A55 JUMP JUMPDEST SWAP1 POP SWAP13 SWAP12 POP POP POP POP POP POP POP POP POP POP POP POP JUMP JUMPDEST PUSH1 0x0 PUSH1 0x40 DUP3 ADD SWAP1 POP PUSH2 0x305B PUSH1 0x0 DUP4 ADD DUP6 PUSH2 0x2C4F JUMP JUMPDEST PUSH2 0x3068 PUSH1 0x20 DUP4 ADD DUP5 PUSH2 0x2C4F JUMP JUMPDEST SWAP4 SWAP3 POP POP POP JUMP JUMPDEST PUSH1 0x0 PUSH2 0x3079 PUSH2 0x308A JUMP JUMPDEST SWAP1 POP PUSH2 0x3085 DUP3 DUP3 PUSH2 0x3308 JUMP JUMPDEST SWAP2 SWAP1 POP JUMP JUMPDEST PUSH1 0x0 PUSH1 0x40 MLOAD SWAP1 POP SWAP1 JUMP JUMPDEST PUSH1 0x0 PUSH8 0xFFFFFFFFFFFFFFFF DUP3 GT ISZERO PUSH2 0x30AF JUMPI PUSH2 0x30AE PUSH2 0x340F JUMP JUMPDEST JUMPDEST PUSH1 0x20 DUP3 MUL SWAP1 POP PUSH1 0x20 DUP2 ADD SWAP1 POP SWAP2 SWAP1 POP JUMP JUMPDEST PUSH1 0x0 PUSH8 0xFFFFFFFFFFFFFFFF DUP3 GT ISZERO PUSH2 0x30DB JUMPI PUSH2 0x30DA PUSH2 0x340F JUMP JUMPDEST JUMPDEST PUSH1 0x20 DUP3 MUL SWAP1 POP PUSH1 0x20 DUP2 ADD SWAP1 POP SWAP2 SWAP1 POP JUMP JUMPDEST PUSH1 0x0 PUSH8 0xFFFFFFFFFFFFFFFF DUP3 GT ISZERO PUSH2 0x3107 JUMPI PUSH2 0x3106 PUSH2 0x340F JUMP JUMPDEST JUMPDEST PUSH2 0x3110 DUP3 PUSH2 0x3479 JUMP JUMPDEST SWAP1 POP PUSH1 0x20 DUP2 ADD SWAP1 POP SWAP2 SWAP1 POP JUMP JUMPDEST PUSH1 0x0 PUSH8 0xFFFFFFFFFFFFFFFF DUP3 GT ISZERO PUSH2 0x3138 JUMPI PUSH2 0x3137 PUSH2 0x340F JUMP JUMPDEST JUMPDEST PUSH2 0x3141 DUP3 PUSH2 0x3479 JUMP JUMPDEST SWAP1 POP PUSH1 0x20 DUP2 ADD SWAP1 POP SWAP2 SWAP1 POP JUMP JUMPDEST PUSH1 0x0 DUP2 SWAP1 POP PUSH1 0x20 DUP3 ADD SWAP1 POP SWAP2 SWAP1 POP JUMP JUMPDEST PUSH1 0x0 DUP2 MLOAD SWAP1 POP SWAP2 SWAP1 POP JUMP JUMPDEST PUSH1 0x0 DUP2 MLOAD SWAP1 POP SWAP2 SWAP1 POP JUMP JUMPDEST PUSH1 0x0 DUP2 MLOAD SWAP1 POP SWAP2 SWAP1 POP JUMP JUMPDEST PUSH1 0x0 PUSH1 0x20 DUP3 ADD SWAP1 POP SWAP2 SWAP1 POP JUMP JUMPDEST PUSH1 0x0 DUP3 DUP3 MSTORE PUSH1 0x20 DUP3 ADD SWAP1 POP SWAP3 SWAP2 POP POP JUMP JUMPDEST PUSH1 0x0 DUP3 DUP3 MSTORE PUSH1 0x20 DUP3 ADD SWAP1 POP SWAP3 SWAP2 POP POP JUMP JUMPDEST PUSH1 0x0 DUP3 DUP3 MSTORE PUSH1 0x20 DUP3 ADD SWAP1 POP SWAP3 SWAP2 POP POP JUMP JUMPDEST PUSH1 0x0 DUP2 SWAP1 POP SWAP3 SWAP2 POP POP JUMP JUMPDEST PUSH1 0x0 PUSH2 0x31D5 DUP3 PUSH2 0x328A JUMP JUMPDEST SWAP2 POP PUSH2 0x31E0 DUP4 PUSH2 0x328A JUMP JUMPDEST SWAP3 POP DUP3 PUSH32 0xFFFFFFFFFFFFFFFFFFFFFFFFFFFFFFFFFFFFFFFFFFFFFFFFFFFFFFFFFFFFFFFF SUB DUP3 GT ISZERO PUSH2 0x3215 JUMPI PUSH2 0x3214 PUSH2 0x3382 JUMP JUMPDEST JUMPDEST DUP3 DUP3 ADD SWAP1 POP SWAP3 SWAP2 POP POP JUMP JUMPDEST PUSH1 0x0 PUSH2 0x322B DUP3 PUSH2 0x326A JUMP JUMPDEST SWAP1 POP SWAP2 SWAP1 POP JUMP JUMPDEST PUSH1 0x0 DUP2 ISZERO ISZERO SWAP1 POP SWAP2 SWAP1 POP JUMP JUMPDEST PUSH1 0x0 PUSH32 0xFFFFFFFF00000000000000000000000000000000000000000000000000000000 DUP3 AND SWAP1 POP SWAP2 SWAP1 POP JUMP JUMPDEST PUSH1 0x0 PUSH20 0xFFFFFFFFFFFFFFFFFFFFFFFFFFFFFFFFFFFFFFFF DUP3 AND SWAP1 POP SWAP2 SWAP1 POP JUMP JUMPDEST PUSH1 0x0 DUP2 SWAP1 POP SWAP2 SWAP1 POP JUMP JUMPDEST DUP3 DUP2 DUP4 CALLDATACOPY PUSH1 0x0 DUP4 DUP4 ADD MSTORE POP POP POP JUMP JUMPDEST PUSH1 0x0 JUMPDEST DUP4 DUP2 LT ISZERO PUSH2 0x32C1 JUMPI DUP1 DUP3 ADD MLOAD DUP2 DUP5 ADD MSTORE PUSH1 0x20 DUP2 ADD SWAP1 POP PUSH2 0x32A6 JUMP JUMPDEST DUP4 DUP2 GT ISZERO PUSH2 0x32D0 JUMPI PUSH1 0x0 DUP5 DUP5 ADD MSTORE JUMPDEST POP POP POP POP JUMP JUMPDEST PUSH1 0x0 PUSH1 0x2 DUP3 DIV SWAP1 POP PUSH1 0x1 DUP3 AND DUP1 PUSH2 0x32EE JUMPI PUSH1 0x7F DUP3 AND SWAP2 POP JUMPDEST PUSH1 0x20 DUP3 LT DUP2 EQ ISZERO PUSH2 0x3302 JUMPI PUSH2 0x3301 PUSH2 0x33B1 JUMP JUMPDEST JUMPDEST POP SWAP2 SWAP1 POP JUMP JUMPDEST PUSH2 0x3311 DUP3 PUSH2 0x3479 JUMP JUMPDEST DUP2 ADD DUP2 DUP2 LT PUSH8 0xFFFFFFFFFFFFFFFF DUP3 GT OR ISZERO PUSH2 0x3330 JUMPI PUSH2 0x332F PUSH2 0x340F JUMP JUMPDEST JUMPDEST DUP1 PUSH1 0x40 MSTORE POP POP POP JUMP JUMPDEST PUSH1 0x0 PUSH2 0x3344 DUP3 PUSH2 0x328A JUMP JUMPDEST SWAP2 POP PUSH32 0xFFFFFFFFFFFFFFFFFFFFFFFFFFFFFFFFFFFFFFFFFFFFFFFFFFFFFFFFFFFFFFFF DUP3 EQ ISZERO PUSH2 0x3377 JUMPI PUSH2 0x3376 PUSH2 0x3382 JUMP JUMPDEST JUMPDEST PUSH1 0x1 DUP3 ADD SWAP1 POP SWAP2 SWAP1 POP JUMP JUMPDEST PUSH32 0x4E487B7100000000000000000000000000000000000000000000000000000000 PUSH1 0x0 MSTORE PUSH1 0x11 PUSH1 0x4 MSTORE PUSH1 0x24 PUSH1 0x0 REVERT JUMPDEST PUSH32 0x4E487B7100000000000000000000000000000000000000000000000000000000 PUSH1 0x0 MSTORE PUSH1 0x22 PUSH1 0x4 MSTORE PUSH1 0x24 PUSH1 0x0 REVERT JUMPDEST PUSH32 0x4E487B7100000000000000000000000000000000000000000000000000000000 PUSH1 0x0 MSTORE PUSH1 0x32 PUSH1 0x4 MSTORE PUSH1 0x24 PUSH1 0x0 REVERT JUMPDEST PUSH32 0x4E487B7100000000000000000000000000000000000000000000000000000000 PUSH1 0x0 MSTORE PUSH1 0x41 PUSH1 0x4 MSTORE PUSH1 0x24 PUSH1 0x0 REVERT JUMPDEST PUSH1 0x0 PUSH1 0x3 RETURNDATASIZE GT ISZERO PUSH2 0x345D JUMPI PUSH1 0x4 PUSH1 0x0 DUP1 RETURNDATACOPY PUSH2 0x345A PUSH1 0x0 MLOAD PUSH2 0x348A JUMP JUMPDEST SWAP1 POP JUMPDEST SWAP1 JUMP JUMPDEST PUSH1 0x0 DUP1 REVERT JUMPDEST PUSH1 0x0 DUP1 REVERT JUMPDEST PUSH1 0x0 DUP1 REVERT JUMPDEST PUSH1 0x0 DUP1 REVERT JUMPDEST PUSH1 0x0 DUP1 REVERT JUMPDEST PUSH1 0x0 PUSH1 0x1F NOT PUSH1 0x1F DUP4 ADD AND SWAP1 POP SWAP2 SWAP1 POP JUMP JUMPDEST PUSH1 0x0 DUP2 PUSH1 0xE0 SHR SWAP1 POP SWAP2 SWAP1 POP JUMP JUMPDEST PUSH32 0x455243313135353A207472616E7366657220746F206E6F6E2045524331313535 PUSH1 0x0 DUP3 ADD MSTORE PUSH32 0x526563656976657220696D706C656D656E746572000000000000000000000000 PUSH1 0x20 DUP3 ADD MSTORE POP JUMP JUMPDEST PUSH32 0x455243313135353A204552433131353552656365697665722072656A65637465 PUSH1 0x0 DUP3 ADD MSTORE PUSH32 0x6420746F6B656E73000000000000000000000000000000000000000000000000 PUSH1 0x20 DUP3 ADD MSTORE POP JUMP JUMPDEST PUSH32 0x455243313135353A2062616C616E636520717565727920666F7220746865207A PUSH1 0x0 DUP3 ADD MSTORE PUSH32 0x65726F2061646472657373000000000000000000000000000000000000000000 PUSH1 0x20 DUP3 ADD MSTORE POP JUMP JUMPDEST PUSH32 0x455243313135353A2063616C6C6572206973206E6F74206F776E6572206E6F72 PUSH1 0x0 DUP3 ADD MSTORE PUSH32 0x20617070726F7665640000000000000000000000000000000000000000000000 PUSH1 0x20 DUP3 ADD MSTORE POP JUMP JUMPDEST PUSH32 0x455243313135353A207472616E7366657220746F20746865207A65726F206164 PUSH1 0x0 DUP3 ADD MSTORE PUSH32 0x6472657373000000000000000000000000000000000000000000000000000000 PUSH1 0x20 DUP3 ADD MSTORE POP JUMP JUMPDEST PUSH32 0x455243313135353A207472616E736665722063616C6C6572206973206E6F7420 PUSH1 0x0 DUP3 ADD MSTORE PUSH32 0x6F776E6572206E6F7220617070726F7665640000000000000000000000000000 PUSH1 0x20 DUP3 ADD MSTORE POP JUMP JUMPDEST PUSH32 0x455243313135353A20696E73756666696369656E742062616C616E636520666F PUSH1 0x0 DUP3 ADD MSTORE PUSH32 0x72207472616E7366657200000000000000000000000000000000000000000000 PUSH1 0x20 DUP3 ADD MSTORE POP JUMP JUMPDEST PUSH32 0x455243313135353A2073657474696E6720617070726F76616C20737461747573 PUSH1 0x0 DUP3 ADD MSTORE PUSH32 0x20666F722073656C660000000000000000000000000000000000000000000000 PUSH1 0x20 DUP3 ADD MSTORE POP JUMP JUMPDEST PUSH32 0x455243313135353A206163636F756E747320616E6420696473206C656E677468 PUSH1 0x0 DUP3 ADD MSTORE PUSH32 0x206D69736D617463680000000000000000000000000000000000000000000000 PUSH1 0x20 DUP3 ADD MSTORE POP JUMP JUMPDEST PUSH32 0x455243313135353A2069647320616E6420616D6F756E7473206C656E67746820 PUSH1 0x0 DUP3 ADD MSTORE PUSH32 0x6D69736D61746368000000000000000000000000000000000000000000000000 PUSH1 0x20 DUP3 ADD MSTORE POP JUMP JUMPDEST PUSH32 0x455243313135353A206D696E7420746F20746865207A65726F20616464726573 PUSH1 0x0 DUP3 ADD MSTORE PUSH32 0x7300000000000000000000000000000000000000000000000000000000000000 PUSH1 0x20 DUP3 ADD MSTORE POP JUMP JUMPDEST PUSH1 0x0 PUSH1 0x44 RETURNDATASIZE LT ISZERO PUSH2 0x380C JUMPI PUSH2 0x388F JUMP JUMPDEST PUSH2 0x3814 PUSH2 0x308A JUMP JUMPDEST PUSH1 0x4 RETURNDATASIZE SUB PUSH1 0x4 DUP3 RETURNDATACOPY DUP1 MLOAD RETURNDATASIZE PUSH1 0x24 DUP3 ADD GT PUSH8 0xFFFFFFFFFFFFFFFF DUP3 GT OR ISZERO PUSH2 0x383C JUMPI POP POP PUSH2 0x388F JUMP JUMPDEST DUP1 DUP3 ADD DUP1 MLOAD PUSH8 0xFFFFFFFFFFFFFFFF DUP2 GT ISZERO PUSH2 0x385A JUMPI POP POP POP POP PUSH2 0x388F JUMP JUMPDEST DUP1 PUSH1 0x20 DUP4 ADD ADD PUSH1 0x4 RETURNDATASIZE SUB DUP6 ADD DUP2 GT ISZERO PUSH2 0x3877 JUMPI POP POP POP POP POP PUSH2 0x388F JUMP JUMPDEST PUSH2 0x3886 DUP3 PUSH1 0x20 ADD DUP6 ADD DUP7 PUSH2 0x3308 JUMP JUMPDEST DUP3 SWAP6 POP POP POP POP POP POP JUMPDEST SWAP1 JUMP JUMPDEST PUSH2 0x389B DUP2 PUSH2 0x3220 JUMP JUMPDEST DUP2 EQ PUSH2 0x38A6 JUMPI PUSH1 0x0 DUP1 REVERT JUMPDEST POP JUMP JUMPDEST PUSH2 0x38B2 DUP2 PUSH2 0x3232 JUMP JUMPDEST DUP2 EQ PUSH2 0x38BD JUMPI PUSH1 0x0 DUP1 REVERT JUMPDEST POP JUMP JUMPDEST PUSH2 0x38C9 DUP2 PUSH2 0x323E JUMP JUMPDEST DUP2 EQ PUSH2 0x38D4 JUMPI PUSH1 0x0 DUP1 REVERT JUMPDEST POP JUMP JUMPDEST PUSH2 0x38E0 DUP2 PUSH2 0x328A JUMP JUMPDEST DUP2 EQ PUSH2 0x38EB JUMPI PUSH1 0x0 DUP1 REVERT JUMPDEST POP JUMP INVALID LOG2 PUSH5 0x6970667358 0x22 SLT KECCAK256 ISZERO INVALID 0x1E 0xC2 0x25 0xD6 RETURN 0x23 DUP6 PUSH32 0xE07D81A2BC3F212DB51BB4529FA2D347BDF450542C6E64736F6C634300080700 CALLER "
        },
        "methodIdentifiers": {
          "Imagelist(uint256)": "67e2ddb8",
          "assetIds(string)": "4889ca90",
          "balanceOf(address,uint256)": "00fdd58e",
          "balanceOfBatch(address[],uint256[])": "4e1273f4",
          "buy(uint256,address)": "7deb6025",
          "isApprovedForAll(address,address)": "e985e9c5",
          "le()": "dcc78377",
          "mintNFT(string,string,string,string,string,string,string,address,string)": "4ec71ef5",
          "platform()": "4bde38c8",
          "putOnSale(uint256)": "9dbcfd6f",
          "safeBatchTransferFrom(address,address,uint256[],uint256[],bytes)": "2eb2c2d6",
          "safeTransferFrom(address,address,uint256,uint256,bytes)": "f242432a",
          "setApprovalForAll(address,bool)": "a22cb465",
          "supportsInterface(bytes4)": "01ffc9a7",
          "transfer(string,address)": "fbf58b3e",
          "uri(uint256)": "0e89341c"
        }
      }
    }
  }
}