{
  "contracts/MyNft.sol": {
    "MyNFT": {
      "abi": [
        {
          "inputs": [],
          "stateMutability": "nonpayable",
          "type": "constructor"
        },
        {
          "anonymous": false,
          "inputs": [
            {
              "indexed": true,
              "internalType": "address",
              "name": "account",
              "type": "address"
            },
            {
              "indexed": true,
              "internalType": "address",
              "name": "operator",
              "type": "address"
            },
            {
              "indexed": false,
              "internalType": "bool",
              "name": "approved",
              "type": "bool"
            }
          ],
          "name": "ApprovalForAll",
          "type": "event"
        },
        {
          "anonymous": false,
          "inputs": [
            {
              "indexed": true,
              "internalType": "address",
              "name": "operator",
              "type": "address"
            },
            {
              "indexed": true,
              "internalType": "address",
              "name": "from",
              "type": "address"
            },
            {
              "indexed": true,
              "internalType": "address",
              "name": "to",
              "type": "address"
            },
            {
              "indexed": false,
              "internalType": "uint256[]",
              "name": "ids",
              "type": "uint256[]"
            },
            {
              "indexed": false,
              "internalType": "uint256[]",
              "name": "values",
              "type": "uint256[]"
            }
          ],
          "name": "TransferBatch",
          "type": "event"
        },
        {
          "anonymous": false,
          "inputs": [
            {
              "indexed": true,
              "internalType": "address",
              "name": "operator",
              "type": "address"
            },
            {
              "indexed": true,
              "internalType": "address",
              "name": "from",
              "type": "address"
            },
            {
              "indexed": true,
              "internalType": "address",
              "name": "to",
              "type": "address"
            },
            {
              "indexed": false,
              "internalType": "uint256",
              "name": "id",
              "type": "uint256"
            },
            {
              "indexed": false,
              "internalType": "uint256",
              "name": "value",
              "type": "uint256"
            }
          ],
          "name": "TransferSingle",
          "type": "event"
        },
        {
          "anonymous": false,
          "inputs": [
            {
              "indexed": false,
              "internalType": "string",
              "name": "value",
              "type": "string"
            },
            {
              "indexed": true,
              "internalType": "uint256",
              "name": "id",
              "type": "uint256"
            }
          ],
          "name": "URI",
          "type": "event"
        },
        {
          "inputs": [
            {
              "internalType": "uint256",
              "name": "",
              "type": "uint256"
            }
          ],
          "name": "Imagelist",
          "outputs": [
            {
              "internalType": "uint256",
              "name": "id",
              "type": "uint256"
            },
            {
              "internalType": "string",
              "name": "assetName",
              "type": "string"
            },
            {
              "internalType": "string",
              "name": "assetQuantity",
              "type": "string"
            },
            {
              "internalType": "string",
              "name": "assetUom",
              "type": "string"
            },
            {
              "internalType": "string",
              "name": "expiryDate",
              "type": "string"
            },
            {
              "internalType": "string",
              "name": "effectiveDate",
              "type": "string"
            },
            {
              "internalType": "string",
              "name": "description",
              "type": "string"
            },
            {
              "internalType": "string",
              "name": "datetime",
              "type": "string"
            },
            {
              "internalType": "address",
              "name": "owner",
              "type": "address"
            },
            {
              "internalType": "bool",
              "name": "sale",
              "type": "bool"
            },
            {
              "internalType": "string",
              "name": "provinance_hash",
              "type": "string"
            }
          ],
          "stateMutability": "view",
          "type": "function"
        },
        {
          "inputs": [
            {
              "internalType": "string",
              "name": "",
              "type": "string"
            }
          ],
          "name": "assetIds",
          "outputs": [
            {
              "internalType": "uint256",
              "name": "",
              "type": "uint256"
            }
          ],
          "stateMutability": "view",
          "type": "function"
        },
        {
          "inputs": [
            {
              "internalType": "address",
              "name": "account",
              "type": "address"
            },
            {
              "internalType": "uint256",
              "name": "id",
              "type": "uint256"
            }
          ],
          "name": "balanceOf",
          "outputs": [
            {
              "internalType": "uint256",
              "name": "",
              "type": "uint256"
            }
          ],
          "stateMutability": "view",
          "type": "function"
        },
        {
          "inputs": [
            {
              "internalType": "address[]",
              "name": "accounts",
              "type": "address[]"
            },
            {
              "internalType": "uint256[]",
              "name": "ids",
              "type": "uint256[]"
            }
          ],
          "name": "balanceOfBatch",
          "outputs": [
            {
              "internalType": "uint256[]",
              "name": "",
              "type": "uint256[]"
            }
          ],
          "stateMutability": "view",
          "type": "function"
        },
        {
          "inputs": [
            {
              "internalType": "uint256",
              "name": "id",
              "type": "uint256"
            },
            {
              "internalType": "address",
              "name": "to",
              "type": "address"
            }
          ],
          "name": "buy",
          "outputs": [],
          "stateMutability": "nonpayable",
          "type": "function"
        },
        {
          "inputs": [
            {
              "internalType": "address",
              "name": "account",
              "type": "address"
            },
            {
              "internalType": "address",
              "name": "operator",
              "type": "address"
            }
          ],
          "name": "isApprovedForAll",
          "outputs": [
            {
              "internalType": "bool",
              "name": "",
              "type": "bool"
            }
          ],
          "stateMutability": "view",
          "type": "function"
        },
        {
          "inputs": [
            {
              "internalType": "string",
              "name": "assetName",
              "type": "string"
            },
            {
              "internalType": "string",
              "name": "assetQuantity",
              "type": "string"
            },
            {
              "internalType": "string",
              "name": "assetUom",
              "type": "string"
            },
            {
              "internalType": "string",
              "name": "expiryDate",
              "type": "string"
            },
            {
              "internalType": "string",
              "name": "effectiveDate",
              "type": "string"
            },
            {
              "internalType": "string",
              "name": "description",
              "type": "string"
            },
            {
              "internalType": "string",
              "name": "datetime",
              "type": "string"
            },
            {
              "internalType": "address",
              "name": "owner",
              "type": "address"
            },
            {
              "internalType": "string",
              "name": "provinance_hash",
              "type": "string"
            }
          ],
          "name": "mintNFT",
          "outputs": [
            {
              "internalType": "uint256",
              "name": "",
              "type": "uint256"
            }
          ],
          "stateMutability": "nonpayable",
          "type": "function"
        },
        {
          "inputs": [],
          "name": "platform",
          "outputs": [
            {
              "internalType": "address",
              "name": "",
              "type": "address"
            }
          ],
          "stateMutability": "view",
          "type": "function"
        },
        {
          "inputs": [
            {
              "internalType": "uint256",
              "name": "id",
              "type": "uint256"
            }
          ],
          "name": "putOnSale",
          "outputs": [],
          "stateMutability": "nonpayable",
          "type": "function"
        },
        {
          "inputs": [
            {
              "internalType": "address",
              "name": "from",
              "type": "address"
            },
            {
              "internalType": "address",
              "name": "to",
              "type": "address"
            },
            {
              "internalType": "uint256[]",
              "name": "ids",
              "type": "uint256[]"
            },
            {
              "internalType": "uint256[]",
              "name": "amounts",
              "type": "uint256[]"
            },
            {
              "internalType": "bytes",
              "name": "data",
              "type": "bytes"
            }
          ],
          "name": "safeBatchTransferFrom",
          "outputs": [],
          "stateMutability": "nonpayable",
          "type": "function"
        },
        {
          "inputs": [
            {
              "internalType": "address",
              "name": "from",
              "type": "address"
            },
            {
              "internalType": "address",
              "name": "to",
              "type": "address"
            },
            {
              "internalType": "uint256",
              "name": "id",
              "type": "uint256"
            },
            {
              "internalType": "uint256",
              "name": "amount",
              "type": "uint256"
            },
            {
              "internalType": "bytes",
              "name": "data",
              "type": "bytes"
            }
          ],
          "name": "safeTransferFrom",
          "outputs": [],
          "stateMutability": "nonpayable",
          "type": "function"
        },
        {
          "inputs": [
            {
              "internalType": "address",
              "name": "operator",
              "type": "address"
            },
            {
              "internalType": "bool",
              "name": "approved",
              "type": "bool"
            }
          ],
          "name": "setApprovalForAll",
          "outputs": [],
          "stateMutability": "nonpayable",
          "type": "function"
        },
        {
          "inputs": [
            {
              "internalType": "bytes4",
              "name": "interfaceId",
              "type": "bytes4"
            }
          ],
          "name": "supportsInterface",
          "outputs": [
            {
              "internalType": "bool",
              "name": "",
              "type": "bool"
            }
          ],
          "stateMutability": "view",
          "type": "function"
        },
        {
          "inputs": [
            {
              "internalType": "string",
              "name": "assetName",
              "type": "string"
            },
            {
              "internalType": "address",
              "name": "to",
              "type": "address"
            }
          ],
          "name": "transfer",
          "outputs": [],
          "stateMutability": "nonpayable",
          "type": "function"
        },
        {
          "inputs": [
            {
              "internalType": "uint256",
              "name": "",
              "type": "uint256"
            }
          ],
          "name": "uri",
          "outputs": [
            {
              "internalType": "string",
              "name": "",
              "type": "string"
            }
          ],
          "stateMutability": "view",
          "type": "function"
        }
      ],
      "evm": {
        "bytecode": {
          "linkReferences": {},
          "object": "60806040523480156200001157600080fd5b506040518060400160405280600481526020017f736e6170000000000000000000000000000000000000000000000000000000008152506200005981620000a160201b60201c565b5033600360006101000a81548173ffffffffffffffffffffffffffffffffffffffff021916908373ffffffffffffffffffffffffffffffffffffffff160217905550620001d2565b8060029080519060200190620000b9929190620000bd565b5050565b828054620000cb906200016d565b90600052602060002090601f016020900481019282620000ef57600085556200013b565b82601f106200010a57805160ff19168380011785556200013b565b828001600101855582156200013b579182015b828111156200013a5782518255916020019190600101906200011d565b5b5090506200014a91906200014e565b5090565b5b80821115620001695760008160009055506001016200014f565b5090565b600060028204905060018216806200018657607f821691505b602082108114156200019d576200019c620001a3565b5b50919050565b7f4e487b7100000000000000000000000000000000000000000000000000000000600052602260045260246000fd5b6138e980620001e26000396000f3fe608060405234801561001057600080fd5b50600436106100f45760003560e01c80634ec71ef511610097578063a22cb46511610066578063a22cb465146102c5578063e985e9c5146102e1578063f242432a14610311578063fbf58b3e1461032d576100f4565b80634ec71ef51461022357806367e2ddb8146102535780637deb60251461028d5780639dbcfd6f146102a9576100f4565b80632eb2c2d6116100d35780632eb2c2d6146101895780634889ca90146101a55780634bde38c8146101d55780634e1273f4146101f3576100f4565b8062fdd58e146100f957806301ffc9a7146101295780630e89341c14610159575b600080fd5b610113600480360381019061010e919061257f565b610349565b6040516101209190612f0d565b60405180910390f35b610143600480360381019061013e9190612637565b610412565b6040516101509190612d70565b60405180910390f35b610173600480360381019061016e91906128e0565b6104f4565b6040516101809190612d8b565b60405180910390f35b6101a3600480360381019061019e91906123d9565b610588565b005b6101bf60048036038101906101ba9190612691565b610629565b6040516101cc9190612f0d565b60405180910390f35b6101dd610657565b6040516101ea9190612c3a565b60405180910390f35b61020d600480360381019061020891906125bf565b61067d565b60405161021a9190612d17565b60405180910390f35b61023d60048036038101906102389190612736565b610796565b60405161024a9190612f0d565b60405180910390f35b61026d600480360381019061026891906128e0565b610a0e565b6040516102849b9a99989796959493929190612f28565b60405180910390f35b6102a760048036038101906102a2919061290d565b610ee5565b005b6102c360048036038101906102be91906128e0565b610ff3565b005b6102df60048036038101906102da919061253f565b6110b4565b005b6102fb60048036038101906102f69190612399565b6110ca565b6040516103089190612d70565b60405180910390f35b61032b600480360381019061032691906124a8565b61115e565b005b610347600480360381019061034291906126da565b6111ff565b005b60008073ffffffffffffffffffffffffffffffffffffffff168373ffffffffffffffffffffffffffffffffffffffff1614156103ba576040517f08c379a00000000000000000000000000000000000000000000000000000000081526004016103b190612ded565b60405180910390fd5b60008083815260200190815260200160002060008473ffffffffffffffffffffffffffffffffffffffff1673ffffffffffffffffffffffffffffffffffffffff16815260200190815260200160002054905092915050565b60007fd9b67a26000000000000000000000000000000000000000000000000000000007bffffffffffffffffffffffffffffffffffffffffffffffffffffffff1916827bffffffffffffffffffffffffffffffffffffffffffffffffffffffff191614806104dd57507f0e89341c000000000000000000000000000000000000000000000000000000007bffffffffffffffffffffffffffffffffffffffffffffffffffffffff1916827bffffffffffffffffffffffffffffffffffffffffffffffffffffffff1916145b806104ed57506104ec826112f3565b5b9050919050565b6060600280546105039061329b565b80601f016020809104026020016040519081016040528092919081815260200182805461052f9061329b565b801561057c5780601f106105515761010080835404028352916020019161057c565b820191906000526020600020905b81548152906001019060200180831161055f57829003601f168201915b50505050509050919050565b61059061135d565b73ffffffffffffffffffffffffffffffffffffffff168573ffffffffffffffffffffffffffffffffffffffff1614806105d657506105d5856105d061135d565b6110ca565b5b610615576040517f08c379a000000000000000000000000000000000000000000000000000000000815260040161060c90612e4d565b60405180910390fd5b6106228585858585611365565b5050505050565b6005818051602081018201805184825260208301602085012081835280955050505050506000915090505481565b600360009054906101000a900473ffffffffffffffffffffffffffffffffffffffff1681565b606081518351146106c3576040517f08c379a00000000000000000000000000000000000000000000000000000000081526004016106ba90612ead565b60405180910390fd5b6000835167ffffffffffffffff8111156106e0576106df6133d4565b5b60405190808252806020026020018201604052801561070e5781602001602082028036833780820191505090505b50905060005b845181101561078b5761075b858281518110610733576107326133a5565b5b602002602001015185838151811061074e5761074d6133a5565b5b6020026020010151610349565b82828151811061076e5761076d6133a5565b5b60200260200101818152505080610784906132fe565b9050610714565b508091505092915050565b60008060048054905090506107ce600360009054906101000a900473ffffffffffffffffffffffffffffffffffffffff1660016110b4565b600060046040518061016001604052808481526020018e81526020018d81526020018c81526020018b81526020018a81526020018981526020018881526020018773ffffffffffffffffffffffffffffffffffffffff16815260200183151581526020018681525090806001815401808255809150506001900390600052602060002090600a0201600090919091909150600082015181600001556020820151816001019080519060200190610885929190612071565b5060408201518160020190805190602001906108a2929190612071565b5060608201518160030190805190602001906108bf929190612071565b5060808201518160040190805190602001906108dc929190612071565b5060a08201518160050190805190602001906108f9929190612071565b5060c0820151816006019080519060200190610916929190612071565b5060e0820151816007019080519060200190610933929190612071565b506101008201518160080160006101000a81548173ffffffffffffffffffffffffffffffffffffffff021916908373ffffffffffffffffffffffffffffffffffffffff1602179055506101208201518160080160146101000a81548160ff0219169083151502179055506101408201518160090190805190602001906109ba929190612071565b5050506109d98583600160405180602001604052806000815250611679565b8160058d6040516109ea9190612c23565b90815260200160405180910390208190555081925050509998505050505050505050565b60048181548110610a1e57600080fd5b90600052602060002090600a0201600091509050806000015490806001018054610a479061329b565b80601f0160208091040260200160405190810160405280929190818152602001828054610a739061329b565b8015610ac05780601f10610a9557610100808354040283529160200191610ac0565b820191906000526020600020905b815481529060010190602001808311610aa357829003601f168201915b505050505090806002018054610ad59061329b565b80601f0160208091040260200160405190810160405280929190818152602001828054610b019061329b565b8015610b4e5780601f10610b2357610100808354040283529160200191610b4e565b820191906000526020600020905b815481529060010190602001808311610b3157829003601f168201915b505050505090806003018054610b639061329b565b80601f0160208091040260200160405190810160405280929190818152602001828054610b8f9061329b565b8015610bdc5780601f10610bb157610100808354040283529160200191610bdc565b820191906000526020600020905b815481529060010190602001808311610bbf57829003601f168201915b505050505090806004018054610bf19061329b565b80601f0160208091040260200160405190810160405280929190818152602001828054610c1d9061329b565b8015610c6a5780601f10610c3f57610100808354040283529160200191610c6a565b820191906000526020600020905b815481529060010190602001808311610c4d57829003601f168201915b505050505090806005018054610c7f9061329b565b80601f0160208091040260200160405190810160405280929190818152602001828054610cab9061329b565b8015610cf85780601f10610ccd57610100808354040283529160200191610cf8565b820191906000526020600020905b815481529060010190602001808311610cdb57829003601f168201915b505050505090806006018054610d0d9061329b565b80601f0160208091040260200160405190810160405280929190818152602001828054610d399061329b565b8015610d865780601f10610d5b57610100808354040283529160200191610d86565b820191906000526020600020905b815481529060010190602001808311610d6957829003601f168201915b505050505090806007018054610d9b9061329b565b80601f0160208091040260200160405190810160405280929190818152602001828054610dc79061329b565b8015610e145780601f10610de957610100808354040283529160200191610e14565b820191906000526020600020905b815481529060010190602001808311610df757829003601f168201915b5050505050908060080160009054906101000a900473ffffffffffffffffffffffffffffffffffffffff16908060080160149054906101000a900460ff1690806009018054610e629061329b565b80601f0160208091040260200160405190810160405280929190818152602001828054610e8e9061329b565b8015610edb5780601f10610eb057610100808354040283529160200191610edb565b820191906000526020600020905b815481529060010190602001808311610ebe57829003601f168201915b505050505090508b565b600060048381548110610efb57610efa6133a5565b5b90600052602060002090600a020160080160009054906101000a900473ffffffffffffffffffffffffffffffffffffffff169050610f4c81338560016040518060200160405280600081525061180f565b8160048481548110610f6157610f606133a5565b5b90600052602060002090600a020160080160006101000a81548173ffffffffffffffffffffffffffffffffffffffff021916908373ffffffffffffffffffffffffffffffffffffffff160217905550600060048481548110610fc657610fc56133a5565b5b90600052602060002090600a020160080160146101000a81548160ff021916908315150217905550505050565b600060048281548110611009576110086133a5565b5b90600052602060002090600a020160080160009054906101000a900473ffffffffffffffffffffffffffffffffffffffff1690503373ffffffffffffffffffffffffffffffffffffffff168173ffffffffffffffffffffffffffffffffffffffff1614156110b057600160048381548110611087576110866133a5565b5b90600052602060002090600a020160080160146101000a81548160ff0219169083151502179055505b5050565b6110c66110bf61135d565b8383611a91565b5050565b6000600160008473ffffffffffffffffffffffffffffffffffffffff1673ffffffffffffffffffffffffffffffffffffffff16815260200190815260200160002060008373ffffffffffffffffffffffffffffffffffffffff1673ffffffffffffffffffffffffffffffffffffffff16815260200190815260200160002060009054906101000a900460ff16905092915050565b61116661135d565b73ffffffffffffffffffffffffffffffffffffffff168573ffffffffffffffffffffffffffffffffffffffff1614806111ac57506111ab856111a661135d565b6110ca565b5b6111eb576040517f08c379a00000000000000000000000000000000000000000000000000000000081526004016111e290612e0d565b60405180910390fd5b6111f8858585858561180f565b5050505050565b60006005836040516112119190612c23565b9081526020016040518091039020549050600060048281548110611238576112376133a5565b5b90600052602060002090600a020160080160009054906101000a900473ffffffffffffffffffffffffffffffffffffffff16905061128981848460016040518060200160405280600081525061180f565b826004838154811061129e5761129d6133a5565b5b90600052602060002090600a020160080160006101000a81548173ffffffffffffffffffffffffffffffffffffffff021916908373ffffffffffffffffffffffffffffffffffffffff16021790555050505050565b60007f01ffc9a7000000000000000000000000000000000000000000000000000000007bffffffffffffffffffffffffffffffffffffffffffffffffffffffff1916827bffffffffffffffffffffffffffffffffffffffffffffffffffffffff1916149050919050565b600033905090565b81518351146113a9576040517f08c379a00000000000000000000000000000000000000000000000000000000081526004016113a090612ecd565b60405180910390fd5b600073ffffffffffffffffffffffffffffffffffffffff168473ffffffffffffffffffffffffffffffffffffffff161415611419576040517f08c379a000000000000000000000000000000000000000000000000000000000815260040161141090612e2d565b60405180910390fd5b600061142361135d565b9050611433818787878787611bfe565b60005b84518110156115e4576000858281518110611454576114536133a5565b5b602002602001015190506000858381518110611473576114726133a5565b5b60200260200101519050600080600084815260200190815260200160002060008b73ffffffffffffffffffffffffffffffffffffffff1673ffffffffffffffffffffffffffffffffffffffff16815260200190815260200160002054905081811015611514576040517f08c379a000000000000000000000000000000000000000000000000000000000815260040161150b90612e6d565b60405180910390fd5b81810360008085815260200190815260200160002060008c73ffffffffffffffffffffffffffffffffffffffff1673ffffffffffffffffffffffffffffffffffffffff168152602001908152602001600020819055508160008085815260200190815260200160002060008b73ffffffffffffffffffffffffffffffffffffffff1673ffffffffffffffffffffffffffffffffffffffff16815260200190815260200160002060008282546115c9919061318f565b92505081905550505050806115dd906132fe565b9050611436565b508473ffffffffffffffffffffffffffffffffffffffff168673ffffffffffffffffffffffffffffffffffffffff168273ffffffffffffffffffffffffffffffffffffffff167f4a39dc06d4c0dbc64b70af90fd698a233a518aa5d07e595d983b8c0526c8f7fb878760405161165b929190612d39565b60405180910390a4611671818787878787611c06565b505050505050565b600073ffffffffffffffffffffffffffffffffffffffff168473ffffffffffffffffffffffffffffffffffffffff1614156116e9576040517f08c379a00000000000000000000000000000000000000000000000000000000081526004016116e090612eed565b60405180910390fd5b60006116f361135d565b90506117148160008761170588611ded565b61170e88611ded565b87611bfe565b8260008086815260200190815260200160002060008773ffffffffffffffffffffffffffffffffffffffff1673ffffffffffffffffffffffffffffffffffffffff1681526020019081526020016000206000828254611773919061318f565b925050819055508473ffffffffffffffffffffffffffffffffffffffff16600073ffffffffffffffffffffffffffffffffffffffff168273ffffffffffffffffffffffffffffffffffffffff167fc3d58168c5ae7397731d063d5bbf3d657854427343f4c083240f7aacaa2d0f6287876040516117f192919061300b565b60405180910390a461180881600087878787611e67565b5050505050565b600073ffffffffffffffffffffffffffffffffffffffff168473ffffffffffffffffffffffffffffffffffffffff16141561187f576040517f08c379a000000000000000000000000000000000000000000000000000000000815260040161187690612e2d565b60405180910390fd5b600061188961135d565b90506118a981878761189a88611ded565b6118a388611ded565b87611bfe565b600080600086815260200190815260200160002060008873ffffffffffffffffffffffffffffffffffffffff1673ffffffffffffffffffffffffffffffffffffffff16815260200190815260200160002054905083811015611940576040517f08c379a000000000000000000000000000000000000000000000000000000000815260040161193790612e6d565b60405180910390fd5b83810360008087815260200190815260200160002060008973ffffffffffffffffffffffffffffffffffffffff1673ffffffffffffffffffffffffffffffffffffffff168152602001908152602001600020819055508360008087815260200190815260200160002060008873ffffffffffffffffffffffffffffffffffffffff1673ffffffffffffffffffffffffffffffffffffffff16815260200190815260200160002060008282546119f5919061318f565b925050819055508573ffffffffffffffffffffffffffffffffffffffff168773ffffffffffffffffffffffffffffffffffffffff168373ffffffffffffffffffffffffffffffffffffffff167fc3d58168c5ae7397731d063d5bbf3d657854427343f4c083240f7aacaa2d0f628888604051611a7292919061300b565b60405180910390a4611a88828888888888611e67565b50505050505050565b8173ffffffffffffffffffffffffffffffffffffffff168373ffffffffffffffffffffffffffffffffffffffff161415611b00576040517f08c379a0000000000000000000000000000000000000000000000000000000008152600401611af790612e8d565b60405180910390fd5b80600160008573ffffffffffffffffffffffffffffffffffffffff1673ffffffffffffffffffffffffffffffffffffffff16815260200190815260200160002060008473ffffffffffffffffffffffffffffffffffffffff1673ffffffffffffffffffffffffffffffffffffffff16815260200190815260200160002060006101000a81548160ff0219169083151502179055508173ffffffffffffffffffffffffffffffffffffffff168373ffffffffffffffffffffffffffffffffffffffff167f17307eab39ab6107e8899845ad3d59bd9653f200f220920489ca2b5937696c3183604051611bf19190612d70565b60405180910390a3505050565b505050505050565b611c258473ffffffffffffffffffffffffffffffffffffffff1661204e565b15611de5578373ffffffffffffffffffffffffffffffffffffffff1663bc197c8187878686866040518663ffffffff1660e01b8152600401611c6b959493929190612c55565b602060405180830381600087803b158015611c8557600080fd5b505af1925050508015611cb657506040513d601f19601f82011682018060405250810190611cb39190612664565b60015b611d5c57611cc2613403565b806308c379a01415611d1f5750611cd76137c1565b80611ce25750611d21565b806040517f08c379a0000000000000000000000000000000000000000000000000000000008152600401611d169190612d8b565b60405180910390fd5b505b6040517f08c379a0000000000000000000000000000000000000000000000000000000008152600401611d5390612dad565b60405180910390fd5b63bc197c8160e01b7bffffffffffffffffffffffffffffffffffffffffffffffffffffffff1916817bffffffffffffffffffffffffffffffffffffffffffffffffffffffff191614611de3576040517f08c379a0000000000000000000000000000000000000000000000000000000008152600401611dda90612dcd565b60405180910390fd5b505b505050505050565b60606000600167ffffffffffffffff811115611e0c57611e0b6133d4565b5b604051908082528060200260200182016040528015611e3a5781602001602082028036833780820191505090505b5090508281600081518110611e5257611e516133a5565b5b60200260200101818152505080915050919050565b611e868473ffffffffffffffffffffffffffffffffffffffff1661204e565b15612046578373ffffffffffffffffffffffffffffffffffffffff1663f23a6e6187878686866040518663ffffffff1660e01b8152600401611ecc959493929190612cbd565b602060405180830381600087803b158015611ee657600080fd5b505af1925050508015611f1757506040513d601f19601f82011682018060405250810190611f149190612664565b60015b611fbd57611f23613403565b806308c379a01415611f805750611f386137c1565b80611f435750611f82565b806040517f08c379a0000000000000000000000000000000000000000000000000000000008152600401611f779190612d8b565b60405180910390fd5b505b6040517f08c379a0000000000000000000000000000000000000000000000000000000008152600401611fb490612dad565b60405180910390fd5b63f23a6e6160e01b7bffffffffffffffffffffffffffffffffffffffffffffffffffffffff1916817bffffffffffffffffffffffffffffffffffffffffffffffffffffffff191614612044576040517f08c379a000000000000000000000000000000000000000000000000000000000815260040161203b90612dcd565b60405180910390fd5b505b505050505050565b6000808273ffffffffffffffffffffffffffffffffffffffff163b119050919050565b82805461207d9061329b565b90600052602060002090601f01602090048101928261209f57600085556120e6565b82601f106120b857805160ff19168380011785556120e6565b828001600101855582156120e6579182015b828111156120e55782518255916020019190600101906120ca565b5b5090506120f391906120f7565b5090565b5b808211156121105760008160009055506001016120f8565b5090565b600061212761212284613059565b613034565b9050808382526020820190508285602086028201111561214a5761214961342a565b5b60005b8581101561217a57816121608882612278565b84526020840193506020830192505060018101905061214d565b5050509392505050565b600061219761219284613085565b613034565b905080838252602082019050828560208602820111156121ba576121b961342a565b5b60005b858110156121ea57816121d08882612384565b8452602084019350602083019250506001810190506121bd565b5050509392505050565b6000612207612202846130b1565b613034565b9050828152602081018484840111156122235761222261342f565b5b61222e848285613259565b509392505050565b6000612249612244846130e2565b613034565b9050828152602081018484840111156122655761226461342f565b5b612270848285613259565b509392505050565b60008135905061228781613857565b92915050565b600082601f8301126122a2576122a1613425565b5b81356122b2848260208601612114565b91505092915050565b600082601f8301126122d0576122cf613425565b5b81356122e0848260208601612184565b91505092915050565b6000813590506122f88161386e565b92915050565b60008135905061230d81613885565b92915050565b60008151905061232281613885565b92915050565b600082601f83011261233d5761233c613425565b5b813561234d8482602086016121f4565b91505092915050565b600082601f83011261236b5761236a613425565b5b813561237b848260208601612236565b91505092915050565b6000813590506123938161389c565b92915050565b600080604083850312156123b0576123af613439565b5b60006123be85828601612278565b92505060206123cf85828601612278565b9150509250929050565b600080600080600060a086880312156123f5576123f4613439565b5b600061240388828901612278565b955050602061241488828901612278565b945050604086013567ffffffffffffffff81111561243557612434613434565b5b612441888289016122bb565b935050606086013567ffffffffffffffff81111561246257612461613434565b5b61246e888289016122bb565b925050608086013567ffffffffffffffff81111561248f5761248e613434565b5b61249b88828901612328565b9150509295509295909350565b600080600080600060a086880312156124c4576124c3613439565b5b60006124d288828901612278565b95505060206124e388828901612278565b94505060406124f488828901612384565b935050606061250588828901612384565b925050608086013567ffffffffffffffff81111561252657612525613434565b5b61253288828901612328565b9150509295509295909350565b6000806040838503121561255657612555613439565b5b600061256485828601612278565b9250506020612575858286016122e9565b9150509250929050565b6000806040838503121561259657612595613439565b5b60006125a485828601612278565b92505060206125b585828601612384565b9150509250929050565b600080604083850312156125d6576125d5613439565b5b600083013567ffffffffffffffff8111156125f4576125f3613434565b5b6126008582860161228d565b925050602083013567ffffffffffffffff81111561262157612620613434565b5b61262d858286016122bb565b9150509250929050565b60006020828403121561264d5761264c613439565b5b600061265b848285016122fe565b91505092915050565b60006020828403121561267a57612679613439565b5b600061268884828501612313565b91505092915050565b6000602082840312156126a7576126a6613439565b5b600082013567ffffffffffffffff8111156126c5576126c4613434565b5b6126d184828501612356565b91505092915050565b600080604083850312156126f1576126f0613439565b5b600083013567ffffffffffffffff81111561270f5761270e613434565b5b61271b85828601612356565b925050602061272c85828601612278565b9150509250929050565b60008060008060008060008060006101208a8c03121561275957612758613439565b5b60008a013567ffffffffffffffff81111561277757612776613434565b5b6127838c828d01612356565b99505060208a013567ffffffffffffffff8111156127a4576127a3613434565b5b6127b08c828d01612356565b98505060408a013567ffffffffffffffff8111156127d1576127d0613434565b5b6127dd8c828d01612356565b97505060608a013567ffffffffffffffff8111156127fe576127fd613434565b5b61280a8c828d01612356565b96505060808a013567ffffffffffffffff81111561282b5761282a613434565b5b6128378c828d01612356565b95505060a08a013567ffffffffffffffff81111561285857612857613434565b5b6128648c828d01612356565b94505060c08a013567ffffffffffffffff81111561288557612884613434565b5b6128918c828d01612356565b93505060e06128a28c828d01612278565b9250506101008a013567ffffffffffffffff8111156128c4576128c3613434565b5b6128d08c828d01612356565b9150509295985092959850929598565b6000602082840312156128f6576128f5613439565b5b600061290484828501612384565b91505092915050565b6000806040838503121561292457612923613439565b5b600061293285828601612384565b925050602061294385828601612278565b9150509250929050565b60006129598383612c05565b60208301905092915050565b61296e816131e5565b82525050565b600061297f82613123565b6129898185613151565b935061299483613113565b8060005b838110156129c55781516129ac888261294d565b97506129b783613144565b925050600181019050612998565b5085935050505092915050565b6129db816131f7565b82525050565b60006129ec8261312e565b6129f68185613162565b9350612a06818560208601613268565b612a0f8161343e565b840191505092915050565b6000612a2582613139565b612a2f8185613173565b9350612a3f818560208601613268565b612a488161343e565b840191505092915050565b6000612a5e82613139565b612a688185613184565b9350612a78818560208601613268565b80840191505092915050565b6000612a91603483613173565b9150612a9c8261345c565b604082019050919050565b6000612ab4602883613173565b9150612abf826134ab565b604082019050919050565b6000612ad7602b83613173565b9150612ae2826134fa565b604082019050919050565b6000612afa602983613173565b9150612b0582613549565b604082019050919050565b6000612b1d602583613173565b9150612b2882613598565b604082019050919050565b6000612b40603283613173565b9150612b4b826135e7565b604082019050919050565b6000612b63602a83613173565b9150612b6e82613636565b604082019050919050565b6000612b86602983613173565b9150612b9182613685565b604082019050919050565b6000612ba9602983613173565b9150612bb4826136d4565b604082019050919050565b6000612bcc602883613173565b9150612bd782613723565b604082019050919050565b6000612bef602183613173565b9150612bfa82613772565b604082019050919050565b612c0e8161324f565b82525050565b612c1d8161324f565b82525050565b6000612c2f8284612a53565b915081905092915050565b6000602082019050612c4f6000830184612965565b92915050565b600060a082019050612c6a6000830188612965565b612c776020830187612965565b8181036040830152612c898186612974565b90508181036060830152612c9d8185612974565b90508181036080830152612cb181846129e1565b90509695505050505050565b600060a082019050612cd26000830188612965565b612cdf6020830187612965565b612cec6040830186612c14565b612cf96060830185612c14565b8181036080830152612d0b81846129e1565b90509695505050505050565b60006020820190508181036000830152612d318184612974565b905092915050565b60006040820190508181036000830152612d538185612974565b90508181036020830152612d678184612974565b90509392505050565b6000602082019050612d8560008301846129d2565b92915050565b60006020820190508181036000830152612da58184612a1a565b905092915050565b60006020820190508181036000830152612dc681612a84565b9050919050565b60006020820190508181036000830152612de681612aa7565b9050919050565b60006020820190508181036000830152612e0681612aca565b9050919050565b60006020820190508181036000830152612e2681612aed565b9050919050565b60006020820190508181036000830152612e4681612b10565b9050919050565b60006020820190508181036000830152612e6681612b33565b9050919050565b60006020820190508181036000830152612e8681612b56565b9050919050565b60006020820190508181036000830152612ea681612b79565b9050919050565b60006020820190508181036000830152612ec681612b9c565b9050919050565b60006020820190508181036000830152612ee681612bbf565b9050919050565b60006020820190508181036000830152612f0681612be2565b9050919050565b6000602082019050612f226000830184612c14565b92915050565b600061016082019050612f3e600083018e612c14565b8181036020830152612f50818d612a1a565b90508181036040830152612f64818c612a1a565b90508181036060830152612f78818b612a1a565b90508181036080830152612f8c818a612a1a565b905081810360a0830152612fa08189612a1a565b905081810360c0830152612fb48188612a1a565b905081810360e0830152612fc88187612a1a565b9050612fd8610100830186612965565b612fe66101208301856129d2565b818103610140830152612ff98184612a1a565b90509c9b505050505050505050505050565b60006040820190506130206000830185612c14565b61302d6020830184612c14565b9392505050565b600061303e61304f565b905061304a82826132cd565b919050565b6000604051905090565b600067ffffffffffffffff821115613074576130736133d4565b5b602082029050602081019050919050565b600067ffffffffffffffff8211156130a05761309f6133d4565b5b602082029050602081019050919050565b600067ffffffffffffffff8211156130cc576130cb6133d4565b5b6130d58261343e565b9050602081019050919050565b600067ffffffffffffffff8211156130fd576130fc6133d4565b5b6131068261343e565b9050602081019050919050565b6000819050602082019050919050565b600081519050919050565b600081519050919050565b600081519050919050565b6000602082019050919050565b600082825260208201905092915050565b600082825260208201905092915050565b600082825260208201905092915050565b600081905092915050565b600061319a8261324f565b91506131a58361324f565b9250827fffffffffffffffffffffffffffffffffffffffffffffffffffffffffffffffff038211156131da576131d9613347565b5b828201905092915050565b60006131f08261322f565b9050919050565b60008115159050919050565b60007fffffffff0000000000000000000000000000000000000000000000000000000082169050919050565b600073ffffffffffffffffffffffffffffffffffffffff82169050919050565b6000819050919050565b82818337600083830152505050565b60005b8381101561328657808201518184015260208101905061326b565b83811115613295576000848401525b50505050565b600060028204905060018216806132b357607f821691505b602082108114156132c7576132c6613376565b5b50919050565b6132d68261343e565b810181811067ffffffffffffffff821117156132f5576132f46133d4565b5b80604052505050565b60006133098261324f565b91507fffffffffffffffffffffffffffffffffffffffffffffffffffffffffffffffff82141561333c5761333b613347565b5b600182019050919050565b7f4e487b7100000000000000000000000000000000000000000000000000000000600052601160045260246000fd5b7f4e487b7100000000000000000000000000000000000000000000000000000000600052602260045260246000fd5b7f4e487b7100000000000000000000000000000000000000000000000000000000600052603260045260246000fd5b7f4e487b7100000000000000000000000000000000000000000000000000000000600052604160045260246000fd5b600060033d11156134225760046000803e61341f60005161344f565b90505b90565b600080fd5b600080fd5b600080fd5b600080fd5b600080fd5b6000601f19601f8301169050919050565b60008160e01c9050919050565b7f455243313135353a207472616e7366657220746f206e6f6e204552433131353560008201527f526563656976657220696d706c656d656e746572000000000000000000000000602082015250565b7f455243313135353a204552433131353552656365697665722072656a6563746560008201527f6420746f6b656e73000000000000000000000000000000000000000000000000602082015250565b7f455243313135353a2062616c616e636520717565727920666f7220746865207a60008201527f65726f2061646472657373000000000000000000000000000000000000000000602082015250565b7f455243313135353a2063616c6c6572206973206e6f74206f776e6572206e6f7260008201527f20617070726f7665640000000000000000000000000000000000000000000000602082015250565b7f455243313135353a207472616e7366657220746f20746865207a65726f20616460008201527f6472657373000000000000000000000000000000000000000000000000000000602082015250565b7f455243313135353a207472616e736665722063616c6c6572206973206e6f742060008201527f6f776e6572206e6f7220617070726f7665640000000000000000000000000000602082015250565b7f455243313135353a20696e73756666696369656e742062616c616e636520666f60008201527f72207472616e7366657200000000000000000000000000000000000000000000602082015250565b7f455243313135353a2073657474696e6720617070726f76616c2073746174757360008201527f20666f722073656c660000000000000000000000000000000000000000000000602082015250565b7f455243313135353a206163636f756e747320616e6420696473206c656e67746860008201527f206d69736d617463680000000000000000000000000000000000000000000000602082015250565b7f455243313135353a2069647320616e6420616d6f756e7473206c656e6774682060008201527f6d69736d61746368000000000000000000000000000000000000000000000000602082015250565b7f455243313135353a206d696e7420746f20746865207a65726f2061646472657360008201527f7300000000000000000000000000000000000000000000000000000000000000602082015250565b600060443d10156137d157613854565b6137d961304f565b60043d036004823e80513d602482011167ffffffffffffffff82111715613801575050613854565b808201805167ffffffffffffffff81111561381f5750505050613854565b80602083010160043d03850181111561383c575050505050613854565b61384b826020018501866132cd565b82955050505050505b90565b613860816131e5565b811461386b57600080fd5b50565b613877816131f7565b811461388257600080fd5b50565b61388e81613203565b811461389957600080fd5b50565b6138a58161324f565b81146138b057600080fd5b5056fea2646970667358221220f1517601d3409312c2fe387959a53e60f94b5ac6419375c5ef8f79ba1eb6352164736f6c63430008070033",
          "opcodes": "PUSH1 0x80 PUSH1 0x40 MSTORE CALLVALUE DUP1 ISZERO PUSH3 0x11 JUMPI PUSH1 0x0 DUP1 REVERT JUMPDEST POP PUSH1 0x40 MLOAD DUP1 PUSH1 0x40 ADD PUSH1 0x40 MSTORE DUP1 PUSH1 0x4 DUP2 MSTORE PUSH1 0x20 ADD PUSH32 0x736E617000000000000000000000000000000000000000000000000000000000 DUP2 MSTORE POP PUSH3 0x59 DUP2 PUSH3 0xA1 PUSH1 0x20 SHL PUSH1 0x20 SHR JUMP JUMPDEST POP CALLER PUSH1 0x3 PUSH1 0x0 PUSH2 0x100 EXP DUP2 SLOAD DUP2 PUSH20 0xFFFFFFFFFFFFFFFFFFFFFFFFFFFFFFFFFFFFFFFF MUL NOT AND SWAP1 DUP4 PUSH20 0xFFFFFFFFFFFFFFFFFFFFFFFFFFFFFFFFFFFFFFFF AND MUL OR SWAP1 SSTORE POP PUSH3 0x1D2 JUMP JUMPDEST DUP1 PUSH1 0x2 SWAP1 DUP1 MLOAD SWAP1 PUSH1 0x20 ADD SWAP1 PUSH3 0xB9 SWAP3 SWAP2 SWAP1 PUSH3 0xBD JUMP JUMPDEST POP POP JUMP JUMPDEST DUP3 DUP1 SLOAD PUSH3 0xCB SWAP1 PUSH3 0x16D JUMP JUMPDEST SWAP1 PUSH1 0x0 MSTORE PUSH1 0x20 PUSH1 0x0 KECCAK256 SWAP1 PUSH1 0x1F ADD PUSH1 0x20 SWAP1 DIV DUP2 ADD SWAP3 DUP3 PUSH3 0xEF JUMPI PUSH1 0x0 DUP6 SSTORE PUSH3 0x13B JUMP JUMPDEST DUP3 PUSH1 0x1F LT PUSH3 0x10A JUMPI DUP1 MLOAD PUSH1 0xFF NOT AND DUP4 DUP1 ADD OR DUP6 SSTORE PUSH3 0x13B JUMP JUMPDEST DUP3 DUP1 ADD PUSH1 0x1 ADD DUP6 SSTORE DUP3 ISZERO PUSH3 0x13B JUMPI SWAP2 DUP3 ADD JUMPDEST DUP3 DUP2 GT ISZERO PUSH3 0x13A JUMPI DUP3 MLOAD DUP3 SSTORE SWAP2 PUSH1 0x20 ADD SWAP2 SWAP1 PUSH1 0x1 ADD SWAP1 PUSH3 0x11D JUMP JUMPDEST JUMPDEST POP SWAP1 POP PUSH3 0x14A SWAP2 SWAP1 PUSH3 0x14E JUMP JUMPDEST POP SWAP1 JUMP JUMPDEST JUMPDEST DUP1 DUP3 GT ISZERO PUSH3 0x169 JUMPI PUSH1 0x0 DUP2 PUSH1 0x0 SWAP1 SSTORE POP PUSH1 0x1 ADD PUSH3 0x14F JUMP JUMPDEST POP SWAP1 JUMP JUMPDEST PUSH1 0x0 PUSH1 0x2 DUP3 DIV SWAP1 POP PUSH1 0x1 DUP3 AND DUP1 PUSH3 0x186 JUMPI PUSH1 0x7F DUP3 AND SWAP2 POP JUMPDEST PUSH1 0x20 DUP3 LT DUP2 EQ ISZERO PUSH3 0x19D JUMPI PUSH3 0x19C PUSH3 0x1A3 JUMP JUMPDEST JUMPDEST POP SWAP2 SWAP1 POP JUMP JUMPDEST PUSH32 0x4E487B7100000000000000000000000000000000000000000000000000000000 PUSH1 0x0 MSTORE PUSH1 0x22 PUSH1 0x4 MSTORE PUSH1 0x24 PUSH1 0x0 REVERT JUMPDEST PUSH2 0x38E9 DUP1 PUSH3 0x1E2 PUSH1 0x0 CODECOPY PUSH1 0x0 RETURN INVALID PUSH1 0x80 PUSH1 0x40 MSTORE CALLVALUE DUP1 ISZERO PUSH2 0x10 JUMPI PUSH1 0x0 DUP1 REVERT JUMPDEST POP PUSH1 0x4 CALLDATASIZE LT PUSH2 0xF4 JUMPI PUSH1 0x0 CALLDATALOAD PUSH1 0xE0 SHR DUP1 PUSH4 0x4EC71EF5 GT PUSH2 0x97 JUMPI DUP1 PUSH4 0xA22CB465 GT PUSH2 0x66 JUMPI DUP1 PUSH4 0xA22CB465 EQ PUSH2 0x2C5 JUMPI DUP1 PUSH4 0xE985E9C5 EQ PUSH2 0x2E1 JUMPI DUP1 PUSH4 0xF242432A EQ PUSH2 0x311 JUMPI DUP1 PUSH4 0xFBF58B3E EQ PUSH2 0x32D JUMPI PUSH2 0xF4 JUMP JUMPDEST DUP1 PUSH4 0x4EC71EF5 EQ PUSH2 0x223 JUMPI DUP1 PUSH4 0x67E2DDB8 EQ PUSH2 0x253 JUMPI DUP1 PUSH4 0x7DEB6025 EQ PUSH2 0x28D JUMPI DUP1 PUSH4 0x9DBCFD6F EQ PUSH2 0x2A9 JUMPI PUSH2 0xF4 JUMP JUMPDEST DUP1 PUSH4 0x2EB2C2D6 GT PUSH2 0xD3 JUMPI DUP1 PUSH4 0x2EB2C2D6 EQ PUSH2 0x189 JUMPI DUP1 PUSH4 0x4889CA90 EQ PUSH2 0x1A5 JUMPI DUP1 PUSH4 0x4BDE38C8 EQ PUSH2 0x1D5 JUMPI DUP1 PUSH4 0x4E1273F4 EQ PUSH2 0x1F3 JUMPI PUSH2 0xF4 JUMP JUMPDEST DUP1 PUSH3 0xFDD58E EQ PUSH2 0xF9 JUMPI DUP1 PUSH4 0x1FFC9A7 EQ PUSH2 0x129 JUMPI DUP1 PUSH4 0xE89341C EQ PUSH2 0x159 JUMPI JUMPDEST PUSH1 0x0 DUP1 REVERT JUMPDEST PUSH2 0x113 PUSH1 0x4 DUP1 CALLDATASIZE SUB DUP2 ADD SWAP1 PUSH2 0x10E SWAP2 SWAP1 PUSH2 0x257F JUMP JUMPDEST PUSH2 0x349 JUMP JUMPDEST PUSH1 0x40 MLOAD PUSH2 0x120 SWAP2 SWAP1 PUSH2 0x2F0D JUMP JUMPDEST PUSH1 0x40 MLOAD DUP1 SWAP2 SUB SWAP1 RETURN JUMPDEST PUSH2 0x143 PUSH1 0x4 DUP1 CALLDATASIZE SUB DUP2 ADD SWAP1 PUSH2 0x13E SWAP2 SWAP1 PUSH2 0x2637 JUMP JUMPDEST PUSH2 0x412 JUMP JUMPDEST PUSH1 0x40 MLOAD PUSH2 0x150 SWAP2 SWAP1 PUSH2 0x2D70 JUMP JUMPDEST PUSH1 0x40 MLOAD DUP1 SWAP2 SUB SWAP1 RETURN JUMPDEST PUSH2 0x173 PUSH1 0x4 DUP1 CALLDATASIZE SUB DUP2 ADD SWAP1 PUSH2 0x16E SWAP2 SWAP1 PUSH2 0x28E0 JUMP JUMPDEST PUSH2 0x4F4 JUMP JUMPDEST PUSH1 0x40 MLOAD PUSH2 0x180 SWAP2 SWAP1 PUSH2 0x2D8B JUMP JUMPDEST PUSH1 0x40 MLOAD DUP1 SWAP2 SUB SWAP1 RETURN JUMPDEST PUSH2 0x1A3 PUSH1 0x4 DUP1 CALLDATASIZE SUB DUP2 ADD SWAP1 PUSH2 0x19E SWAP2 SWAP1 PUSH2 0x23D9 JUMP JUMPDEST PUSH2 0x588 JUMP JUMPDEST STOP JUMPDEST PUSH2 0x1BF PUSH1 0x4 DUP1 CALLDATASIZE SUB DUP2 ADD SWAP1 PUSH2 0x1BA SWAP2 SWAP1 PUSH2 0x2691 JUMP JUMPDEST PUSH2 0x629 JUMP JUMPDEST PUSH1 0x40 MLOAD PUSH2 0x1CC SWAP2 SWAP1 PUSH2 0x2F0D JUMP JUMPDEST PUSH1 0x40 MLOAD DUP1 SWAP2 SUB SWAP1 RETURN JUMPDEST PUSH2 0x1DD PUSH2 0x657 JUMP JUMPDEST PUSH1 0x40 MLOAD PUSH2 0x1EA SWAP2 SWAP1 PUSH2 0x2C3A JUMP JUMPDEST PUSH1 0x40 MLOAD DUP1 SWAP2 SUB SWAP1 RETURN JUMPDEST PUSH2 0x20D PUSH1 0x4 DUP1 CALLDATASIZE SUB DUP2 ADD SWAP1 PUSH2 0x208 SWAP2 SWAP1 PUSH2 0x25BF JUMP JUMPDEST PUSH2 0x67D JUMP JUMPDEST PUSH1 0x40 MLOAD PUSH2 0x21A SWAP2 SWAP1 PUSH2 0x2D17 JUMP JUMPDEST PUSH1 0x40 MLOAD DUP1 SWAP2 SUB SWAP1 RETURN JUMPDEST PUSH2 0x23D PUSH1 0x4 DUP1 CALLDATASIZE SUB DUP2 ADD SWAP1 PUSH2 0x238 SWAP2 SWAP1 PUSH2 0x2736 JUMP JUMPDEST PUSH2 0x796 JUMP JUMPDEST PUSH1 0x40 MLOAD PUSH2 0x24A SWAP2 SWAP1 PUSH2 0x2F0D JUMP JUMPDEST PUSH1 0x40 MLOAD DUP1 SWAP2 SUB SWAP1 RETURN JUMPDEST PUSH2 0x26D PUSH1 0x4 DUP1 CALLDATASIZE SUB DUP2 ADD SWAP1 PUSH2 0x268 SWAP2 SWAP1 PUSH2 0x28E0 JUMP JUMPDEST PUSH2 0xA0E JUMP JUMPDEST PUSH1 0x40 MLOAD PUSH2 0x284 SWAP12 SWAP11 SWAP10 SWAP9 SWAP8 SWAP7 SWAP6 SWAP5 SWAP4 SWAP3 SWAP2 SWAP1 PUSH2 0x2F28 JUMP JUMPDEST PUSH1 0x40 MLOAD DUP1 SWAP2 SUB SWAP1 RETURN JUMPDEST PUSH2 0x2A7 PUSH1 0x4 DUP1 CALLDATASIZE SUB DUP2 ADD SWAP1 PUSH2 0x2A2 SWAP2 SWAP1 PUSH2 0x290D JUMP JUMPDEST PUSH2 0xEE5 JUMP JUMPDEST STOP JUMPDEST PUSH2 0x2C3 PUSH1 0x4 DUP1 CALLDATASIZE SUB DUP2 ADD SWAP1 PUSH2 0x2BE SWAP2 SWAP1 PUSH2 0x28E0 JUMP JUMPDEST PUSH2 0xFF3 JUMP JUMPDEST STOP JUMPDEST PUSH2 0x2DF PUSH1 0x4 DUP1 CALLDATASIZE SUB DUP2 ADD SWAP1 PUSH2 0x2DA SWAP2 SWAP1 PUSH2 0x253F JUMP JUMPDEST PUSH2 0x10B4 JUMP JUMPDEST STOP JUMPDEST PUSH2 0x2FB PUSH1 0x4 DUP1 CALLDATASIZE SUB DUP2 ADD SWAP1 PUSH2 0x2F6 SWAP2 SWAP1 PUSH2 0x2399 JUMP JUMPDEST PUSH2 0x10CA JUMP JUMPDEST PUSH1 0x40 MLOAD PUSH2 0x308 SWAP2 SWAP1 PUSH2 0x2D70 JUMP JUMPDEST PUSH1 0x40 MLOAD DUP1 SWAP2 SUB SWAP1 RETURN JUMPDEST PUSH2 0x32B PUSH1 0x4 DUP1 CALLDATASIZE SUB DUP2 ADD SWAP1 PUSH2 0x326 SWAP2 SWAP1 PUSH2 0x24A8 JUMP JUMPDEST PUSH2 0x115E JUMP JUMPDEST STOP JUMPDEST PUSH2 0x347 PUSH1 0x4 DUP1 CALLDATASIZE SUB DUP2 ADD SWAP1 PUSH2 0x342 SWAP2 SWAP1 PUSH2 0x26DA JUMP JUMPDEST PUSH2 0x11FF JUMP JUMPDEST STOP JUMPDEST PUSH1 0x0 DUP1 PUSH20 0xFFFFFFFFFFFFFFFFFFFFFFFFFFFFFFFFFFFFFFFF AND DUP4 PUSH20 0xFFFFFFFFFFFFFFFFFFFFFFFFFFFFFFFFFFFFFFFF AND EQ ISZERO PUSH2 0x3BA JUMPI PUSH1 0x40 MLOAD PUSH32 0x8C379A000000000000000000000000000000000000000000000000000000000 DUP2 MSTORE PUSH1 0x4 ADD PUSH2 0x3B1 SWAP1 PUSH2 0x2DED JUMP JUMPDEST PUSH1 0x40 MLOAD DUP1 SWAP2 SUB SWAP1 REVERT JUMPDEST PUSH1 0x0 DUP1 DUP4 DUP2 MSTORE PUSH1 0x20 ADD SWAP1 DUP2 MSTORE PUSH1 0x20 ADD PUSH1 0x0 KECCAK256 PUSH1 0x0 DUP5 PUSH20 0xFFFFFFFFFFFFFFFFFFFFFFFFFFFFFFFFFFFFFFFF AND PUSH20 0xFFFFFFFFFFFFFFFFFFFFFFFFFFFFFFFFFFFFFFFF AND DUP2 MSTORE PUSH1 0x20 ADD SWAP1 DUP2 MSTORE PUSH1 0x20 ADD PUSH1 0x0 KECCAK256 SLOAD SWAP1 POP SWAP3 SWAP2 POP POP JUMP JUMPDEST PUSH1 0x0 PUSH32 0xD9B67A2600000000000000000000000000000000000000000000000000000000 PUSH28 0xFFFFFFFFFFFFFFFFFFFFFFFFFFFFFFFFFFFFFFFFFFFFFFFFFFFFFFFF NOT AND DUP3 PUSH28 0xFFFFFFFFFFFFFFFFFFFFFFFFFFFFFFFFFFFFFFFFFFFFFFFFFFFFFFFF NOT AND EQ DUP1 PUSH2 0x4DD JUMPI POP PUSH32 0xE89341C00000000000000000000000000000000000000000000000000000000 PUSH28 0xFFFFFFFFFFFFFFFFFFFFFFFFFFFFFFFFFFFFFFFFFFFFFFFFFFFFFFFF NOT AND DUP3 PUSH28 0xFFFFFFFFFFFFFFFFFFFFFFFFFFFFFFFFFFFFFFFFFFFFFFFFFFFFFFFF NOT AND EQ JUMPDEST DUP1 PUSH2 0x4ED JUMPI POP PUSH2 0x4EC DUP3 PUSH2 0x12F3 JUMP JUMPDEST JUMPDEST SWAP1 POP SWAP2 SWAP1 POP JUMP JUMPDEST PUSH1 0x60 PUSH1 0x2 DUP1 SLOAD PUSH2 0x503 SWAP1 PUSH2 0x329B JUMP JUMPDEST DUP1 PUSH1 0x1F ADD PUSH1 0x20 DUP1 SWAP2 DIV MUL PUSH1 0x20 ADD PUSH1 0x40 MLOAD SWAP1 DUP2 ADD PUSH1 0x40 MSTORE DUP1 SWAP3 SWAP2 SWAP1 DUP2 DUP2 MSTORE PUSH1 0x20 ADD DUP3 DUP1 SLOAD PUSH2 0x52F SWAP1 PUSH2 0x329B JUMP JUMPDEST DUP1 ISZERO PUSH2 0x57C JUMPI DUP1 PUSH1 0x1F LT PUSH2 0x551 JUMPI PUSH2 0x100 DUP1 DUP4 SLOAD DIV MUL DUP4 MSTORE SWAP2 PUSH1 0x20 ADD SWAP2 PUSH2 0x57C JUMP JUMPDEST DUP3 ADD SWAP2 SWAP1 PUSH1 0x0 MSTORE PUSH1 0x20 PUSH1 0x0 KECCAK256 SWAP1 JUMPDEST DUP2 SLOAD DUP2 MSTORE SWAP1 PUSH1 0x1 ADD SWAP1 PUSH1 0x20 ADD DUP1 DUP4 GT PUSH2 0x55F JUMPI DUP3 SWAP1 SUB PUSH1 0x1F AND DUP3 ADD SWAP2 JUMPDEST POP POP POP POP POP SWAP1 POP SWAP2 SWAP1 POP JUMP JUMPDEST PUSH2 0x590 PUSH2 0x135D JUMP JUMPDEST PUSH20 0xFFFFFFFFFFFFFFFFFFFFFFFFFFFFFFFFFFFFFFFF AND DUP6 PUSH20 0xFFFFFFFFFFFFFFFFFFFFFFFFFFFFFFFFFFFFFFFF AND EQ DUP1 PUSH2 0x5D6 JUMPI POP PUSH2 0x5D5 DUP6 PUSH2 0x5D0 PUSH2 0x135D JUMP JUMPDEST PUSH2 0x10CA JUMP JUMPDEST JUMPDEST PUSH2 0x615 JUMPI PUSH1 0x40 MLOAD PUSH32 0x8C379A000000000000000000000000000000000000000000000000000000000 DUP2 MSTORE PUSH1 0x4 ADD PUSH2 0x60C SWAP1 PUSH2 0x2E4D JUMP JUMPDEST PUSH1 0x40 MLOAD DUP1 SWAP2 SUB SWAP1 REVERT JUMPDEST PUSH2 0x622 DUP6 DUP6 DUP6 DUP6 DUP6 PUSH2 0x1365 JUMP JUMPDEST POP POP POP POP POP JUMP JUMPDEST PUSH1 0x5 DUP2 DUP1 MLOAD PUSH1 0x20 DUP2 ADD DUP3 ADD DUP1 MLOAD DUP5 DUP3 MSTORE PUSH1 0x20 DUP4 ADD PUSH1 0x20 DUP6 ADD KECCAK256 DUP2 DUP4 MSTORE DUP1 SWAP6 POP POP POP POP POP POP PUSH1 0x0 SWAP2 POP SWAP1 POP SLOAD DUP2 JUMP JUMPDEST PUSH1 0x3 PUSH1 0x0 SWAP1 SLOAD SWAP1 PUSH2 0x100 EXP SWAP1 DIV PUSH20 0xFFFFFFFFFFFFFFFFFFFFFFFFFFFFFFFFFFFFFFFF AND DUP2 JUMP JUMPDEST PUSH1 0x60 DUP2 MLOAD DUP4 MLOAD EQ PUSH2 0x6C3 JUMPI PUSH1 0x40 MLOAD PUSH32 0x8C379A000000000000000000000000000000000000000000000000000000000 DUP2 MSTORE PUSH1 0x4 ADD PUSH2 0x6BA SWAP1 PUSH2 0x2EAD JUMP JUMPDEST PUSH1 0x40 MLOAD DUP1 SWAP2 SUB SWAP1 REVERT JUMPDEST PUSH1 0x0 DUP4 MLOAD PUSH8 0xFFFFFFFFFFFFFFFF DUP2 GT ISZERO PUSH2 0x6E0 JUMPI PUSH2 0x6DF PUSH2 0x33D4 JUMP JUMPDEST JUMPDEST PUSH1 0x40 MLOAD SWAP1 DUP1 DUP3 MSTORE DUP1 PUSH1 0x20 MUL PUSH1 0x20 ADD DUP3 ADD PUSH1 0x40 MSTORE DUP1 ISZERO PUSH2 0x70E JUMPI DUP2 PUSH1 0x20 ADD PUSH1 0x20 DUP3 MUL DUP1 CALLDATASIZE DUP4 CALLDATACOPY DUP1 DUP3 ADD SWAP2 POP POP SWAP1 POP JUMPDEST POP SWAP1 POP PUSH1 0x0 JUMPDEST DUP5 MLOAD DUP2 LT ISZERO PUSH2 0x78B JUMPI PUSH2 0x75B DUP6 DUP3 DUP2 MLOAD DUP2 LT PUSH2 0x733 JUMPI PUSH2 0x732 PUSH2 0x33A5 JUMP JUMPDEST JUMPDEST PUSH1 0x20 MUL PUSH1 0x20 ADD ADD MLOAD DUP6 DUP4 DUP2 MLOAD DUP2 LT PUSH2 0x74E JUMPI PUSH2 0x74D PUSH2 0x33A5 JUMP JUMPDEST JUMPDEST PUSH1 0x20 MUL PUSH1 0x20 ADD ADD MLOAD PUSH2 0x349 JUMP JUMPDEST DUP3 DUP3 DUP2 MLOAD DUP2 LT PUSH2 0x76E JUMPI PUSH2 0x76D PUSH2 0x33A5 JUMP JUMPDEST JUMPDEST PUSH1 0x20 MUL PUSH1 0x20 ADD ADD DUP2 DUP2 MSTORE POP POP DUP1 PUSH2 0x784 SWAP1 PUSH2 0x32FE JUMP JUMPDEST SWAP1 POP PUSH2 0x714 JUMP JUMPDEST POP DUP1 SWAP2 POP POP SWAP3 SWAP2 POP POP JUMP JUMPDEST PUSH1 0x0 DUP1 PUSH1 0x4 DUP1 SLOAD SWAP1 POP SWAP1 POP PUSH2 0x7CE PUSH1 0x3 PUSH1 0x0 SWAP1 SLOAD SWAP1 PUSH2 0x100 EXP SWAP1 DIV PUSH20 0xFFFFFFFFFFFFFFFFFFFFFFFFFFFFFFFFFFFFFFFF AND PUSH1 0x1 PUSH2 0x10B4 JUMP JUMPDEST PUSH1 0x0 PUSH1 0x4 PUSH1 0x40 MLOAD DUP1 PUSH2 0x160 ADD PUSH1 0x40 MSTORE DUP1 DUP5 DUP2 MSTORE PUSH1 0x20 ADD DUP15 DUP2 MSTORE PUSH1 0x20 ADD DUP14 DUP2 MSTORE PUSH1 0x20 ADD DUP13 DUP2 MSTORE PUSH1 0x20 ADD DUP12 DUP2 MSTORE PUSH1 0x20 ADD DUP11 DUP2 MSTORE PUSH1 0x20 ADD DUP10 DUP2 MSTORE PUSH1 0x20 ADD DUP9 DUP2 MSTORE PUSH1 0x20 ADD DUP8 PUSH20 0xFFFFFFFFFFFFFFFFFFFFFFFFFFFFFFFFFFFFFFFF AND DUP2 MSTORE PUSH1 0x20 ADD DUP4 ISZERO ISZERO DUP2 MSTORE PUSH1 0x20 ADD DUP7 DUP2 MSTORE POP SWAP1 DUP1 PUSH1 0x1 DUP2 SLOAD ADD DUP1 DUP3 SSTORE DUP1 SWAP2 POP POP PUSH1 0x1 SWAP1 SUB SWAP1 PUSH1 0x0 MSTORE PUSH1 0x20 PUSH1 0x0 KECCAK256 SWAP1 PUSH1 0xA MUL ADD PUSH1 0x0 SWAP1 SWAP2 SWAP1 SWAP2 SWAP1 SWAP2 POP PUSH1 0x0 DUP3 ADD MLOAD DUP2 PUSH1 0x0 ADD SSTORE PUSH1 0x20 DUP3 ADD MLOAD DUP2 PUSH1 0x1 ADD SWAP1 DUP1 MLOAD SWAP1 PUSH1 0x20 ADD SWAP1 PUSH2 0x885 SWAP3 SWAP2 SWAP1 PUSH2 0x2071 JUMP JUMPDEST POP PUSH1 0x40 DUP3 ADD MLOAD DUP2 PUSH1 0x2 ADD SWAP1 DUP1 MLOAD SWAP1 PUSH1 0x20 ADD SWAP1 PUSH2 0x8A2 SWAP3 SWAP2 SWAP1 PUSH2 0x2071 JUMP JUMPDEST POP PUSH1 0x60 DUP3 ADD MLOAD DUP2 PUSH1 0x3 ADD SWAP1 DUP1 MLOAD SWAP1 PUSH1 0x20 ADD SWAP1 PUSH2 0x8BF SWAP3 SWAP2 SWAP1 PUSH2 0x2071 JUMP JUMPDEST POP PUSH1 0x80 DUP3 ADD MLOAD DUP2 PUSH1 0x4 ADD SWAP1 DUP1 MLOAD SWAP1 PUSH1 0x20 ADD SWAP1 PUSH2 0x8DC SWAP3 SWAP2 SWAP1 PUSH2 0x2071 JUMP JUMPDEST POP PUSH1 0xA0 DUP3 ADD MLOAD DUP2 PUSH1 0x5 ADD SWAP1 DUP1 MLOAD SWAP1 PUSH1 0x20 ADD SWAP1 PUSH2 0x8F9 SWAP3 SWAP2 SWAP1 PUSH2 0x2071 JUMP JUMPDEST POP PUSH1 0xC0 DUP3 ADD MLOAD DUP2 PUSH1 0x6 ADD SWAP1 DUP1 MLOAD SWAP1 PUSH1 0x20 ADD SWAP1 PUSH2 0x916 SWAP3 SWAP2 SWAP1 PUSH2 0x2071 JUMP JUMPDEST POP PUSH1 0xE0 DUP3 ADD MLOAD DUP2 PUSH1 0x7 ADD SWAP1 DUP1 MLOAD SWAP1 PUSH1 0x20 ADD SWAP1 PUSH2 0x933 SWAP3 SWAP2 SWAP1 PUSH2 0x2071 JUMP JUMPDEST POP PUSH2 0x100 DUP3 ADD MLOAD DUP2 PUSH1 0x8 ADD PUSH1 0x0 PUSH2 0x100 EXP DUP2 SLOAD DUP2 PUSH20 0xFFFFFFFFFFFFFFFFFFFFFFFFFFFFFFFFFFFFFFFF MUL NOT AND SWAP1 DUP4 PUSH20 0xFFFFFFFFFFFFFFFFFFFFFFFFFFFFFFFFFFFFFFFF AND MUL OR SWAP1 SSTORE POP PUSH2 0x120 DUP3 ADD MLOAD DUP2 PUSH1 0x8 ADD PUSH1 0x14 PUSH2 0x100 EXP DUP2 SLOAD DUP2 PUSH1 0xFF MUL NOT AND SWAP1 DUP4 ISZERO ISZERO MUL OR SWAP1 SSTORE POP PUSH2 0x140 DUP3 ADD MLOAD DUP2 PUSH1 0x9 ADD SWAP1 DUP1 MLOAD SWAP1 PUSH1 0x20 ADD SWAP1 PUSH2 0x9BA SWAP3 SWAP2 SWAP1 PUSH2 0x2071 JUMP JUMPDEST POP POP POP PUSH2 0x9D9 DUP6 DUP4 PUSH1 0x1 PUSH1 0x40 MLOAD DUP1 PUSH1 0x20 ADD PUSH1 0x40 MSTORE DUP1 PUSH1 0x0 DUP2 MSTORE POP PUSH2 0x1679 JUMP JUMPDEST DUP2 PUSH1 0x5 DUP14 PUSH1 0x40 MLOAD PUSH2 0x9EA SWAP2 SWAP1 PUSH2 0x2C23 JUMP JUMPDEST SWAP1 DUP2 MSTORE PUSH1 0x20 ADD PUSH1 0x40 MLOAD DUP1 SWAP2 SUB SWAP1 KECCAK256 DUP2 SWAP1 SSTORE POP DUP2 SWAP3 POP POP POP SWAP10 SWAP9 POP POP POP POP POP POP POP POP POP JUMP JUMPDEST PUSH1 0x4 DUP2 DUP2 SLOAD DUP2 LT PUSH2 0xA1E JUMPI PUSH1 0x0 DUP1 REVERT JUMPDEST SWAP1 PUSH1 0x0 MSTORE PUSH1 0x20 PUSH1 0x0 KECCAK256 SWAP1 PUSH1 0xA MUL ADD PUSH1 0x0 SWAP2 POP SWAP1 POP DUP1 PUSH1 0x0 ADD SLOAD SWAP1 DUP1 PUSH1 0x1 ADD DUP1 SLOAD PUSH2 0xA47 SWAP1 PUSH2 0x329B JUMP JUMPDEST DUP1 PUSH1 0x1F ADD PUSH1 0x20 DUP1 SWAP2 DIV MUL PUSH1 0x20 ADD PUSH1 0x40 MLOAD SWAP1 DUP2 ADD PUSH1 0x40 MSTORE DUP1 SWAP3 SWAP2 SWAP1 DUP2 DUP2 MSTORE PUSH1 0x20 ADD DUP3 DUP1 SLOAD PUSH2 0xA73 SWAP1 PUSH2 0x329B JUMP JUMPDEST DUP1 ISZERO PUSH2 0xAC0 JUMPI DUP1 PUSH1 0x1F LT PUSH2 0xA95 JUMPI PUSH2 0x100 DUP1 DUP4 SLOAD DIV MUL DUP4 MSTORE SWAP2 PUSH1 0x20 ADD SWAP2 PUSH2 0xAC0 JUMP JUMPDEST DUP3 ADD SWAP2 SWAP1 PUSH1 0x0 MSTORE PUSH1 0x20 PUSH1 0x0 KECCAK256 SWAP1 JUMPDEST DUP2 SLOAD DUP2 MSTORE SWAP1 PUSH1 0x1 ADD SWAP1 PUSH1 0x20 ADD DUP1 DUP4 GT PUSH2 0xAA3 JUMPI DUP3 SWAP1 SUB PUSH1 0x1F AND DUP3 ADD SWAP2 JUMPDEST POP POP POP POP POP SWAP1 DUP1 PUSH1 0x2 ADD DUP1 SLOAD PUSH2 0xAD5 SWAP1 PUSH2 0x329B JUMP JUMPDEST DUP1 PUSH1 0x1F ADD PUSH1 0x20 DUP1 SWAP2 DIV MUL PUSH1 0x20 ADD PUSH1 0x40 MLOAD SWAP1 DUP2 ADD PUSH1 0x40 MSTORE DUP1 SWAP3 SWAP2 SWAP1 DUP2 DUP2 MSTORE PUSH1 0x20 ADD DUP3 DUP1 SLOAD PUSH2 0xB01 SWAP1 PUSH2 0x329B JUMP JUMPDEST DUP1 ISZERO PUSH2 0xB4E JUMPI DUP1 PUSH1 0x1F LT PUSH2 0xB23 JUMPI PUSH2 0x100 DUP1 DUP4 SLOAD DIV MUL DUP4 MSTORE SWAP2 PUSH1 0x20 ADD SWAP2 PUSH2 0xB4E JUMP JUMPDEST DUP3 ADD SWAP2 SWAP1 PUSH1 0x0 MSTORE PUSH1 0x20 PUSH1 0x0 KECCAK256 SWAP1 JUMPDEST DUP2 SLOAD DUP2 MSTORE SWAP1 PUSH1 0x1 ADD SWAP1 PUSH1 0x20 ADD DUP1 DUP4 GT PUSH2 0xB31 JUMPI DUP3 SWAP1 SUB PUSH1 0x1F AND DUP3 ADD SWAP2 JUMPDEST POP POP POP POP POP SWAP1 DUP1 PUSH1 0x3 ADD DUP1 SLOAD PUSH2 0xB63 SWAP1 PUSH2 0x329B JUMP JUMPDEST DUP1 PUSH1 0x1F ADD PUSH1 0x20 DUP1 SWAP2 DIV MUL PUSH1 0x20 ADD PUSH1 0x40 MLOAD SWAP1 DUP2 ADD PUSH1 0x40 MSTORE DUP1 SWAP3 SWAP2 SWAP1 DUP2 DUP2 MSTORE PUSH1 0x20 ADD DUP3 DUP1 SLOAD PUSH2 0xB8F SWAP1 PUSH2 0x329B JUMP JUMPDEST DUP1 ISZERO PUSH2 0xBDC JUMPI DUP1 PUSH1 0x1F LT PUSH2 0xBB1 JUMPI PUSH2 0x100 DUP1 DUP4 SLOAD DIV MUL DUP4 MSTORE SWAP2 PUSH1 0x20 ADD SWAP2 PUSH2 0xBDC JUMP JUMPDEST DUP3 ADD SWAP2 SWAP1 PUSH1 0x0 MSTORE PUSH1 0x20 PUSH1 0x0 KECCAK256 SWAP1 JUMPDEST DUP2 SLOAD DUP2 MSTORE SWAP1 PUSH1 0x1 ADD SWAP1 PUSH1 0x20 ADD DUP1 DUP4 GT PUSH2 0xBBF JUMPI DUP3 SWAP1 SUB PUSH1 0x1F AND DUP3 ADD SWAP2 JUMPDEST POP POP POP POP POP SWAP1 DUP1 PUSH1 0x4 ADD DUP1 SLOAD PUSH2 0xBF1 SWAP1 PUSH2 0x329B JUMP JUMPDEST DUP1 PUSH1 0x1F ADD PUSH1 0x20 DUP1 SWAP2 DIV MUL PUSH1 0x20 ADD PUSH1 0x40 MLOAD SWAP1 DUP2 ADD PUSH1 0x40 MSTORE DUP1 SWAP3 SWAP2 SWAP1 DUP2 DUP2 MSTORE PUSH1 0x20 ADD DUP3 DUP1 SLOAD PUSH2 0xC1D SWAP1 PUSH2 0x329B JUMP JUMPDEST DUP1 ISZERO PUSH2 0xC6A JUMPI DUP1 PUSH1 0x1F LT PUSH2 0xC3F JUMPI PUSH2 0x100 DUP1 DUP4 SLOAD DIV MUL DUP4 MSTORE SWAP2 PUSH1 0x20 ADD SWAP2 PUSH2 0xC6A JUMP JUMPDEST DUP3 ADD SWAP2 SWAP1 PUSH1 0x0 MSTORE PUSH1 0x20 PUSH1 0x0 KECCAK256 SWAP1 JUMPDEST DUP2 SLOAD DUP2 MSTORE SWAP1 PUSH1 0x1 ADD SWAP1 PUSH1 0x20 ADD DUP1 DUP4 GT PUSH2 0xC4D JUMPI DUP3 SWAP1 SUB PUSH1 0x1F AND DUP3 ADD SWAP2 JUMPDEST POP POP POP POP POP SWAP1 DUP1 PUSH1 0x5 ADD DUP1 SLOAD PUSH2 0xC7F SWAP1 PUSH2 0x329B JUMP JUMPDEST DUP1 PUSH1 0x1F ADD PUSH1 0x20 DUP1 SWAP2 DIV MUL PUSH1 0x20 ADD PUSH1 0x40 MLOAD SWAP1 DUP2 ADD PUSH1 0x40 MSTORE DUP1 SWAP3 SWAP2 SWAP1 DUP2 DUP2 MSTORE PUSH1 0x20 ADD DUP3 DUP1 SLOAD PUSH2 0xCAB SWAP1 PUSH2 0x329B JUMP JUMPDEST DUP1 ISZERO PUSH2 0xCF8 JUMPI DUP1 PUSH1 0x1F LT PUSH2 0xCCD JUMPI PUSH2 0x100 DUP1 DUP4 SLOAD DIV MUL DUP4 MSTORE SWAP2 PUSH1 0x20 ADD SWAP2 PUSH2 0xCF8 JUMP JUMPDEST DUP3 ADD SWAP2 SWAP1 PUSH1 0x0 MSTORE PUSH1 0x20 PUSH1 0x0 KECCAK256 SWAP1 JUMPDEST DUP2 SLOAD DUP2 MSTORE SWAP1 PUSH1 0x1 ADD SWAP1 PUSH1 0x20 ADD DUP1 DUP4 GT PUSH2 0xCDB JUMPI DUP3 SWAP1 SUB PUSH1 0x1F AND DUP3 ADD SWAP2 JUMPDEST POP POP POP POP POP SWAP1 DUP1 PUSH1 0x6 ADD DUP1 SLOAD PUSH2 0xD0D SWAP1 PUSH2 0x329B JUMP JUMPDEST DUP1 PUSH1 0x1F ADD PUSH1 0x20 DUP1 SWAP2 DIV MUL PUSH1 0x20 ADD PUSH1 0x40 MLOAD SWAP1 DUP2 ADD PUSH1 0x40 MSTORE DUP1 SWAP3 SWAP2 SWAP1 DUP2 DUP2 MSTORE PUSH1 0x20 ADD DUP3 DUP1 SLOAD PUSH2 0xD39 SWAP1 PUSH2 0x329B JUMP JUMPDEST DUP1 ISZERO PUSH2 0xD86 JUMPI DUP1 PUSH1 0x1F LT PUSH2 0xD5B JUMPI PUSH2 0x100 DUP1 DUP4 SLOAD DIV MUL DUP4 MSTORE SWAP2 PUSH1 0x20 ADD SWAP2 PUSH2 0xD86 JUMP JUMPDEST DUP3 ADD SWAP2 SWAP1 PUSH1 0x0 MSTORE PUSH1 0x20 PUSH1 0x0 KECCAK256 SWAP1 JUMPDEST DUP2 SLOAD DUP2 MSTORE SWAP1 PUSH1 0x1 ADD SWAP1 PUSH1 0x20 ADD DUP1 DUP4 GT PUSH2 0xD69 JUMPI DUP3 SWAP1 SUB PUSH1 0x1F AND DUP3 ADD SWAP2 JUMPDEST POP POP POP POP POP SWAP1 DUP1 PUSH1 0x7 ADD DUP1 SLOAD PUSH2 0xD9B SWAP1 PUSH2 0x329B JUMP JUMPDEST DUP1 PUSH1 0x1F ADD PUSH1 0x20 DUP1 SWAP2 DIV MUL PUSH1 0x20 ADD PUSH1 0x40 MLOAD SWAP1 DUP2 ADD PUSH1 0x40 MSTORE DUP1 SWAP3 SWAP2 SWAP1 DUP2 DUP2 MSTORE PUSH1 0x20 ADD DUP3 DUP1 SLOAD PUSH2 0xDC7 SWAP1 PUSH2 0x329B JUMP JUMPDEST DUP1 ISZERO PUSH2 0xE14 JUMPI DUP1 PUSH1 0x1F LT PUSH2 0xDE9 JUMPI PUSH2 0x100 DUP1 DUP4 SLOAD DIV MUL DUP4 MSTORE SWAP2 PUSH1 0x20 ADD SWAP2 PUSH2 0xE14 JUMP JUMPDEST DUP3 ADD SWAP2 SWAP1 PUSH1 0x0 MSTORE PUSH1 0x20 PUSH1 0x0 KECCAK256 SWAP1 JUMPDEST DUP2 SLOAD DUP2 MSTORE SWAP1 PUSH1 0x1 ADD SWAP1 PUSH1 0x20 ADD DUP1 DUP4 GT PUSH2 0xDF7 JUMPI DUP3 SWAP1 SUB PUSH1 0x1F AND DUP3 ADD SWAP2 JUMPDEST POP POP POP POP POP SWAP1 DUP1 PUSH1 0x8 ADD PUSH1 0x0 SWAP1 SLOAD SWAP1 PUSH2 0x100 EXP SWAP1 DIV PUSH20 0xFFFFFFFFFFFFFFFFFFFFFFFFFFFFFFFFFFFFFFFF AND SWAP1 DUP1 PUSH1 0x8 ADD PUSH1 0x14 SWAP1 SLOAD SWAP1 PUSH2 0x100 EXP SWAP1 DIV PUSH1 0xFF AND SWAP1 DUP1 PUSH1 0x9 ADD DUP1 SLOAD PUSH2 0xE62 SWAP1 PUSH2 0x329B JUMP JUMPDEST DUP1 PUSH1 0x1F ADD PUSH1 0x20 DUP1 SWAP2 DIV MUL PUSH1 0x20 ADD PUSH1 0x40 MLOAD SWAP1 DUP2 ADD PUSH1 0x40 MSTORE DUP1 SWAP3 SWAP2 SWAP1 DUP2 DUP2 MSTORE PUSH1 0x20 ADD DUP3 DUP1 SLOAD PUSH2 0xE8E SWAP1 PUSH2 0x329B JUMP JUMPDEST DUP1 ISZERO PUSH2 0xEDB JUMPI DUP1 PUSH1 0x1F LT PUSH2 0xEB0 JUMPI PUSH2 0x100 DUP1 DUP4 SLOAD DIV MUL DUP4 MSTORE SWAP2 PUSH1 0x20 ADD SWAP2 PUSH2 0xEDB JUMP JUMPDEST DUP3 ADD SWAP2 SWAP1 PUSH1 0x0 MSTORE PUSH1 0x20 PUSH1 0x0 KECCAK256 SWAP1 JUMPDEST DUP2 SLOAD DUP2 MSTORE SWAP1 PUSH1 0x1 ADD SWAP1 PUSH1 0x20 ADD DUP1 DUP4 GT PUSH2 0xEBE JUMPI DUP3 SWAP1 SUB PUSH1 0x1F AND DUP3 ADD SWAP2 JUMPDEST POP POP POP POP POP SWAP1 POP DUP12 JUMP JUMPDEST PUSH1 0x0 PUSH1 0x4 DUP4 DUP2 SLOAD DUP2 LT PUSH2 0xEFB JUMPI PUSH2 0xEFA PUSH2 0x33A5 JUMP JUMPDEST JUMPDEST SWAP1 PUSH1 0x0 MSTORE PUSH1 0x20 PUSH1 0x0 KECCAK256 SWAP1 PUSH1 0xA MUL ADD PUSH1 0x8 ADD PUSH1 0x0 SWAP1 SLOAD SWAP1 PUSH2 0x100 EXP SWAP1 DIV PUSH20 0xFFFFFFFFFFFFFFFFFFFFFFFFFFFFFFFFFFFFFFFF AND SWAP1 POP PUSH2 0xF4C DUP2 CALLER DUP6 PUSH1 0x1 PUSH1 0x40 MLOAD DUP1 PUSH1 0x20 ADD PUSH1 0x40 MSTORE DUP1 PUSH1 0x0 DUP2 MSTORE POP PUSH2 0x180F JUMP JUMPDEST DUP2 PUSH1 0x4 DUP5 DUP2 SLOAD DUP2 LT PUSH2 0xF61 JUMPI PUSH2 0xF60 PUSH2 0x33A5 JUMP JUMPDEST JUMPDEST SWAP1 PUSH1 0x0 MSTORE PUSH1 0x20 PUSH1 0x0 KECCAK256 SWAP1 PUSH1 0xA MUL ADD PUSH1 0x8 ADD PUSH1 0x0 PUSH2 0x100 EXP DUP2 SLOAD DUP2 PUSH20 0xFFFFFFFFFFFFFFFFFFFFFFFFFFFFFFFFFFFFFFFF MUL NOT AND SWAP1 DUP4 PUSH20 0xFFFFFFFFFFFFFFFFFFFFFFFFFFFFFFFFFFFFFFFF AND MUL OR SWAP1 SSTORE POP PUSH1 0x0 PUSH1 0x4 DUP5 DUP2 SLOAD DUP2 LT PUSH2 0xFC6 JUMPI PUSH2 0xFC5 PUSH2 0x33A5 JUMP JUMPDEST JUMPDEST SWAP1 PUSH1 0x0 MSTORE PUSH1 0x20 PUSH1 0x0 KECCAK256 SWAP1 PUSH1 0xA MUL ADD PUSH1 0x8 ADD PUSH1 0x14 PUSH2 0x100 EXP DUP2 SLOAD DUP2 PUSH1 0xFF MUL NOT AND SWAP1 DUP4 ISZERO ISZERO MUL OR SWAP1 SSTORE POP POP POP POP JUMP JUMPDEST PUSH1 0x0 PUSH1 0x4 DUP3 DUP2 SLOAD DUP2 LT PUSH2 0x1009 JUMPI PUSH2 0x1008 PUSH2 0x33A5 JUMP JUMPDEST JUMPDEST SWAP1 PUSH1 0x0 MSTORE PUSH1 0x20 PUSH1 0x0 KECCAK256 SWAP1 PUSH1 0xA MUL ADD PUSH1 0x8 ADD PUSH1 0x0 SWAP1 SLOAD SWAP1 PUSH2 0x100 EXP SWAP1 DIV PUSH20 0xFFFFFFFFFFFFFFFFFFFFFFFFFFFFFFFFFFFFFFFF AND SWAP1 POP CALLER PUSH20 0xFFFFFFFFFFFFFFFFFFFFFFFFFFFFFFFFFFFFFFFF AND DUP2 PUSH20 0xFFFFFFFFFFFFFFFFFFFFFFFFFFFFFFFFFFFFFFFF AND EQ ISZERO PUSH2 0x10B0 JUMPI PUSH1 0x1 PUSH1 0x4 DUP4 DUP2 SLOAD DUP2 LT PUSH2 0x1087 JUMPI PUSH2 0x1086 PUSH2 0x33A5 JUMP JUMPDEST JUMPDEST SWAP1 PUSH1 0x0 MSTORE PUSH1 0x20 PUSH1 0x0 KECCAK256 SWAP1 PUSH1 0xA MUL ADD PUSH1 0x8 ADD PUSH1 0x14 PUSH2 0x100 EXP DUP2 SLOAD DUP2 PUSH1 0xFF MUL NOT AND SWAP1 DUP4 ISZERO ISZERO MUL OR SWAP1 SSTORE POP JUMPDEST POP POP JUMP JUMPDEST PUSH2 0x10C6 PUSH2 0x10BF PUSH2 0x135D JUMP JUMPDEST DUP4 DUP4 PUSH2 0x1A91 JUMP JUMPDEST POP POP JUMP JUMPDEST PUSH1 0x0 PUSH1 0x1 PUSH1 0x0 DUP5 PUSH20 0xFFFFFFFFFFFFFFFFFFFFFFFFFFFFFFFFFFFFFFFF AND PUSH20 0xFFFFFFFFFFFFFFFFFFFFFFFFFFFFFFFFFFFFFFFF AND DUP2 MSTORE PUSH1 0x20 ADD SWAP1 DUP2 MSTORE PUSH1 0x20 ADD PUSH1 0x0 KECCAK256 PUSH1 0x0 DUP4 PUSH20 0xFFFFFFFFFFFFFFFFFFFFFFFFFFFFFFFFFFFFFFFF AND PUSH20 0xFFFFFFFFFFFFFFFFFFFFFFFFFFFFFFFFFFFFFFFF AND DUP2 MSTORE PUSH1 0x20 ADD SWAP1 DUP2 MSTORE PUSH1 0x20 ADD PUSH1 0x0 KECCAK256 PUSH1 0x0 SWAP1 SLOAD SWAP1 PUSH2 0x100 EXP SWAP1 DIV PUSH1 0xFF AND SWAP1 POP SWAP3 SWAP2 POP POP JUMP JUMPDEST PUSH2 0x1166 PUSH2 0x135D JUMP JUMPDEST PUSH20 0xFFFFFFFFFFFFFFFFFFFFFFFFFFFFFFFFFFFFFFFF AND DUP6 PUSH20 0xFFFFFFFFFFFFFFFFFFFFFFFFFFFFFFFFFFFFFFFF AND EQ DUP1 PUSH2 0x11AC JUMPI POP PUSH2 0x11AB DUP6 PUSH2 0x11A6 PUSH2 0x135D JUMP JUMPDEST PUSH2 0x10CA JUMP JUMPDEST JUMPDEST PUSH2 0x11EB JUMPI PUSH1 0x40 MLOAD PUSH32 0x8C379A000000000000000000000000000000000000000000000000000000000 DUP2 MSTORE PUSH1 0x4 ADD PUSH2 0x11E2 SWAP1 PUSH2 0x2E0D JUMP JUMPDEST PUSH1 0x40 MLOAD DUP1 SWAP2 SUB SWAP1 REVERT JUMPDEST PUSH2 0x11F8 DUP6 DUP6 DUP6 DUP6 DUP6 PUSH2 0x180F JUMP JUMPDEST POP POP POP POP POP JUMP JUMPDEST PUSH1 0x0 PUSH1 0x5 DUP4 PUSH1 0x40 MLOAD PUSH2 0x1211 SWAP2 SWAP1 PUSH2 0x2C23 JUMP JUMPDEST SWAP1 DUP2 MSTORE PUSH1 0x20 ADD PUSH1 0x40 MLOAD DUP1 SWAP2 SUB SWAP1 KECCAK256 SLOAD SWAP1 POP PUSH1 0x0 PUSH1 0x4 DUP3 DUP2 SLOAD DUP2 LT PUSH2 0x1238 JUMPI PUSH2 0x1237 PUSH2 0x33A5 JUMP JUMPDEST JUMPDEST SWAP1 PUSH1 0x0 MSTORE PUSH1 0x20 PUSH1 0x0 KECCAK256 SWAP1 PUSH1 0xA MUL ADD PUSH1 0x8 ADD PUSH1 0x0 SWAP1 SLOAD SWAP1 PUSH2 0x100 EXP SWAP1 DIV PUSH20 0xFFFFFFFFFFFFFFFFFFFFFFFFFFFFFFFFFFFFFFFF AND SWAP1 POP PUSH2 0x1289 DUP2 DUP5 DUP5 PUSH1 0x1 PUSH1 0x40 MLOAD DUP1 PUSH1 0x20 ADD PUSH1 0x40 MSTORE DUP1 PUSH1 0x0 DUP2 MSTORE POP PUSH2 0x180F JUMP JUMPDEST DUP3 PUSH1 0x4 DUP4 DUP2 SLOAD DUP2 LT PUSH2 0x129E JUMPI PUSH2 0x129D PUSH2 0x33A5 JUMP JUMPDEST JUMPDEST SWAP1 PUSH1 0x0 MSTORE PUSH1 0x20 PUSH1 0x0 KECCAK256 SWAP1 PUSH1 0xA MUL ADD PUSH1 0x8 ADD PUSH1 0x0 PUSH2 0x100 EXP DUP2 SLOAD DUP2 PUSH20 0xFFFFFFFFFFFFFFFFFFFFFFFFFFFFFFFFFFFFFFFF MUL NOT AND SWAP1 DUP4 PUSH20 0xFFFFFFFFFFFFFFFFFFFFFFFFFFFFFFFFFFFFFFFF AND MUL OR SWAP1 SSTORE POP POP POP POP POP JUMP JUMPDEST PUSH1 0x0 PUSH32 0x1FFC9A700000000000000000000000000000000000000000000000000000000 PUSH28 0xFFFFFFFFFFFFFFFFFFFFFFFFFFFFFFFFFFFFFFFFFFFFFFFFFFFFFFFF NOT AND DUP3 PUSH28 0xFFFFFFFFFFFFFFFFFFFFFFFFFFFFFFFFFFFFFFFFFFFFFFFFFFFFFFFF NOT AND EQ SWAP1 POP SWAP2 SWAP1 POP JUMP JUMPDEST PUSH1 0x0 CALLER SWAP1 POP SWAP1 JUMP JUMPDEST DUP2 MLOAD DUP4 MLOAD EQ PUSH2 0x13A9 JUMPI PUSH1 0x40 MLOAD PUSH32 0x8C379A000000000000000000000000000000000000000000000000000000000 DUP2 MSTORE PUSH1 0x4 ADD PUSH2 0x13A0 SWAP1 PUSH2 0x2ECD JUMP JUMPDEST PUSH1 0x40 MLOAD DUP1 SWAP2 SUB SWAP1 REVERT JUMPDEST PUSH1 0x0 PUSH20 0xFFFFFFFFFFFFFFFFFFFFFFFFFFFFFFFFFFFFFFFF AND DUP5 PUSH20 0xFFFFFFFFFFFFFFFFFFFFFFFFFFFFFFFFFFFFFFFF AND EQ ISZERO PUSH2 0x1419 JUMPI PUSH1 0x40 MLOAD PUSH32 0x8C379A000000000000000000000000000000000000000000000000000000000 DUP2 MSTORE PUSH1 0x4 ADD PUSH2 0x1410 SWAP1 PUSH2 0x2E2D JUMP JUMPDEST PUSH1 0x40 MLOAD DUP1 SWAP2 SUB SWAP1 REVERT JUMPDEST PUSH1 0x0 PUSH2 0x1423 PUSH2 0x135D JUMP JUMPDEST SWAP1 POP PUSH2 0x1433 DUP2 DUP8 DUP8 DUP8 DUP8 DUP8 PUSH2 0x1BFE JUMP JUMPDEST PUSH1 0x0 JUMPDEST DUP5 MLOAD DUP2 LT ISZERO PUSH2 0x15E4 JUMPI PUSH1 0x0 DUP6 DUP3 DUP2 MLOAD DUP2 LT PUSH2 0x1454 JUMPI PUSH2 0x1453 PUSH2 0x33A5 JUMP JUMPDEST JUMPDEST PUSH1 0x20 MUL PUSH1 0x20 ADD ADD MLOAD SWAP1 POP PUSH1 0x0 DUP6 DUP4 DUP2 MLOAD DUP2 LT PUSH2 0x1473 JUMPI PUSH2 0x1472 PUSH2 0x33A5 JUMP JUMPDEST JUMPDEST PUSH1 0x20 MUL PUSH1 0x20 ADD ADD MLOAD SWAP1 POP PUSH1 0x0 DUP1 PUSH1 0x0 DUP5 DUP2 MSTORE PUSH1 0x20 ADD SWAP1 DUP2 MSTORE PUSH1 0x20 ADD PUSH1 0x0 KECCAK256 PUSH1 0x0 DUP12 PUSH20 0xFFFFFFFFFFFFFFFFFFFFFFFFFFFFFFFFFFFFFFFF AND PUSH20 0xFFFFFFFFFFFFFFFFFFFFFFFFFFFFFFFFFFFFFFFF AND DUP2 MSTORE PUSH1 0x20 ADD SWAP1 DUP2 MSTORE PUSH1 0x20 ADD PUSH1 0x0 KECCAK256 SLOAD SWAP1 POP DUP2 DUP2 LT ISZERO PUSH2 0x1514 JUMPI PUSH1 0x40 MLOAD PUSH32 0x8C379A000000000000000000000000000000000000000000000000000000000 DUP2 MSTORE PUSH1 0x4 ADD PUSH2 0x150B SWAP1 PUSH2 0x2E6D JUMP JUMPDEST PUSH1 0x40 MLOAD DUP1 SWAP2 SUB SWAP1 REVERT JUMPDEST DUP2 DUP2 SUB PUSH1 0x0 DUP1 DUP6 DUP2 MSTORE PUSH1 0x20 ADD SWAP1 DUP2 MSTORE PUSH1 0x20 ADD PUSH1 0x0 KECCAK256 PUSH1 0x0 DUP13 PUSH20 0xFFFFFFFFFFFFFFFFFFFFFFFFFFFFFFFFFFFFFFFF AND PUSH20 0xFFFFFFFFFFFFFFFFFFFFFFFFFFFFFFFFFFFFFFFF AND DUP2 MSTORE PUSH1 0x20 ADD SWAP1 DUP2 MSTORE PUSH1 0x20 ADD PUSH1 0x0 KECCAK256 DUP2 SWAP1 SSTORE POP DUP2 PUSH1 0x0 DUP1 DUP6 DUP2 MSTORE PUSH1 0x20 ADD SWAP1 DUP2 MSTORE PUSH1 0x20 ADD PUSH1 0x0 KECCAK256 PUSH1 0x0 DUP12 PUSH20 0xFFFFFFFFFFFFFFFFFFFFFFFFFFFFFFFFFFFFFFFF AND PUSH20 0xFFFFFFFFFFFFFFFFFFFFFFFFFFFFFFFFFFFFFFFF AND DUP2 MSTORE PUSH1 0x20 ADD SWAP1 DUP2 MSTORE PUSH1 0x20 ADD PUSH1 0x0 KECCAK256 PUSH1 0x0 DUP3 DUP3 SLOAD PUSH2 0x15C9 SWAP2 SWAP1 PUSH2 0x318F JUMP JUMPDEST SWAP3 POP POP DUP2 SWAP1 SSTORE POP POP POP POP DUP1 PUSH2 0x15DD SWAP1 PUSH2 0x32FE JUMP JUMPDEST SWAP1 POP PUSH2 0x1436 JUMP JUMPDEST POP DUP5 PUSH20 0xFFFFFFFFFFFFFFFFFFFFFFFFFFFFFFFFFFFFFFFF AND DUP7 PUSH20 0xFFFFFFFFFFFFFFFFFFFFFFFFFFFFFFFFFFFFFFFF AND DUP3 PUSH20 0xFFFFFFFFFFFFFFFFFFFFFFFFFFFFFFFFFFFFFFFF AND PUSH32 0x4A39DC06D4C0DBC64B70AF90FD698A233A518AA5D07E595D983B8C0526C8F7FB DUP8 DUP8 PUSH1 0x40 MLOAD PUSH2 0x165B SWAP3 SWAP2 SWAP1 PUSH2 0x2D39 JUMP JUMPDEST PUSH1 0x40 MLOAD DUP1 SWAP2 SUB SWAP1 LOG4 PUSH2 0x1671 DUP2 DUP8 DUP8 DUP8 DUP8 DUP8 PUSH2 0x1C06 JUMP JUMPDEST POP POP POP POP POP POP JUMP JUMPDEST PUSH1 0x0 PUSH20 0xFFFFFFFFFFFFFFFFFFFFFFFFFFFFFFFFFFFFFFFF AND DUP5 PUSH20 0xFFFFFFFFFFFFFFFFFFFFFFFFFFFFFFFFFFFFFFFF AND EQ ISZERO PUSH2 0x16E9 JUMPI PUSH1 0x40 MLOAD PUSH32 0x8C379A000000000000000000000000000000000000000000000000000000000 DUP2 MSTORE PUSH1 0x4 ADD PUSH2 0x16E0 SWAP1 PUSH2 0x2EED JUMP JUMPDEST PUSH1 0x40 MLOAD DUP1 SWAP2 SUB SWAP1 REVERT JUMPDEST PUSH1 0x0 PUSH2 0x16F3 PUSH2 0x135D JUMP JUMPDEST SWAP1 POP PUSH2 0x1714 DUP2 PUSH1 0x0 DUP8 PUSH2 0x1705 DUP9 PUSH2 0x1DED JUMP JUMPDEST PUSH2 0x170E DUP9 PUSH2 0x1DED JUMP JUMPDEST DUP8 PUSH2 0x1BFE JUMP JUMPDEST DUP3 PUSH1 0x0 DUP1 DUP7 DUP2 MSTORE PUSH1 0x20 ADD SWAP1 DUP2 MSTORE PUSH1 0x20 ADD PUSH1 0x0 KECCAK256 PUSH1 0x0 DUP8 PUSH20 0xFFFFFFFFFFFFFFFFFFFFFFFFFFFFFFFFFFFFFFFF AND PUSH20 0xFFFFFFFFFFFFFFFFFFFFFFFFFFFFFFFFFFFFFFFF AND DUP2 MSTORE PUSH1 0x20 ADD SWAP1 DUP2 MSTORE PUSH1 0x20 ADD PUSH1 0x0 KECCAK256 PUSH1 0x0 DUP3 DUP3 SLOAD PUSH2 0x1773 SWAP2 SWAP1 PUSH2 0x318F JUMP JUMPDEST SWAP3 POP POP DUP2 SWAP1 SSTORE POP DUP5 PUSH20 0xFFFFFFFFFFFFFFFFFFFFFFFFFFFFFFFFFFFFFFFF AND PUSH1 0x0 PUSH20 0xFFFFFFFFFFFFFFFFFFFFFFFFFFFFFFFFFFFFFFFF AND DUP3 PUSH20 0xFFFFFFFFFFFFFFFFFFFFFFFFFFFFFFFFFFFFFFFF AND PUSH32 0xC3D58168C5AE7397731D063D5BBF3D657854427343F4C083240F7AACAA2D0F62 DUP8 DUP8 PUSH1 0x40 MLOAD PUSH2 0x17F1 SWAP3 SWAP2 SWAP1 PUSH2 0x300B JUMP JUMPDEST PUSH1 0x40 MLOAD DUP1 SWAP2 SUB SWAP1 LOG4 PUSH2 0x1808 DUP2 PUSH1 0x0 DUP8 DUP8 DUP8 DUP8 PUSH2 0x1E67 JUMP JUMPDEST POP POP POP POP POP JUMP JUMPDEST PUSH1 0x0 PUSH20 0xFFFFFFFFFFFFFFFFFFFFFFFFFFFFFFFFFFFFFFFF AND DUP5 PUSH20 0xFFFFFFFFFFFFFFFFFFFFFFFFFFFFFFFFFFFFFFFF AND EQ ISZERO PUSH2 0x187F JUMPI PUSH1 0x40 MLOAD PUSH32 0x8C379A000000000000000000000000000000000000000000000000000000000 DUP2 MSTORE PUSH1 0x4 ADD PUSH2 0x1876 SWAP1 PUSH2 0x2E2D JUMP JUMPDEST PUSH1 0x40 MLOAD DUP1 SWAP2 SUB SWAP1 REVERT JUMPDEST PUSH1 0x0 PUSH2 0x1889 PUSH2 0x135D JUMP JUMPDEST SWAP1 POP PUSH2 0x18A9 DUP2 DUP8 DUP8 PUSH2 0x189A DUP9 PUSH2 0x1DED JUMP JUMPDEST PUSH2 0x18A3 DUP9 PUSH2 0x1DED JUMP JUMPDEST DUP8 PUSH2 0x1BFE JUMP JUMPDEST PUSH1 0x0 DUP1 PUSH1 0x0 DUP7 DUP2 MSTORE PUSH1 0x20 ADD SWAP1 DUP2 MSTORE PUSH1 0x20 ADD PUSH1 0x0 KECCAK256 PUSH1 0x0 DUP9 PUSH20 0xFFFFFFFFFFFFFFFFFFFFFFFFFFFFFFFFFFFFFFFF AND PUSH20 0xFFFFFFFFFFFFFFFFFFFFFFFFFFFFFFFFFFFFFFFF AND DUP2 MSTORE PUSH1 0x20 ADD SWAP1 DUP2 MSTORE PUSH1 0x20 ADD PUSH1 0x0 KECCAK256 SLOAD SWAP1 POP DUP4 DUP2 LT ISZERO PUSH2 0x1940 JUMPI PUSH1 0x40 MLOAD PUSH32 0x8C379A000000000000000000000000000000000000000000000000000000000 DUP2 MSTORE PUSH1 0x4 ADD PUSH2 0x1937 SWAP1 PUSH2 0x2E6D JUMP JUMPDEST PUSH1 0x40 MLOAD DUP1 SWAP2 SUB SWAP1 REVERT JUMPDEST DUP4 DUP2 SUB PUSH1 0x0 DUP1 DUP8 DUP2 MSTORE PUSH1 0x20 ADD SWAP1 DUP2 MSTORE PUSH1 0x20 ADD PUSH1 0x0 KECCAK256 PUSH1 0x0 DUP10 PUSH20 0xFFFFFFFFFFFFFFFFFFFFFFFFFFFFFFFFFFFFFFFF AND PUSH20 0xFFFFFFFFFFFFFFFFFFFFFFFFFFFFFFFFFFFFFFFF AND DUP2 MSTORE PUSH1 0x20 ADD SWAP1 DUP2 MSTORE PUSH1 0x20 ADD PUSH1 0x0 KECCAK256 DUP2 SWAP1 SSTORE POP DUP4 PUSH1 0x0 DUP1 DUP8 DUP2 MSTORE PUSH1 0x20 ADD SWAP1 DUP2 MSTORE PUSH1 0x20 ADD PUSH1 0x0 KECCAK256 PUSH1 0x0 DUP9 PUSH20 0xFFFFFFFFFFFFFFFFFFFFFFFFFFFFFFFFFFFFFFFF AND PUSH20 0xFFFFFFFFFFFFFFFFFFFFFFFFFFFFFFFFFFFFFFFF AND DUP2 MSTORE PUSH1 0x20 ADD SWAP1 DUP2 MSTORE PUSH1 0x20 ADD PUSH1 0x0 KECCAK256 PUSH1 0x0 DUP3 DUP3 SLOAD PUSH2 0x19F5 SWAP2 SWAP1 PUSH2 0x318F JUMP JUMPDEST SWAP3 POP POP DUP2 SWAP1 SSTORE POP DUP6 PUSH20 0xFFFFFFFFFFFFFFFFFFFFFFFFFFFFFFFFFFFFFFFF AND DUP8 PUSH20 0xFFFFFFFFFFFFFFFFFFFFFFFFFFFFFFFFFFFFFFFF AND DUP4 PUSH20 0xFFFFFFFFFFFFFFFFFFFFFFFFFFFFFFFFFFFFFFFF AND PUSH32 0xC3D58168C5AE7397731D063D5BBF3D657854427343F4C083240F7AACAA2D0F62 DUP9 DUP9 PUSH1 0x40 MLOAD PUSH2 0x1A72 SWAP3 SWAP2 SWAP1 PUSH2 0x300B JUMP JUMPDEST PUSH1 0x40 MLOAD DUP1 SWAP2 SUB SWAP1 LOG4 PUSH2 0x1A88 DUP3 DUP9 DUP9 DUP9 DUP9 DUP9 PUSH2 0x1E67 JUMP JUMPDEST POP POP POP POP POP POP POP JUMP JUMPDEST DUP2 PUSH20 0xFFFFFFFFFFFFFFFFFFFFFFFFFFFFFFFFFFFFFFFF AND DUP4 PUSH20 0xFFFFFFFFFFFFFFFFFFFFFFFFFFFFFFFFFFFFFFFF AND EQ ISZERO PUSH2 0x1B00 JUMPI PUSH1 0x40 MLOAD PUSH32 0x8C379A000000000000000000000000000000000000000000000000000000000 DUP2 MSTORE PUSH1 0x4 ADD PUSH2 0x1AF7 SWAP1 PUSH2 0x2E8D JUMP JUMPDEST PUSH1 0x40 MLOAD DUP1 SWAP2 SUB SWAP1 REVERT JUMPDEST DUP1 PUSH1 0x1 PUSH1 0x0 DUP6 PUSH20 0xFFFFFFFFFFFFFFFFFFFFFFFFFFFFFFFFFFFFFFFF AND PUSH20 0xFFFFFFFFFFFFFFFFFFFFFFFFFFFFFFFFFFFFFFFF AND DUP2 MSTORE PUSH1 0x20 ADD SWAP1 DUP2 MSTORE PUSH1 0x20 ADD PUSH1 0x0 KECCAK256 PUSH1 0x0 DUP5 PUSH20 0xFFFFFFFFFFFFFFFFFFFFFFFFFFFFFFFFFFFFFFFF AND PUSH20 0xFFFFFFFFFFFFFFFFFFFFFFFFFFFFFFFFFFFFFFFF AND DUP2 MSTORE PUSH1 0x20 ADD SWAP1 DUP2 MSTORE PUSH1 0x20 ADD PUSH1 0x0 KECCAK256 PUSH1 0x0 PUSH2 0x100 EXP DUP2 SLOAD DUP2 PUSH1 0xFF MUL NOT AND SWAP1 DUP4 ISZERO ISZERO MUL OR SWAP1 SSTORE POP DUP2 PUSH20 0xFFFFFFFFFFFFFFFFFFFFFFFFFFFFFFFFFFFFFFFF AND DUP4 PUSH20 0xFFFFFFFFFFFFFFFFFFFFFFFFFFFFFFFFFFFFFFFF AND PUSH32 0x17307EAB39AB6107E8899845AD3D59BD9653F200F220920489CA2B5937696C31 DUP4 PUSH1 0x40 MLOAD PUSH2 0x1BF1 SWAP2 SWAP1 PUSH2 0x2D70 JUMP JUMPDEST PUSH1 0x40 MLOAD DUP1 SWAP2 SUB SWAP1 LOG3 POP POP POP JUMP JUMPDEST POP POP POP POP POP POP JUMP JUMPDEST PUSH2 0x1C25 DUP5 PUSH20 0xFFFFFFFFFFFFFFFFFFFFFFFFFFFFFFFFFFFFFFFF AND PUSH2 0x204E JUMP JUMPDEST ISZERO PUSH2 0x1DE5 JUMPI DUP4 PUSH20 0xFFFFFFFFFFFFFFFFFFFFFFFFFFFFFFFFFFFFFFFF AND PUSH4 0xBC197C81 DUP8 DUP8 DUP7 DUP7 DUP7 PUSH1 0x40 MLOAD DUP7 PUSH4 0xFFFFFFFF AND PUSH1 0xE0 SHL DUP2 MSTORE PUSH1 0x4 ADD PUSH2 0x1C6B SWAP6 SWAP5 SWAP4 SWAP3 SWAP2 SWAP1 PUSH2 0x2C55 JUMP JUMPDEST PUSH1 0x20 PUSH1 0x40 MLOAD DUP1 DUP4 SUB DUP2 PUSH1 0x0 DUP8 DUP1 EXTCODESIZE ISZERO DUP1 ISZERO PUSH2 0x1C85 JUMPI PUSH1 0x0 DUP1 REVERT JUMPDEST POP GAS CALL SWAP3 POP POP POP DUP1 ISZERO PUSH2 0x1CB6 JUMPI POP PUSH1 0x40 MLOAD RETURNDATASIZE PUSH1 0x1F NOT PUSH1 0x1F DUP3 ADD AND DUP3 ADD DUP1 PUSH1 0x40 MSTORE POP DUP2 ADD SWAP1 PUSH2 0x1CB3 SWAP2 SWAP1 PUSH2 0x2664 JUMP JUMPDEST PUSH1 0x1 JUMPDEST PUSH2 0x1D5C JUMPI PUSH2 0x1CC2 PUSH2 0x3403 JUMP JUMPDEST DUP1 PUSH4 0x8C379A0 EQ ISZERO PUSH2 0x1D1F JUMPI POP PUSH2 0x1CD7 PUSH2 0x37C1 JUMP JUMPDEST DUP1 PUSH2 0x1CE2 JUMPI POP PUSH2 0x1D21 JUMP JUMPDEST DUP1 PUSH1 0x40 MLOAD PUSH32 0x8C379A000000000000000000000000000000000000000000000000000000000 DUP2 MSTORE PUSH1 0x4 ADD PUSH2 0x1D16 SWAP2 SWAP1 PUSH2 0x2D8B JUMP JUMPDEST PUSH1 0x40 MLOAD DUP1 SWAP2 SUB SWAP1 REVERT JUMPDEST POP JUMPDEST PUSH1 0x40 MLOAD PUSH32 0x8C379A000000000000000000000000000000000000000000000000000000000 DUP2 MSTORE PUSH1 0x4 ADD PUSH2 0x1D53 SWAP1 PUSH2 0x2DAD JUMP JUMPDEST PUSH1 0x40 MLOAD DUP1 SWAP2 SUB SWAP1 REVERT JUMPDEST PUSH4 0xBC197C81 PUSH1 0xE0 SHL PUSH28 0xFFFFFFFFFFFFFFFFFFFFFFFFFFFFFFFFFFFFFFFFFFFFFFFFFFFFFFFF NOT AND DUP2 PUSH28 0xFFFFFFFFFFFFFFFFFFFFFFFFFFFFFFFFFFFFFFFFFFFFFFFFFFFFFFFF NOT AND EQ PUSH2 0x1DE3 JUMPI PUSH1 0x40 MLOAD PUSH32 0x8C379A000000000000000000000000000000000000000000000000000000000 DUP2 MSTORE PUSH1 0x4 ADD PUSH2 0x1DDA SWAP1 PUSH2 0x2DCD JUMP JUMPDEST PUSH1 0x40 MLOAD DUP1 SWAP2 SUB SWAP1 REVERT JUMPDEST POP JUMPDEST POP POP POP POP POP POP JUMP JUMPDEST PUSH1 0x60 PUSH1 0x0 PUSH1 0x1 PUSH8 0xFFFFFFFFFFFFFFFF DUP2 GT ISZERO PUSH2 0x1E0C JUMPI PUSH2 0x1E0B PUSH2 0x33D4 JUMP JUMPDEST JUMPDEST PUSH1 0x40 MLOAD SWAP1 DUP1 DUP3 MSTORE DUP1 PUSH1 0x20 MUL PUSH1 0x20 ADD DUP3 ADD PUSH1 0x40 MSTORE DUP1 ISZERO PUSH2 0x1E3A JUMPI DUP2 PUSH1 0x20 ADD PUSH1 0x20 DUP3 MUL DUP1 CALLDATASIZE DUP4 CALLDATACOPY DUP1 DUP3 ADD SWAP2 POP POP SWAP1 POP JUMPDEST POP SWAP1 POP DUP3 DUP2 PUSH1 0x0 DUP2 MLOAD DUP2 LT PUSH2 0x1E52 JUMPI PUSH2 0x1E51 PUSH2 0x33A5 JUMP JUMPDEST JUMPDEST PUSH1 0x20 MUL PUSH1 0x20 ADD ADD DUP2 DUP2 MSTORE POP POP DUP1 SWAP2 POP POP SWAP2 SWAP1 POP JUMP JUMPDEST PUSH2 0x1E86 DUP5 PUSH20 0xFFFFFFFFFFFFFFFFFFFFFFFFFFFFFFFFFFFFFFFF AND PUSH2 0x204E JUMP JUMPDEST ISZERO PUSH2 0x2046 JUMPI DUP4 PUSH20 0xFFFFFFFFFFFFFFFFFFFFFFFFFFFFFFFFFFFFFFFF AND PUSH4 0xF23A6E61 DUP8 DUP8 DUP7 DUP7 DUP7 PUSH1 0x40 MLOAD DUP7 PUSH4 0xFFFFFFFF AND PUSH1 0xE0 SHL DUP2 MSTORE PUSH1 0x4 ADD PUSH2 0x1ECC SWAP6 SWAP5 SWAP4 SWAP3 SWAP2 SWAP1 PUSH2 0x2CBD JUMP JUMPDEST PUSH1 0x20 PUSH1 0x40 MLOAD DUP1 DUP4 SUB DUP2 PUSH1 0x0 DUP8 DUP1 EXTCODESIZE ISZERO DUP1 ISZERO PUSH2 0x1EE6 JUMPI PUSH1 0x0 DUP1 REVERT JUMPDEST POP GAS CALL SWAP3 POP POP POP DUP1 ISZERO PUSH2 0x1F17 JUMPI POP PUSH1 0x40 MLOAD RETURNDATASIZE PUSH1 0x1F NOT PUSH1 0x1F DUP3 ADD AND DUP3 ADD DUP1 PUSH1 0x40 MSTORE POP DUP2 ADD SWAP1 PUSH2 0x1F14 SWAP2 SWAP1 PUSH2 0x2664 JUMP JUMPDEST PUSH1 0x1 JUMPDEST PUSH2 0x1FBD JUMPI PUSH2 0x1F23 PUSH2 0x3403 JUMP JUMPDEST DUP1 PUSH4 0x8C379A0 EQ ISZERO PUSH2 0x1F80 JUMPI POP PUSH2 0x1F38 PUSH2 0x37C1 JUMP JUMPDEST DUP1 PUSH2 0x1F43 JUMPI POP PUSH2 0x1F82 JUMP JUMPDEST DUP1 PUSH1 0x40 MLOAD PUSH32 0x8C379A000000000000000000000000000000000000000000000000000000000 DUP2 MSTORE PUSH1 0x4 ADD PUSH2 0x1F77 SWAP2 SWAP1 PUSH2 0x2D8B JUMP JUMPDEST PUSH1 0x40 MLOAD DUP1 SWAP2 SUB SWAP1 REVERT JUMPDEST POP JUMPDEST PUSH1 0x40 MLOAD PUSH32 0x8C379A000000000000000000000000000000000000000000000000000000000 DUP2 MSTORE PUSH1 0x4 ADD PUSH2 0x1FB4 SWAP1 PUSH2 0x2DAD JUMP JUMPDEST PUSH1 0x40 MLOAD DUP1 SWAP2 SUB SWAP1 REVERT JUMPDEST PUSH4 0xF23A6E61 PUSH1 0xE0 SHL PUSH28 0xFFFFFFFFFFFFFFFFFFFFFFFFFFFFFFFFFFFFFFFFFFFFFFFFFFFFFFFF NOT AND DUP2 PUSH28 0xFFFFFFFFFFFFFFFFFFFFFFFFFFFFFFFFFFFFFFFFFFFFFFFFFFFFFFFF NOT AND EQ PUSH2 0x2044 JUMPI PUSH1 0x40 MLOAD PUSH32 0x8C379A000000000000000000000000000000000000000000000000000000000 DUP2 MSTORE PUSH1 0x4 ADD PUSH2 0x203B SWAP1 PUSH2 0x2DCD JUMP JUMPDEST PUSH1 0x40 MLOAD DUP1 SWAP2 SUB SWAP1 REVERT JUMPDEST POP JUMPDEST POP POP POP POP POP POP JUMP JUMPDEST PUSH1 0x0 DUP1 DUP3 PUSH20 0xFFFFFFFFFFFFFFFFFFFFFFFFFFFFFFFFFFFFFFFF AND EXTCODESIZE GT SWAP1 POP SWAP2 SWAP1 POP JUMP JUMPDEST DUP3 DUP1 SLOAD PUSH2 0x207D SWAP1 PUSH2 0x329B JUMP JUMPDEST SWAP1 PUSH1 0x0 MSTORE PUSH1 0x20 PUSH1 0x0 KECCAK256 SWAP1 PUSH1 0x1F ADD PUSH1 0x20 SWAP1 DIV DUP2 ADD SWAP3 DUP3 PUSH2 0x209F JUMPI PUSH1 0x0 DUP6 SSTORE PUSH2 0x20E6 JUMP JUMPDEST DUP3 PUSH1 0x1F LT PUSH2 0x20B8 JUMPI DUP1 MLOAD PUSH1 0xFF NOT AND DUP4 DUP1 ADD OR DUP6 SSTORE PUSH2 0x20E6 JUMP JUMPDEST DUP3 DUP1 ADD PUSH1 0x1 ADD DUP6 SSTORE DUP3 ISZERO PUSH2 0x20E6 JUMPI SWAP2 DUP3 ADD JUMPDEST DUP3 DUP2 GT ISZERO PUSH2 0x20E5 JUMPI DUP3 MLOAD DUP3 SSTORE SWAP2 PUSH1 0x20 ADD SWAP2 SWAP1 PUSH1 0x1 ADD SWAP1 PUSH2 0x20CA JUMP JUMPDEST JUMPDEST POP SWAP1 POP PUSH2 0x20F3 SWAP2 SWAP1 PUSH2 0x20F7 JUMP JUMPDEST POP SWAP1 JUMP JUMPDEST JUMPDEST DUP1 DUP3 GT ISZERO PUSH2 0x2110 JUMPI PUSH1 0x0 DUP2 PUSH1 0x0 SWAP1 SSTORE POP PUSH1 0x1 ADD PUSH2 0x20F8 JUMP JUMPDEST POP SWAP1 JUMP JUMPDEST PUSH1 0x0 PUSH2 0x2127 PUSH2 0x2122 DUP5 PUSH2 0x3059 JUMP JUMPDEST PUSH2 0x3034 JUMP JUMPDEST SWAP1 POP DUP1 DUP4 DUP3 MSTORE PUSH1 0x20 DUP3 ADD SWAP1 POP DUP3 DUP6 PUSH1 0x20 DUP7 MUL DUP3 ADD GT ISZERO PUSH2 0x214A JUMPI PUSH2 0x2149 PUSH2 0x342A JUMP JUMPDEST JUMPDEST PUSH1 0x0 JUMPDEST DUP6 DUP2 LT ISZERO PUSH2 0x217A JUMPI DUP2 PUSH2 0x2160 DUP9 DUP3 PUSH2 0x2278 JUMP JUMPDEST DUP5 MSTORE PUSH1 0x20 DUP5 ADD SWAP4 POP PUSH1 0x20 DUP4 ADD SWAP3 POP POP PUSH1 0x1 DUP2 ADD SWAP1 POP PUSH2 0x214D JUMP JUMPDEST POP POP POP SWAP4 SWAP3 POP POP POP JUMP JUMPDEST PUSH1 0x0 PUSH2 0x2197 PUSH2 0x2192 DUP5 PUSH2 0x3085 JUMP JUMPDEST PUSH2 0x3034 JUMP JUMPDEST SWAP1 POP DUP1 DUP4 DUP3 MSTORE PUSH1 0x20 DUP3 ADD SWAP1 POP DUP3 DUP6 PUSH1 0x20 DUP7 MUL DUP3 ADD GT ISZERO PUSH2 0x21BA JUMPI PUSH2 0x21B9 PUSH2 0x342A JUMP JUMPDEST JUMPDEST PUSH1 0x0 JUMPDEST DUP6 DUP2 LT ISZERO PUSH2 0x21EA JUMPI DUP2 PUSH2 0x21D0 DUP9 DUP3 PUSH2 0x2384 JUMP JUMPDEST DUP5 MSTORE PUSH1 0x20 DUP5 ADD SWAP4 POP PUSH1 0x20 DUP4 ADD SWAP3 POP POP PUSH1 0x1 DUP2 ADD SWAP1 POP PUSH2 0x21BD JUMP JUMPDEST POP POP POP SWAP4 SWAP3 POP POP POP JUMP JUMPDEST PUSH1 0x0 PUSH2 0x2207 PUSH2 0x2202 DUP5 PUSH2 0x30B1 JUMP JUMPDEST PUSH2 0x3034 JUMP JUMPDEST SWAP1 POP DUP3 DUP2 MSTORE PUSH1 0x20 DUP2 ADD DUP5 DUP5 DUP5 ADD GT ISZERO PUSH2 0x2223 JUMPI PUSH2 0x2222 PUSH2 0x342F JUMP JUMPDEST JUMPDEST PUSH2 0x222E DUP5 DUP3 DUP6 PUSH2 0x3259 JUMP JUMPDEST POP SWAP4 SWAP3 POP POP POP JUMP JUMPDEST PUSH1 0x0 PUSH2 0x2249 PUSH2 0x2244 DUP5 PUSH2 0x30E2 JUMP JUMPDEST PUSH2 0x3034 JUMP JUMPDEST SWAP1 POP DUP3 DUP2 MSTORE PUSH1 0x20 DUP2 ADD DUP5 DUP5 DUP5 ADD GT ISZERO PUSH2 0x2265 JUMPI PUSH2 0x2264 PUSH2 0x342F JUMP JUMPDEST JUMPDEST PUSH2 0x2270 DUP5 DUP3 DUP6 PUSH2 0x3259 JUMP JUMPDEST POP SWAP4 SWAP3 POP POP POP JUMP JUMPDEST PUSH1 0x0 DUP2 CALLDATALOAD SWAP1 POP PUSH2 0x2287 DUP2 PUSH2 0x3857 JUMP JUMPDEST SWAP3 SWAP2 POP POP JUMP JUMPDEST PUSH1 0x0 DUP3 PUSH1 0x1F DUP4 ADD SLT PUSH2 0x22A2 JUMPI PUSH2 0x22A1 PUSH2 0x3425 JUMP JUMPDEST JUMPDEST DUP2 CALLDATALOAD PUSH2 0x22B2 DUP5 DUP3 PUSH1 0x20 DUP7 ADD PUSH2 0x2114 JUMP JUMPDEST SWAP2 POP POP SWAP3 SWAP2 POP POP JUMP JUMPDEST PUSH1 0x0 DUP3 PUSH1 0x1F DUP4 ADD SLT PUSH2 0x22D0 JUMPI PUSH2 0x22CF PUSH2 0x3425 JUMP JUMPDEST JUMPDEST DUP2 CALLDATALOAD PUSH2 0x22E0 DUP5 DUP3 PUSH1 0x20 DUP7 ADD PUSH2 0x2184 JUMP JUMPDEST SWAP2 POP POP SWAP3 SWAP2 POP POP JUMP JUMPDEST PUSH1 0x0 DUP2 CALLDATALOAD SWAP1 POP PUSH2 0x22F8 DUP2 PUSH2 0x386E JUMP JUMPDEST SWAP3 SWAP2 POP POP JUMP JUMPDEST PUSH1 0x0 DUP2 CALLDATALOAD SWAP1 POP PUSH2 0x230D DUP2 PUSH2 0x3885 JUMP JUMPDEST SWAP3 SWAP2 POP POP JUMP JUMPDEST PUSH1 0x0 DUP2 MLOAD SWAP1 POP PUSH2 0x2322 DUP2 PUSH2 0x3885 JUMP JUMPDEST SWAP3 SWAP2 POP POP JUMP JUMPDEST PUSH1 0x0 DUP3 PUSH1 0x1F DUP4 ADD SLT PUSH2 0x233D JUMPI PUSH2 0x233C PUSH2 0x3425 JUMP JUMPDEST JUMPDEST DUP2 CALLDATALOAD PUSH2 0x234D DUP5 DUP3 PUSH1 0x20 DUP7 ADD PUSH2 0x21F4 JUMP JUMPDEST SWAP2 POP POP SWAP3 SWAP2 POP POP JUMP JUMPDEST PUSH1 0x0 DUP3 PUSH1 0x1F DUP4 ADD SLT PUSH2 0x236B JUMPI PUSH2 0x236A PUSH2 0x3425 JUMP JUMPDEST JUMPDEST DUP2 CALLDATALOAD PUSH2 0x237B DUP5 DUP3 PUSH1 0x20 DUP7 ADD PUSH2 0x2236 JUMP JUMPDEST SWAP2 POP POP SWAP3 SWAP2 POP POP JUMP JUMPDEST PUSH1 0x0 DUP2 CALLDATALOAD SWAP1 POP PUSH2 0x2393 DUP2 PUSH2 0x389C JUMP JUMPDEST SWAP3 SWAP2 POP POP JUMP JUMPDEST PUSH1 0x0 DUP1 PUSH1 0x40 DUP4 DUP6 SUB SLT ISZERO PUSH2 0x23B0 JUMPI PUSH2 0x23AF PUSH2 0x3439 JUMP JUMPDEST JUMPDEST PUSH1 0x0 PUSH2 0x23BE DUP6 DUP3 DUP7 ADD PUSH2 0x2278 JUMP JUMPDEST SWAP3 POP POP PUSH1 0x20 PUSH2 0x23CF DUP6 DUP3 DUP7 ADD PUSH2 0x2278 JUMP JUMPDEST SWAP2 POP POP SWAP3 POP SWAP3 SWAP1 POP JUMP JUMPDEST PUSH1 0x0 DUP1 PUSH1 0x0 DUP1 PUSH1 0x0 PUSH1 0xA0 DUP7 DUP9 SUB SLT ISZERO PUSH2 0x23F5 JUMPI PUSH2 0x23F4 PUSH2 0x3439 JUMP JUMPDEST JUMPDEST PUSH1 0x0 PUSH2 0x2403 DUP9 DUP3 DUP10 ADD PUSH2 0x2278 JUMP JUMPDEST SWAP6 POP POP PUSH1 0x20 PUSH2 0x2414 DUP9 DUP3 DUP10 ADD PUSH2 0x2278 JUMP JUMPDEST SWAP5 POP POP PUSH1 0x40 DUP7 ADD CALLDATALOAD PUSH8 0xFFFFFFFFFFFFFFFF DUP2 GT ISZERO PUSH2 0x2435 JUMPI PUSH2 0x2434 PUSH2 0x3434 JUMP JUMPDEST JUMPDEST PUSH2 0x2441 DUP9 DUP3 DUP10 ADD PUSH2 0x22BB JUMP JUMPDEST SWAP4 POP POP PUSH1 0x60 DUP7 ADD CALLDATALOAD PUSH8 0xFFFFFFFFFFFFFFFF DUP2 GT ISZERO PUSH2 0x2462 JUMPI PUSH2 0x2461 PUSH2 0x3434 JUMP JUMPDEST JUMPDEST PUSH2 0x246E DUP9 DUP3 DUP10 ADD PUSH2 0x22BB JUMP JUMPDEST SWAP3 POP POP PUSH1 0x80 DUP7 ADD CALLDATALOAD PUSH8 0xFFFFFFFFFFFFFFFF DUP2 GT ISZERO PUSH2 0x248F JUMPI PUSH2 0x248E PUSH2 0x3434 JUMP JUMPDEST JUMPDEST PUSH2 0x249B DUP9 DUP3 DUP10 ADD PUSH2 0x2328 JUMP JUMPDEST SWAP2 POP POP SWAP3 SWAP6 POP SWAP3 SWAP6 SWAP1 SWAP4 POP JUMP JUMPDEST PUSH1 0x0 DUP1 PUSH1 0x0 DUP1 PUSH1 0x0 PUSH1 0xA0 DUP7 DUP9 SUB SLT ISZERO PUSH2 0x24C4 JUMPI PUSH2 0x24C3 PUSH2 0x3439 JUMP JUMPDEST JUMPDEST PUSH1 0x0 PUSH2 0x24D2 DUP9 DUP3 DUP10 ADD PUSH2 0x2278 JUMP JUMPDEST SWAP6 POP POP PUSH1 0x20 PUSH2 0x24E3 DUP9 DUP3 DUP10 ADD PUSH2 0x2278 JUMP JUMPDEST SWAP5 POP POP PUSH1 0x40 PUSH2 0x24F4 DUP9 DUP3 DUP10 ADD PUSH2 0x2384 JUMP JUMPDEST SWAP4 POP POP PUSH1 0x60 PUSH2 0x2505 DUP9 DUP3 DUP10 ADD PUSH2 0x2384 JUMP JUMPDEST SWAP3 POP POP PUSH1 0x80 DUP7 ADD CALLDATALOAD PUSH8 0xFFFFFFFFFFFFFFFF DUP2 GT ISZERO PUSH2 0x2526 JUMPI PUSH2 0x2525 PUSH2 0x3434 JUMP JUMPDEST JUMPDEST PUSH2 0x2532 DUP9 DUP3 DUP10 ADD PUSH2 0x2328 JUMP JUMPDEST SWAP2 POP POP SWAP3 SWAP6 POP SWAP3 SWAP6 SWAP1 SWAP4 POP JUMP JUMPDEST PUSH1 0x0 DUP1 PUSH1 0x40 DUP4 DUP6 SUB SLT ISZERO PUSH2 0x2556 JUMPI PUSH2 0x2555 PUSH2 0x3439 JUMP JUMPDEST JUMPDEST PUSH1 0x0 PUSH2 0x2564 DUP6 DUP3 DUP7 ADD PUSH2 0x2278 JUMP JUMPDEST SWAP3 POP POP PUSH1 0x20 PUSH2 0x2575 DUP6 DUP3 DUP7 ADD PUSH2 0x22E9 JUMP JUMPDEST SWAP2 POP POP SWAP3 POP SWAP3 SWAP1 POP JUMP JUMPDEST PUSH1 0x0 DUP1 PUSH1 0x40 DUP4 DUP6 SUB SLT ISZERO PUSH2 0x2596 JUMPI PUSH2 0x2595 PUSH2 0x3439 JUMP JUMPDEST JUMPDEST PUSH1 0x0 PUSH2 0x25A4 DUP6 DUP3 DUP7 ADD PUSH2 0x2278 JUMP JUMPDEST SWAP3 POP POP PUSH1 0x20 PUSH2 0x25B5 DUP6 DUP3 DUP7 ADD PUSH2 0x2384 JUMP JUMPDEST SWAP2 POP POP SWAP3 POP SWAP3 SWAP1 POP JUMP JUMPDEST PUSH1 0x0 DUP1 PUSH1 0x40 DUP4 DUP6 SUB SLT ISZERO PUSH2 0x25D6 JUMPI PUSH2 0x25D5 PUSH2 0x3439 JUMP JUMPDEST JUMPDEST PUSH1 0x0 DUP4 ADD CALLDATALOAD PUSH8 0xFFFFFFFFFFFFFFFF DUP2 GT ISZERO PUSH2 0x25F4 JUMPI PUSH2 0x25F3 PUSH2 0x3434 JUMP JUMPDEST JUMPDEST PUSH2 0x2600 DUP6 DUP3 DUP7 ADD PUSH2 0x228D JUMP JUMPDEST SWAP3 POP POP PUSH1 0x20 DUP4 ADD CALLDATALOAD PUSH8 0xFFFFFFFFFFFFFFFF DUP2 GT ISZERO PUSH2 0x2621 JUMPI PUSH2 0x2620 PUSH2 0x3434 JUMP JUMPDEST JUMPDEST PUSH2 0x262D DUP6 DUP3 DUP7 ADD PUSH2 0x22BB JUMP JUMPDEST SWAP2 POP POP SWAP3 POP SWAP3 SWAP1 POP JUMP JUMPDEST PUSH1 0x0 PUSH1 0x20 DUP3 DUP5 SUB SLT ISZERO PUSH2 0x264D JUMPI PUSH2 0x264C PUSH2 0x3439 JUMP JUMPDEST JUMPDEST PUSH1 0x0 PUSH2 0x265B DUP5 DUP3 DUP6 ADD PUSH2 0x22FE JUMP JUMPDEST SWAP2 POP POP SWAP3 SWAP2 POP POP JUMP JUMPDEST PUSH1 0x0 PUSH1 0x20 DUP3 DUP5 SUB SLT ISZERO PUSH2 0x267A JUMPI PUSH2 0x2679 PUSH2 0x3439 JUMP JUMPDEST JUMPDEST PUSH1 0x0 PUSH2 0x2688 DUP5 DUP3 DUP6 ADD PUSH2 0x2313 JUMP JUMPDEST SWAP2 POP POP SWAP3 SWAP2 POP POP JUMP JUMPDEST PUSH1 0x0 PUSH1 0x20 DUP3 DUP5 SUB SLT ISZERO PUSH2 0x26A7 JUMPI PUSH2 0x26A6 PUSH2 0x3439 JUMP JUMPDEST JUMPDEST PUSH1 0x0 DUP3 ADD CALLDATALOAD PUSH8 0xFFFFFFFFFFFFFFFF DUP2 GT ISZERO PUSH2 0x26C5 JUMPI PUSH2 0x26C4 PUSH2 0x3434 JUMP JUMPDEST JUMPDEST PUSH2 0x26D1 DUP5 DUP3 DUP6 ADD PUSH2 0x2356 JUMP JUMPDEST SWAP2 POP POP SWAP3 SWAP2 POP POP JUMP JUMPDEST PUSH1 0x0 DUP1 PUSH1 0x40 DUP4 DUP6 SUB SLT ISZERO PUSH2 0x26F1 JUMPI PUSH2 0x26F0 PUSH2 0x3439 JUMP JUMPDEST JUMPDEST PUSH1 0x0 DUP4 ADD CALLDATALOAD PUSH8 0xFFFFFFFFFFFFFFFF DUP2 GT ISZERO PUSH2 0x270F JUMPI PUSH2 0x270E PUSH2 0x3434 JUMP JUMPDEST JUMPDEST PUSH2 0x271B DUP6 DUP3 DUP7 ADD PUSH2 0x2356 JUMP JUMPDEST SWAP3 POP POP PUSH1 0x20 PUSH2 0x272C DUP6 DUP3 DUP7 ADD PUSH2 0x2278 JUMP JUMPDEST SWAP2 POP POP SWAP3 POP SWAP3 SWAP1 POP JUMP JUMPDEST PUSH1 0x0 DUP1 PUSH1 0x0 DUP1 PUSH1 0x0 DUP1 PUSH1 0x0 DUP1 PUSH1 0x0 PUSH2 0x120 DUP11 DUP13 SUB SLT ISZERO PUSH2 0x2759 JUMPI PUSH2 0x2758 PUSH2 0x3439 JUMP JUMPDEST JUMPDEST PUSH1 0x0 DUP11 ADD CALLDATALOAD PUSH8 0xFFFFFFFFFFFFFFFF DUP2 GT ISZERO PUSH2 0x2777 JUMPI PUSH2 0x2776 PUSH2 0x3434 JUMP JUMPDEST JUMPDEST PUSH2 0x2783 DUP13 DUP3 DUP14 ADD PUSH2 0x2356 JUMP JUMPDEST SWAP10 POP POP PUSH1 0x20 DUP11 ADD CALLDATALOAD PUSH8 0xFFFFFFFFFFFFFFFF DUP2 GT ISZERO PUSH2 0x27A4 JUMPI PUSH2 0x27A3 PUSH2 0x3434 JUMP JUMPDEST JUMPDEST PUSH2 0x27B0 DUP13 DUP3 DUP14 ADD PUSH2 0x2356 JUMP JUMPDEST SWAP9 POP POP PUSH1 0x40 DUP11 ADD CALLDATALOAD PUSH8 0xFFFFFFFFFFFFFFFF DUP2 GT ISZERO PUSH2 0x27D1 JUMPI PUSH2 0x27D0 PUSH2 0x3434 JUMP JUMPDEST JUMPDEST PUSH2 0x27DD DUP13 DUP3 DUP14 ADD PUSH2 0x2356 JUMP JUMPDEST SWAP8 POP POP PUSH1 0x60 DUP11 ADD CALLDATALOAD PUSH8 0xFFFFFFFFFFFFFFFF DUP2 GT ISZERO PUSH2 0x27FE JUMPI PUSH2 0x27FD PUSH2 0x3434 JUMP JUMPDEST JUMPDEST PUSH2 0x280A DUP13 DUP3 DUP14 ADD PUSH2 0x2356 JUMP JUMPDEST SWAP7 POP POP PUSH1 0x80 DUP11 ADD CALLDATALOAD PUSH8 0xFFFFFFFFFFFFFFFF DUP2 GT ISZERO PUSH2 0x282B JUMPI PUSH2 0x282A PUSH2 0x3434 JUMP JUMPDEST JUMPDEST PUSH2 0x2837 DUP13 DUP3 DUP14 ADD PUSH2 0x2356 JUMP JUMPDEST SWAP6 POP POP PUSH1 0xA0 DUP11 ADD CALLDATALOAD PUSH8 0xFFFFFFFFFFFFFFFF DUP2 GT ISZERO PUSH2 0x2858 JUMPI PUSH2 0x2857 PUSH2 0x3434 JUMP JUMPDEST JUMPDEST PUSH2 0x2864 DUP13 DUP3 DUP14 ADD PUSH2 0x2356 JUMP JUMPDEST SWAP5 POP POP PUSH1 0xC0 DUP11 ADD CALLDATALOAD PUSH8 0xFFFFFFFFFFFFFFFF DUP2 GT ISZERO PUSH2 0x2885 JUMPI PUSH2 0x2884 PUSH2 0x3434 JUMP JUMPDEST JUMPDEST PUSH2 0x2891 DUP13 DUP3 DUP14 ADD PUSH2 0x2356 JUMP JUMPDEST SWAP4 POP POP PUSH1 0xE0 PUSH2 0x28A2 DUP13 DUP3 DUP14 ADD PUSH2 0x2278 JUMP JUMPDEST SWAP3 POP POP PUSH2 0x100 DUP11 ADD CALLDATALOAD PUSH8 0xFFFFFFFFFFFFFFFF DUP2 GT ISZERO PUSH2 0x28C4 JUMPI PUSH2 0x28C3 PUSH2 0x3434 JUMP JUMPDEST JUMPDEST PUSH2 0x28D0 DUP13 DUP3 DUP14 ADD PUSH2 0x2356 JUMP JUMPDEST SWAP2 POP POP SWAP3 SWAP6 SWAP9 POP SWAP3 SWAP6 SWAP9 POP SWAP3 SWAP6 SWAP9 JUMP JUMPDEST PUSH1 0x0 PUSH1 0x20 DUP3 DUP5 SUB SLT ISZERO PUSH2 0x28F6 JUMPI PUSH2 0x28F5 PUSH2 0x3439 JUMP JUMPDEST JUMPDEST PUSH1 0x0 PUSH2 0x2904 DUP5 DUP3 DUP6 ADD PUSH2 0x2384 JUMP JUMPDEST SWAP2 POP POP SWAP3 SWAP2 POP POP JUMP JUMPDEST PUSH1 0x0 DUP1 PUSH1 0x40 DUP4 DUP6 SUB SLT ISZERO PUSH2 0x2924 JUMPI PUSH2 0x2923 PUSH2 0x3439 JUMP JUMPDEST JUMPDEST PUSH1 0x0 PUSH2 0x2932 DUP6 DUP3 DUP7 ADD PUSH2 0x2384 JUMP JUMPDEST SWAP3 POP POP PUSH1 0x20 PUSH2 0x2943 DUP6 DUP3 DUP7 ADD PUSH2 0x2278 JUMP JUMPDEST SWAP2 POP POP SWAP3 POP SWAP3 SWAP1 POP JUMP JUMPDEST PUSH1 0x0 PUSH2 0x2959 DUP4 DUP4 PUSH2 0x2C05 JUMP JUMPDEST PUSH1 0x20 DUP4 ADD SWAP1 POP SWAP3 SWAP2 POP POP JUMP JUMPDEST PUSH2 0x296E DUP2 PUSH2 0x31E5 JUMP JUMPDEST DUP3 MSTORE POP POP JUMP JUMPDEST PUSH1 0x0 PUSH2 0x297F DUP3 PUSH2 0x3123 JUMP JUMPDEST PUSH2 0x2989 DUP2 DUP6 PUSH2 0x3151 JUMP JUMPDEST SWAP4 POP PUSH2 0x2994 DUP4 PUSH2 0x3113 JUMP JUMPDEST DUP1 PUSH1 0x0 JUMPDEST DUP4 DUP2 LT ISZERO PUSH2 0x29C5 JUMPI DUP2 MLOAD PUSH2 0x29AC DUP9 DUP3 PUSH2 0x294D JUMP JUMPDEST SWAP8 POP PUSH2 0x29B7 DUP4 PUSH2 0x3144 JUMP JUMPDEST SWAP3 POP POP PUSH1 0x1 DUP2 ADD SWAP1 POP PUSH2 0x2998 JUMP JUMPDEST POP DUP6 SWAP4 POP POP POP POP SWAP3 SWAP2 POP POP JUMP JUMPDEST PUSH2 0x29DB DUP2 PUSH2 0x31F7 JUMP JUMPDEST DUP3 MSTORE POP POP JUMP JUMPDEST PUSH1 0x0 PUSH2 0x29EC DUP3 PUSH2 0x312E JUMP JUMPDEST PUSH2 0x29F6 DUP2 DUP6 PUSH2 0x3162 JUMP JUMPDEST SWAP4 POP PUSH2 0x2A06 DUP2 DUP6 PUSH1 0x20 DUP7 ADD PUSH2 0x3268 JUMP JUMPDEST PUSH2 0x2A0F DUP2 PUSH2 0x343E JUMP JUMPDEST DUP5 ADD SWAP2 POP POP SWAP3 SWAP2 POP POP JUMP JUMPDEST PUSH1 0x0 PUSH2 0x2A25 DUP3 PUSH2 0x3139 JUMP JUMPDEST PUSH2 0x2A2F DUP2 DUP6 PUSH2 0x3173 JUMP JUMPDEST SWAP4 POP PUSH2 0x2A3F DUP2 DUP6 PUSH1 0x20 DUP7 ADD PUSH2 0x3268 JUMP JUMPDEST PUSH2 0x2A48 DUP2 PUSH2 0x343E JUMP JUMPDEST DUP5 ADD SWAP2 POP POP SWAP3 SWAP2 POP POP JUMP JUMPDEST PUSH1 0x0 PUSH2 0x2A5E DUP3 PUSH2 0x3139 JUMP JUMPDEST PUSH2 0x2A68 DUP2 DUP6 PUSH2 0x3184 JUMP JUMPDEST SWAP4 POP PUSH2 0x2A78 DUP2 DUP6 PUSH1 0x20 DUP7 ADD PUSH2 0x3268 JUMP JUMPDEST DUP1 DUP5 ADD SWAP2 POP POP SWAP3 SWAP2 POP POP JUMP JUMPDEST PUSH1 0x0 PUSH2 0x2A91 PUSH1 0x34 DUP4 PUSH2 0x3173 JUMP JUMPDEST SWAP2 POP PUSH2 0x2A9C DUP3 PUSH2 0x345C JUMP JUMPDEST PUSH1 0x40 DUP3 ADD SWAP1 POP SWAP2 SWAP1 POP JUMP JUMPDEST PUSH1 0x0 PUSH2 0x2AB4 PUSH1 0x28 DUP4 PUSH2 0x3173 JUMP JUMPDEST SWAP2 POP PUSH2 0x2ABF DUP3 PUSH2 0x34AB JUMP JUMPDEST PUSH1 0x40 DUP3 ADD SWAP1 POP SWAP2 SWAP1 POP JUMP JUMPDEST PUSH1 0x0 PUSH2 0x2AD7 PUSH1 0x2B DUP4 PUSH2 0x3173 JUMP JUMPDEST SWAP2 POP PUSH2 0x2AE2 DUP3 PUSH2 0x34FA JUMP JUMPDEST PUSH1 0x40 DUP3 ADD SWAP1 POP SWAP2 SWAP1 POP JUMP JUMPDEST PUSH1 0x0 PUSH2 0x2AFA PUSH1 0x29 DUP4 PUSH2 0x3173 JUMP JUMPDEST SWAP2 POP PUSH2 0x2B05 DUP3 PUSH2 0x3549 JUMP JUMPDEST PUSH1 0x40 DUP3 ADD SWAP1 POP SWAP2 SWAP1 POP JUMP JUMPDEST PUSH1 0x0 PUSH2 0x2B1D PUSH1 0x25 DUP4 PUSH2 0x3173 JUMP JUMPDEST SWAP2 POP PUSH2 0x2B28 DUP3 PUSH2 0x3598 JUMP JUMPDEST PUSH1 0x40 DUP3 ADD SWAP1 POP SWAP2 SWAP1 POP JUMP JUMPDEST PUSH1 0x0 PUSH2 0x2B40 PUSH1 0x32 DUP4 PUSH2 0x3173 JUMP JUMPDEST SWAP2 POP PUSH2 0x2B4B DUP3 PUSH2 0x35E7 JUMP JUMPDEST PUSH1 0x40 DUP3 ADD SWAP1 POP SWAP2 SWAP1 POP JUMP JUMPDEST PUSH1 0x0 PUSH2 0x2B63 PUSH1 0x2A DUP4 PUSH2 0x3173 JUMP JUMPDEST SWAP2 POP PUSH2 0x2B6E DUP3 PUSH2 0x3636 JUMP JUMPDEST PUSH1 0x40 DUP3 ADD SWAP1 POP SWAP2 SWAP1 POP JUMP JUMPDEST PUSH1 0x0 PUSH2 0x2B86 PUSH1 0x29 DUP4 PUSH2 0x3173 JUMP JUMPDEST SWAP2 POP PUSH2 0x2B91 DUP3 PUSH2 0x3685 JUMP JUMPDEST PUSH1 0x40 DUP3 ADD SWAP1 POP SWAP2 SWAP1 POP JUMP JUMPDEST PUSH1 0x0 PUSH2 0x2BA9 PUSH1 0x29 DUP4 PUSH2 0x3173 JUMP JUMPDEST SWAP2 POP PUSH2 0x2BB4 DUP3 PUSH2 0x36D4 JUMP JUMPDEST PUSH1 0x40 DUP3 ADD SWAP1 POP SWAP2 SWAP1 POP JUMP JUMPDEST PUSH1 0x0 PUSH2 0x2BCC PUSH1 0x28 DUP4 PUSH2 0x3173 JUMP JUMPDEST SWAP2 POP PUSH2 0x2BD7 DUP3 PUSH2 0x3723 JUMP JUMPDEST PUSH1 0x40 DUP3 ADD SWAP1 POP SWAP2 SWAP1 POP JUMP JUMPDEST PUSH1 0x0 PUSH2 0x2BEF PUSH1 0x21 DUP4 PUSH2 0x3173 JUMP JUMPDEST SWAP2 POP PUSH2 0x2BFA DUP3 PUSH2 0x3772 JUMP JUMPDEST PUSH1 0x40 DUP3 ADD SWAP1 POP SWAP2 SWAP1 POP JUMP JUMPDEST PUSH2 0x2C0E DUP2 PUSH2 0x324F JUMP JUMPDEST DUP3 MSTORE POP POP JUMP JUMPDEST PUSH2 0x2C1D DUP2 PUSH2 0x324F JUMP JUMPDEST DUP3 MSTORE POP POP JUMP JUMPDEST PUSH1 0x0 PUSH2 0x2C2F DUP3 DUP5 PUSH2 0x2A53 JUMP JUMPDEST SWAP2 POP DUP2 SWAP1 POP SWAP3 SWAP2 POP POP JUMP JUMPDEST PUSH1 0x0 PUSH1 0x20 DUP3 ADD SWAP1 POP PUSH2 0x2C4F PUSH1 0x0 DUP4 ADD DUP5 PUSH2 0x2965 JUMP JUMPDEST SWAP3 SWAP2 POP POP JUMP JUMPDEST PUSH1 0x0 PUSH1 0xA0 DUP3 ADD SWAP1 POP PUSH2 0x2C6A PUSH1 0x0 DUP4 ADD DUP9 PUSH2 0x2965 JUMP JUMPDEST PUSH2 0x2C77 PUSH1 0x20 DUP4 ADD DUP8 PUSH2 0x2965 JUMP JUMPDEST DUP2 DUP2 SUB PUSH1 0x40 DUP4 ADD MSTORE PUSH2 0x2C89 DUP2 DUP7 PUSH2 0x2974 JUMP JUMPDEST SWAP1 POP DUP2 DUP2 SUB PUSH1 0x60 DUP4 ADD MSTORE PUSH2 0x2C9D DUP2 DUP6 PUSH2 0x2974 JUMP JUMPDEST SWAP1 POP DUP2 DUP2 SUB PUSH1 0x80 DUP4 ADD MSTORE PUSH2 0x2CB1 DUP2 DUP5 PUSH2 0x29E1 JUMP JUMPDEST SWAP1 POP SWAP7 SWAP6 POP POP POP POP POP POP JUMP JUMPDEST PUSH1 0x0 PUSH1 0xA0 DUP3 ADD SWAP1 POP PUSH2 0x2CD2 PUSH1 0x0 DUP4 ADD DUP9 PUSH2 0x2965 JUMP JUMPDEST PUSH2 0x2CDF PUSH1 0x20 DUP4 ADD DUP8 PUSH2 0x2965 JUMP JUMPDEST PUSH2 0x2CEC PUSH1 0x40 DUP4 ADD DUP7 PUSH2 0x2C14 JUMP JUMPDEST PUSH2 0x2CF9 PUSH1 0x60 DUP4 ADD DUP6 PUSH2 0x2C14 JUMP JUMPDEST DUP2 DUP2 SUB PUSH1 0x80 DUP4 ADD MSTORE PUSH2 0x2D0B DUP2 DUP5 PUSH2 0x29E1 JUMP JUMPDEST SWAP1 POP SWAP7 SWAP6 POP POP POP POP POP POP JUMP JUMPDEST PUSH1 0x0 PUSH1 0x20 DUP3 ADD SWAP1 POP DUP2 DUP2 SUB PUSH1 0x0 DUP4 ADD MSTORE PUSH2 0x2D31 DUP2 DUP5 PUSH2 0x2974 JUMP JUMPDEST SWAP1 POP SWAP3 SWAP2 POP POP JUMP JUMPDEST PUSH1 0x0 PUSH1 0x40 DUP3 ADD SWAP1 POP DUP2 DUP2 SUB PUSH1 0x0 DUP4 ADD MSTORE PUSH2 0x2D53 DUP2 DUP6 PUSH2 0x2974 JUMP JUMPDEST SWAP1 POP DUP2 DUP2 SUB PUSH1 0x20 DUP4 ADD MSTORE PUSH2 0x2D67 DUP2 DUP5 PUSH2 0x2974 JUMP JUMPDEST SWAP1 POP SWAP4 SWAP3 POP POP POP JUMP JUMPDEST PUSH1 0x0 PUSH1 0x20 DUP3 ADD SWAP1 POP PUSH2 0x2D85 PUSH1 0x0 DUP4 ADD DUP5 PUSH2 0x29D2 JUMP JUMPDEST SWAP3 SWAP2 POP POP JUMP JUMPDEST PUSH1 0x0 PUSH1 0x20 DUP3 ADD SWAP1 POP DUP2 DUP2 SUB PUSH1 0x0 DUP4 ADD MSTORE PUSH2 0x2DA5 DUP2 DUP5 PUSH2 0x2A1A JUMP JUMPDEST SWAP1 POP SWAP3 SWAP2 POP POP JUMP JUMPDEST PUSH1 0x0 PUSH1 0x20 DUP3 ADD SWAP1 POP DUP2 DUP2 SUB PUSH1 0x0 DUP4 ADD MSTORE PUSH2 0x2DC6 DUP2 PUSH2 0x2A84 JUMP JUMPDEST SWAP1 POP SWAP2 SWAP1 POP JUMP JUMPDEST PUSH1 0x0 PUSH1 0x20 DUP3 ADD SWAP1 POP DUP2 DUP2 SUB PUSH1 0x0 DUP4 ADD MSTORE PUSH2 0x2DE6 DUP2 PUSH2 0x2AA7 JUMP JUMPDEST SWAP1 POP SWAP2 SWAP1 POP JUMP JUMPDEST PUSH1 0x0 PUSH1 0x20 DUP3 ADD SWAP1 POP DUP2 DUP2 SUB PUSH1 0x0 DUP4 ADD MSTORE PUSH2 0x2E06 DUP2 PUSH2 0x2ACA JUMP JUMPDEST SWAP1 POP SWAP2 SWAP1 POP JUMP JUMPDEST PUSH1 0x0 PUSH1 0x20 DUP3 ADD SWAP1 POP DUP2 DUP2 SUB PUSH1 0x0 DUP4 ADD MSTORE PUSH2 0x2E26 DUP2 PUSH2 0x2AED JUMP JUMPDEST SWAP1 POP SWAP2 SWAP1 POP JUMP JUMPDEST PUSH1 0x0 PUSH1 0x20 DUP3 ADD SWAP1 POP DUP2 DUP2 SUB PUSH1 0x0 DUP4 ADD MSTORE PUSH2 0x2E46 DUP2 PUSH2 0x2B10 JUMP JUMPDEST SWAP1 POP SWAP2 SWAP1 POP JUMP JUMPDEST PUSH1 0x0 PUSH1 0x20 DUP3 ADD SWAP1 POP DUP2 DUP2 SUB PUSH1 0x0 DUP4 ADD MSTORE PUSH2 0x2E66 DUP2 PUSH2 0x2B33 JUMP JUMPDEST SWAP1 POP SWAP2 SWAP1 POP JUMP JUMPDEST PUSH1 0x0 PUSH1 0x20 DUP3 ADD SWAP1 POP DUP2 DUP2 SUB PUSH1 0x0 DUP4 ADD MSTORE PUSH2 0x2E86 DUP2 PUSH2 0x2B56 JUMP JUMPDEST SWAP1 POP SWAP2 SWAP1 POP JUMP JUMPDEST PUSH1 0x0 PUSH1 0x20 DUP3 ADD SWAP1 POP DUP2 DUP2 SUB PUSH1 0x0 DUP4 ADD MSTORE PUSH2 0x2EA6 DUP2 PUSH2 0x2B79 JUMP JUMPDEST SWAP1 POP SWAP2 SWAP1 POP JUMP JUMPDEST PUSH1 0x0 PUSH1 0x20 DUP3 ADD SWAP1 POP DUP2 DUP2 SUB PUSH1 0x0 DUP4 ADD MSTORE PUSH2 0x2EC6 DUP2 PUSH2 0x2B9C JUMP JUMPDEST SWAP1 POP SWAP2 SWAP1 POP JUMP JUMPDEST PUSH1 0x0 PUSH1 0x20 DUP3 ADD SWAP1 POP DUP2 DUP2 SUB PUSH1 0x0 DUP4 ADD MSTORE PUSH2 0x2EE6 DUP2 PUSH2 0x2BBF JUMP JUMPDEST SWAP1 POP SWAP2 SWAP1 POP JUMP JUMPDEST PUSH1 0x0 PUSH1 0x20 DUP3 ADD SWAP1 POP DUP2 DUP2 SUB PUSH1 0x0 DUP4 ADD MSTORE PUSH2 0x2F06 DUP2 PUSH2 0x2BE2 JUMP JUMPDEST SWAP1 POP SWAP2 SWAP1 POP JUMP JUMPDEST PUSH1 0x0 PUSH1 0x20 DUP3 ADD SWAP1 POP PUSH2 0x2F22 PUSH1 0x0 DUP4 ADD DUP5 PUSH2 0x2C14 JUMP JUMPDEST SWAP3 SWAP2 POP POP JUMP JUMPDEST PUSH1 0x0 PUSH2 0x160 DUP3 ADD SWAP1 POP PUSH2 0x2F3E PUSH1 0x0 DUP4 ADD DUP15 PUSH2 0x2C14 JUMP JUMPDEST DUP2 DUP2 SUB PUSH1 0x20 DUP4 ADD MSTORE PUSH2 0x2F50 DUP2 DUP14 PUSH2 0x2A1A JUMP JUMPDEST SWAP1 POP DUP2 DUP2 SUB PUSH1 0x40 DUP4 ADD MSTORE PUSH2 0x2F64 DUP2 DUP13 PUSH2 0x2A1A JUMP JUMPDEST SWAP1 POP DUP2 DUP2 SUB PUSH1 0x60 DUP4 ADD MSTORE PUSH2 0x2F78 DUP2 DUP12 PUSH2 0x2A1A JUMP JUMPDEST SWAP1 POP DUP2 DUP2 SUB PUSH1 0x80 DUP4 ADD MSTORE PUSH2 0x2F8C DUP2 DUP11 PUSH2 0x2A1A JUMP JUMPDEST SWAP1 POP DUP2 DUP2 SUB PUSH1 0xA0 DUP4 ADD MSTORE PUSH2 0x2FA0 DUP2 DUP10 PUSH2 0x2A1A JUMP JUMPDEST SWAP1 POP DUP2 DUP2 SUB PUSH1 0xC0 DUP4 ADD MSTORE PUSH2 0x2FB4 DUP2 DUP9 PUSH2 0x2A1A JUMP JUMPDEST SWAP1 POP DUP2 DUP2 SUB PUSH1 0xE0 DUP4 ADD MSTORE PUSH2 0x2FC8 DUP2 DUP8 PUSH2 0x2A1A JUMP JUMPDEST SWAP1 POP PUSH2 0x2FD8 PUSH2 0x100 DUP4 ADD DUP7 PUSH2 0x2965 JUMP JUMPDEST PUSH2 0x2FE6 PUSH2 0x120 DUP4 ADD DUP6 PUSH2 0x29D2 JUMP JUMPDEST DUP2 DUP2 SUB PUSH2 0x140 DUP4 ADD MSTORE PUSH2 0x2FF9 DUP2 DUP5 PUSH2 0x2A1A JUMP JUMPDEST SWAP1 POP SWAP13 SWAP12 POP POP POP POP POP POP POP POP POP POP POP POP JUMP JUMPDEST PUSH1 0x0 PUSH1 0x40 DUP3 ADD SWAP1 POP PUSH2 0x3020 PUSH1 0x0 DUP4 ADD DUP6 PUSH2 0x2C14 JUMP JUMPDEST PUSH2 0x302D PUSH1 0x20 DUP4 ADD DUP5 PUSH2 0x2C14 JUMP JUMPDEST SWAP4 SWAP3 POP POP POP JUMP JUMPDEST PUSH1 0x0 PUSH2 0x303E PUSH2 0x304F JUMP JUMPDEST SWAP1 POP PUSH2 0x304A DUP3 DUP3 PUSH2 0x32CD JUMP JUMPDEST SWAP2 SWAP1 POP JUMP JUMPDEST PUSH1 0x0 PUSH1 0x40 MLOAD SWAP1 POP SWAP1 JUMP JUMPDEST PUSH1 0x0 PUSH8 0xFFFFFFFFFFFFFFFF DUP3 GT ISZERO PUSH2 0x3074 JUMPI PUSH2 0x3073 PUSH2 0x33D4 JUMP JUMPDEST JUMPDEST PUSH1 0x20 DUP3 MUL SWAP1 POP PUSH1 0x20 DUP2 ADD SWAP1 POP SWAP2 SWAP1 POP JUMP JUMPDEST PUSH1 0x0 PUSH8 0xFFFFFFFFFFFFFFFF DUP3 GT ISZERO PUSH2 0x30A0 JUMPI PUSH2 0x309F PUSH2 0x33D4 JUMP JUMPDEST JUMPDEST PUSH1 0x20 DUP3 MUL SWAP1 POP PUSH1 0x20 DUP2 ADD SWAP1 POP SWAP2 SWAP1 POP JUMP JUMPDEST PUSH1 0x0 PUSH8 0xFFFFFFFFFFFFFFFF DUP3 GT ISZERO PUSH2 0x30CC JUMPI PUSH2 0x30CB PUSH2 0x33D4 JUMP JUMPDEST JUMPDEST PUSH2 0x30D5 DUP3 PUSH2 0x343E JUMP JUMPDEST SWAP1 POP PUSH1 0x20 DUP2 ADD SWAP1 POP SWAP2 SWAP1 POP JUMP JUMPDEST PUSH1 0x0 PUSH8 0xFFFFFFFFFFFFFFFF DUP3 GT ISZERO PUSH2 0x30FD JUMPI PUSH2 0x30FC PUSH2 0x33D4 JUMP JUMPDEST JUMPDEST PUSH2 0x3106 DUP3 PUSH2 0x343E JUMP JUMPDEST SWAP1 POP PUSH1 0x20 DUP2 ADD SWAP1 POP SWAP2 SWAP1 POP JUMP JUMPDEST PUSH1 0x0 DUP2 SWAP1 POP PUSH1 0x20 DUP3 ADD SWAP1 POP SWAP2 SWAP1 POP JUMP JUMPDEST PUSH1 0x0 DUP2 MLOAD SWAP1 POP SWAP2 SWAP1 POP JUMP JUMPDEST PUSH1 0x0 DUP2 MLOAD SWAP1 POP SWAP2 SWAP1 POP JUMP JUMPDEST PUSH1 0x0 DUP2 MLOAD SWAP1 POP SWAP2 SWAP1 POP JUMP JUMPDEST PUSH1 0x0 PUSH1 0x20 DUP3 ADD SWAP1 POP SWAP2 SWAP1 POP JUMP JUMPDEST PUSH1 0x0 DUP3 DUP3 MSTORE PUSH1 0x20 DUP3 ADD SWAP1 POP SWAP3 SWAP2 POP POP JUMP JUMPDEST PUSH1 0x0 DUP3 DUP3 MSTORE PUSH1 0x20 DUP3 ADD SWAP1 POP SWAP3 SWAP2 POP POP JUMP JUMPDEST PUSH1 0x0 DUP3 DUP3 MSTORE PUSH1 0x20 DUP3 ADD SWAP1 POP SWAP3 SWAP2 POP POP JUMP JUMPDEST PUSH1 0x0 DUP2 SWAP1 POP SWAP3 SWAP2 POP POP JUMP JUMPDEST PUSH1 0x0 PUSH2 0x319A DUP3 PUSH2 0x324F JUMP JUMPDEST SWAP2 POP PUSH2 0x31A5 DUP4 PUSH2 0x324F JUMP JUMPDEST SWAP3 POP DUP3 PUSH32 0xFFFFFFFFFFFFFFFFFFFFFFFFFFFFFFFFFFFFFFFFFFFFFFFFFFFFFFFFFFFFFFFF SUB DUP3 GT ISZERO PUSH2 0x31DA JUMPI PUSH2 0x31D9 PUSH2 0x3347 JUMP JUMPDEST JUMPDEST DUP3 DUP3 ADD SWAP1 POP SWAP3 SWAP2 POP POP JUMP JUMPDEST PUSH1 0x0 PUSH2 0x31F0 DUP3 PUSH2 0x322F JUMP JUMPDEST SWAP1 POP SWAP2 SWAP1 POP JUMP JUMPDEST PUSH1 0x0 DUP2 ISZERO ISZERO SWAP1 POP SWAP2 SWAP1 POP JUMP JUMPDEST PUSH1 0x0 PUSH32 0xFFFFFFFF00000000000000000000000000000000000000000000000000000000 DUP3 AND SWAP1 POP SWAP2 SWAP1 POP JUMP JUMPDEST PUSH1 0x0 PUSH20 0xFFFFFFFFFFFFFFFFFFFFFFFFFFFFFFFFFFFFFFFF DUP3 AND SWAP1 POP SWAP2 SWAP1 POP JUMP JUMPDEST PUSH1 0x0 DUP2 SWAP1 POP SWAP2 SWAP1 POP JUMP JUMPDEST DUP3 DUP2 DUP4 CALLDATACOPY PUSH1 0x0 DUP4 DUP4 ADD MSTORE POP POP POP JUMP JUMPDEST PUSH1 0x0 JUMPDEST DUP4 DUP2 LT ISZERO PUSH2 0x3286 JUMPI DUP1 DUP3 ADD MLOAD DUP2 DUP5 ADD MSTORE PUSH1 0x20 DUP2 ADD SWAP1 POP PUSH2 0x326B JUMP JUMPDEST DUP4 DUP2 GT ISZERO PUSH2 0x3295 JUMPI PUSH1 0x0 DUP5 DUP5 ADD MSTORE JUMPDEST POP POP POP POP JUMP JUMPDEST PUSH1 0x0 PUSH1 0x2 DUP3 DIV SWAP1 POP PUSH1 0x1 DUP3 AND DUP1 PUSH2 0x32B3 JUMPI PUSH1 0x7F DUP3 AND SWAP2 POP JUMPDEST PUSH1 0x20 DUP3 LT DUP2 EQ ISZERO PUSH2 0x32C7 JUMPI PUSH2 0x32C6 PUSH2 0x3376 JUMP JUMPDEST JUMPDEST POP SWAP2 SWAP1 POP JUMP JUMPDEST PUSH2 0x32D6 DUP3 PUSH2 0x343E JUMP JUMPDEST DUP2 ADD DUP2 DUP2 LT PUSH8 0xFFFFFFFFFFFFFFFF DUP3 GT OR ISZERO PUSH2 0x32F5 JUMPI PUSH2 0x32F4 PUSH2 0x33D4 JUMP JUMPDEST JUMPDEST DUP1 PUSH1 0x40 MSTORE POP POP POP JUMP JUMPDEST PUSH1 0x0 PUSH2 0x3309 DUP3 PUSH2 0x324F JUMP JUMPDEST SWAP2 POP PUSH32 0xFFFFFFFFFFFFFFFFFFFFFFFFFFFFFFFFFFFFFFFFFFFFFFFFFFFFFFFFFFFFFFFF DUP3 EQ ISZERO PUSH2 0x333C JUMPI PUSH2 0x333B PUSH2 0x3347 JUMP JUMPDEST JUMPDEST PUSH1 0x1 DUP3 ADD SWAP1 POP SWAP2 SWAP1 POP JUMP JUMPDEST PUSH32 0x4E487B7100000000000000000000000000000000000000000000000000000000 PUSH1 0x0 MSTORE PUSH1 0x11 PUSH1 0x4 MSTORE PUSH1 0x24 PUSH1 0x0 REVERT JUMPDEST PUSH32 0x4E487B7100000000000000000000000000000000000000000000000000000000 PUSH1 0x0 MSTORE PUSH1 0x22 PUSH1 0x4 MSTORE PUSH1 0x24 PUSH1 0x0 REVERT JUMPDEST PUSH32 0x4E487B7100000000000000000000000000000000000000000000000000000000 PUSH1 0x0 MSTORE PUSH1 0x32 PUSH1 0x4 MSTORE PUSH1 0x24 PUSH1 0x0 REVERT JUMPDEST PUSH32 0x4E487B7100000000000000000000000000000000000000000000000000000000 PUSH1 0x0 MSTORE PUSH1 0x41 PUSH1 0x4 MSTORE PUSH1 0x24 PUSH1 0x0 REVERT JUMPDEST PUSH1 0x0 PUSH1 0x3 RETURNDATASIZE GT ISZERO PUSH2 0x3422 JUMPI PUSH1 0x4 PUSH1 0x0 DUP1 RETURNDATACOPY PUSH2 0x341F PUSH1 0x0 MLOAD PUSH2 0x344F JUMP JUMPDEST SWAP1 POP JUMPDEST SWAP1 JUMP JUMPDEST PUSH1 0x0 DUP1 REVERT JUMPDEST PUSH1 0x0 DUP1 REVERT JUMPDEST PUSH1 0x0 DUP1 REVERT JUMPDEST PUSH1 0x0 DUP1 REVERT JUMPDEST PUSH1 0x0 DUP1 REVERT JUMPDEST PUSH1 0x0 PUSH1 0x1F NOT PUSH1 0x1F DUP4 ADD AND SWAP1 POP SWAP2 SWAP1 POP JUMP JUMPDEST PUSH1 0x0 DUP2 PUSH1 0xE0 SHR SWAP1 POP SWAP2 SWAP1 POP JUMP JUMPDEST PUSH32 0x455243313135353A207472616E7366657220746F206E6F6E2045524331313535 PUSH1 0x0 DUP3 ADD MSTORE PUSH32 0x526563656976657220696D706C656D656E746572000000000000000000000000 PUSH1 0x20 DUP3 ADD MSTORE POP JUMP JUMPDEST PUSH32 0x455243313135353A204552433131353552656365697665722072656A65637465 PUSH1 0x0 DUP3 ADD MSTORE PUSH32 0x6420746F6B656E73000000000000000000000000000000000000000000000000 PUSH1 0x20 DUP3 ADD MSTORE POP JUMP JUMPDEST PUSH32 0x455243313135353A2062616C616E636520717565727920666F7220746865207A PUSH1 0x0 DUP3 ADD MSTORE PUSH32 0x65726F2061646472657373000000000000000000000000000000000000000000 PUSH1 0x20 DUP3 ADD MSTORE POP JUMP JUMPDEST PUSH32 0x455243313135353A2063616C6C6572206973206E6F74206F776E6572206E6F72 PUSH1 0x0 DUP3 ADD MSTORE PUSH32 0x20617070726F7665640000000000000000000000000000000000000000000000 PUSH1 0x20 DUP3 ADD MSTORE POP JUMP JUMPDEST PUSH32 0x455243313135353A207472616E7366657220746F20746865207A65726F206164 PUSH1 0x0 DUP3 ADD MSTORE PUSH32 0x6472657373000000000000000000000000000000000000000000000000000000 PUSH1 0x20 DUP3 ADD MSTORE POP JUMP JUMPDEST PUSH32 0x455243313135353A207472616E736665722063616C6C6572206973206E6F7420 PUSH1 0x0 DUP3 ADD MSTORE PUSH32 0x6F776E6572206E6F7220617070726F7665640000000000000000000000000000 PUSH1 0x20 DUP3 ADD MSTORE POP JUMP JUMPDEST PUSH32 0x455243313135353A20696E73756666696369656E742062616C616E636520666F PUSH1 0x0 DUP3 ADD MSTORE PUSH32 0x72207472616E7366657200000000000000000000000000000000000000000000 PUSH1 0x20 DUP3 ADD MSTORE POP JUMP JUMPDEST PUSH32 0x455243313135353A2073657474696E6720617070726F76616C20737461747573 PUSH1 0x0 DUP3 ADD MSTORE PUSH32 0x20666F722073656C660000000000000000000000000000000000000000000000 PUSH1 0x20 DUP3 ADD MSTORE POP JUMP JUMPDEST PUSH32 0x455243313135353A206163636F756E747320616E6420696473206C656E677468 PUSH1 0x0 DUP3 ADD MSTORE PUSH32 0x206D69736D617463680000000000000000000000000000000000000000000000 PUSH1 0x20 DUP3 ADD MSTORE POP JUMP JUMPDEST PUSH32 0x455243313135353A2069647320616E6420616D6F756E7473206C656E67746820 PUSH1 0x0 DUP3 ADD MSTORE PUSH32 0x6D69736D61746368000000000000000000000000000000000000000000000000 PUSH1 0x20 DUP3 ADD MSTORE POP JUMP JUMPDEST PUSH32 0x455243313135353A206D696E7420746F20746865207A65726F20616464726573 PUSH1 0x0 DUP3 ADD MSTORE PUSH32 0x7300000000000000000000000000000000000000000000000000000000000000 PUSH1 0x20 DUP3 ADD MSTORE POP JUMP JUMPDEST PUSH1 0x0 PUSH1 0x44 RETURNDATASIZE LT ISZERO PUSH2 0x37D1 JUMPI PUSH2 0x3854 JUMP JUMPDEST PUSH2 0x37D9 PUSH2 0x304F JUMP JUMPDEST PUSH1 0x4 RETURNDATASIZE SUB PUSH1 0x4 DUP3 RETURNDATACOPY DUP1 MLOAD RETURNDATASIZE PUSH1 0x24 DUP3 ADD GT PUSH8 0xFFFFFFFFFFFFFFFF DUP3 GT OR ISZERO PUSH2 0x3801 JUMPI POP POP PUSH2 0x3854 JUMP JUMPDEST DUP1 DUP3 ADD DUP1 MLOAD PUSH8 0xFFFFFFFFFFFFFFFF DUP2 GT ISZERO PUSH2 0x381F JUMPI POP POP POP POP PUSH2 0x3854 JUMP JUMPDEST DUP1 PUSH1 0x20 DUP4 ADD ADD PUSH1 0x4 RETURNDATASIZE SUB DUP6 ADD DUP2 GT ISZERO PUSH2 0x383C JUMPI POP POP POP POP POP PUSH2 0x3854 JUMP JUMPDEST PUSH2 0x384B DUP3 PUSH1 0x20 ADD DUP6 ADD DUP7 PUSH2 0x32CD JUMP JUMPDEST DUP3 SWAP6 POP POP POP POP POP POP JUMPDEST SWAP1 JUMP JUMPDEST PUSH2 0x3860 DUP2 PUSH2 0x31E5 JUMP JUMPDEST DUP2 EQ PUSH2 0x386B JUMPI PUSH1 0x0 DUP1 REVERT JUMPDEST POP JUMP JUMPDEST PUSH2 0x3877 DUP2 PUSH2 0x31F7 JUMP JUMPDEST DUP2 EQ PUSH2 0x3882 JUMPI PUSH1 0x0 DUP1 REVERT JUMPDEST POP JUMP JUMPDEST PUSH2 0x388E DUP2 PUSH2 0x3203 JUMP JUMPDEST DUP2 EQ PUSH2 0x3899 JUMPI PUSH1 0x0 DUP1 REVERT JUMPDEST POP JUMP JUMPDEST PUSH2 0x38A5 DUP2 PUSH2 0x324F JUMP JUMPDEST DUP2 EQ PUSH2 0x38B0 JUMPI PUSH1 0x0 DUP1 REVERT JUMPDEST POP JUMP INVALID LOG2 PUSH5 0x6970667358 0x22 SLT KECCAK256 CALL MLOAD PUSH23 0x1D3409312C2FE387959A53E60F94B5AC6419375C5EF8F PUSH26 0xBA1EB6352164736F6C6343000807003300000000000000000000 "
        },
        "methodIdentifiers": {
          "Imagelist(uint256)": "67e2ddb8",
          "assetIds(string)": "4889ca90",
          "balanceOf(address,uint256)": "00fdd58e",
          "balanceOfBatch(address[],uint256[])": "4e1273f4",
          "buy(uint256,address)": "7deb6025",
          "isApprovedForAll(address,address)": "e985e9c5",
          "mintNFT(string,string,string,string,string,string,string,address,string)": "4ec71ef5",
          "platform()": "4bde38c8",
          "putOnSale(uint256)": "9dbcfd6f",
          "safeBatchTransferFrom(address,address,uint256[],uint256[],bytes)": "2eb2c2d6",
          "safeTransferFrom(address,address,uint256,uint256,bytes)": "f242432a",
          "setApprovalForAll(address,bool)": "a22cb465",
          "supportsInterface(bytes4)": "01ffc9a7",
          "transfer(string,address)": "fbf58b3e",
          "uri(uint256)": "0e89341c"
        }
      }
    }
  }
}