{
  "_format": "hh-sol-artifact-1",
  "contractName": "MyNFT",
  "sourceName": "contracts/MyNft.sol",
  "abi": [
    {
      "inputs": [],
      "stateMutability": "nonpayable",
      "type": "constructor"
    },
    {
      "anonymous": false,
      "inputs": [
        {
          "indexed": true,
          "internalType": "address",
          "name": "account",
          "type": "address"
        },
        {
          "indexed": true,
          "internalType": "address",
          "name": "operator",
          "type": "address"
        },
        {
          "indexed": false,
          "internalType": "bool",
          "name": "approved",
          "type": "bool"
        }
      ],
      "name": "ApprovalForAll",
      "type": "event"
    },
    {
      "anonymous": false,
      "inputs": [
        {
          "indexed": true,
          "internalType": "address",
          "name": "operator",
          "type": "address"
        },
        {
          "indexed": true,
          "internalType": "address",
          "name": "from",
          "type": "address"
        },
        {
          "indexed": true,
          "internalType": "address",
          "name": "to",
          "type": "address"
        },
        {
          "indexed": false,
          "internalType": "uint256[]",
          "name": "ids",
          "type": "uint256[]"
        },
        {
          "indexed": false,
          "internalType": "uint256[]",
          "name": "values",
          "type": "uint256[]"
        }
      ],
      "name": "TransferBatch",
      "type": "event"
    },
    {
      "anonymous": false,
      "inputs": [
        {
          "indexed": true,
          "internalType": "address",
          "name": "operator",
          "type": "address"
        },
        {
          "indexed": true,
          "internalType": "address",
          "name": "from",
          "type": "address"
        },
        {
          "indexed": true,
          "internalType": "address",
          "name": "to",
          "type": "address"
        },
        {
          "indexed": false,
          "internalType": "uint256",
          "name": "id",
          "type": "uint256"
        },
        {
          "indexed": false,
          "internalType": "uint256",
          "name": "value",
          "type": "uint256"
        }
      ],
      "name": "TransferSingle",
      "type": "event"
    },
    {
      "anonymous": false,
      "inputs": [
        {
          "indexed": false,
          "internalType": "string",
          "name": "value",
          "type": "string"
        },
        {
          "indexed": true,
          "internalType": "uint256",
          "name": "id",
          "type": "uint256"
        }
      ],
      "name": "URI",
      "type": "event"
    },
    {
      "inputs": [
        {
          "internalType": "uint256",
          "name": "",
          "type": "uint256"
        }
      ],
      "name": "Imagelist",
      "outputs": [
        {
          "internalType": "uint256",
          "name": "id",
          "type": "uint256"
        },
        {
          "internalType": "string",
          "name": "assetName",
          "type": "string"
        },
        {
          "internalType": "uint256",
          "name": "assetQuantity",
          "type": "uint256"
        },
        {
          "internalType": "string",
          "name": "assetUom",
          "type": "string"
        },
        {
          "internalType": "string",
          "name": "assetID",
          "type": "string"
        },
        {
          "internalType": "uint256",
          "name": "balance",
          "type": "uint256"
        },
        {
          "internalType": "string",
          "name": "description",
          "type": "string"
        },
        {
          "internalType": "string",
          "name": "url",
          "type": "string"
        },
        {
          "internalType": "string",
          "name": "datetime",
          "type": "string"
        },
        {
          "internalType": "address",
          "name": "owner",
          "type": "address"
        },
        {
          "internalType": "bool",
          "name": "sale",
          "type": "bool"
        },
        {
          "internalType": "string",
          "name": "provinance_hash",
          "type": "string"
        }
      ],
      "stateMutability": "view",
      "type": "function"
    },
    {
      "inputs": [
        {
          "internalType": "uint256",
          "name": "",
          "type": "uint256"
        }
      ],
      "name": "NFTid_to_assetName",
      "outputs": [
        {
          "internalType": "string",
          "name": "",
          "type": "string"
        }
      ],
      "stateMutability": "view",
      "type": "function"
    },
    {
      "inputs": [
        {
          "internalType": "string",
          "name": "",
          "type": "string"
        }
      ],
      "name": "assetIDtoNFTid",
      "outputs": [
        {
          "internalType": "uint256",
          "name": "",
          "type": "uint256"
        }
      ],
      "stateMutability": "view",
      "type": "function"
    },
    {
      "inputs": [
        {
          "internalType": "address",
          "name": "account",
          "type": "address"
        },
        {
          "internalType": "uint256",
          "name": "id",
          "type": "uint256"
        }
      ],
      "name": "balanceOf",
      "outputs": [
        {
          "internalType": "uint256",
          "name": "",
          "type": "uint256"
        }
      ],
      "stateMutability": "view",
      "type": "function"
    },
    {
      "inputs": [
        {
          "internalType": "address[]",
          "name": "accounts",
          "type": "address[]"
        },
        {
          "internalType": "uint256[]",
          "name": "ids",
          "type": "uint256[]"
        }
      ],
      "name": "balanceOfBatch",
      "outputs": [
        {
          "internalType": "uint256[]",
          "name": "",
          "type": "uint256[]"
        }
      ],
      "stateMutability": "view",
      "type": "function"
    },
    {
      "inputs": [
        {
          "internalType": "string",
          "name": "assetID",
          "type": "string"
        },
        {
          "internalType": "address",
          "name": "from",
          "type": "address"
        },
        {
          "internalType": "address",
          "name": "to",
          "type": "address"
        },
        {
          "internalType": "uint256",
          "name": "amount",
          "type": "uint256"
        }
      ],
      "name": "buy",
      "outputs": [
        {
          "internalType": "uint256",
          "name": "",
          "type": "uint256"
        }
      ],
      "stateMutability": "payable",
      "type": "function"
    },
    {
      "inputs": [
        {
          "internalType": "string",
          "name": "assetID",
          "type": "string"
        }
      ],
      "name": "getId",
      "outputs": [
        {
          "internalType": "uint256",
          "name": "",
          "type": "uint256"
        }
      ],
      "stateMutability": "view",
      "type": "function"
    },
    {
      "inputs": [
        {
          "internalType": "address",
          "name": "account",
          "type": "address"
        },
        {
          "internalType": "address",
          "name": "operator",
          "type": "address"
        }
      ],
      "name": "isApprovedForAll",
      "outputs": [
        {
          "internalType": "bool",
          "name": "",
          "type": "bool"
        }
      ],
      "stateMutability": "view",
      "type": "function"
    },
    {
      "inputs": [],
      "name": "le",
      "outputs": [
        {
          "internalType": "uint256",
          "name": "",
          "type": "uint256"
        }
      ],
      "stateMutability": "view",
      "type": "function"
    },
    {
      "inputs": [
        {
          "internalType": "string",
          "name": "assetName",
          "type": "string"
        },
        {
          "internalType": "uint256",
          "name": "assetQuantity",
          "type": "uint256"
        },
        {
          "internalType": "string",
          "name": "assetUom",
          "type": "string"
        },
        {
          "internalType": "string",
          "name": "assetID",
          "type": "string"
        },
        {
          "internalType": "string",
          "name": "description",
          "type": "string"
        },
        {
          "internalType": "string",
          "name": "url",
          "type": "string"
        },
        {
          "internalType": "string",
          "name": "datetime",
          "type": "string"
        },
        {
          "internalType": "address",
          "name": "owner",
          "type": "address"
        },
        {
          "internalType": "string",
          "name": "provinance_hash",
          "type": "string"
        }
      ],
      "name": "mintNFT",
      "outputs": [
        {
          "internalType": "uint256",
          "name": "",
          "type": "uint256"
        }
      ],
      "stateMutability": "nonpayable",
      "type": "function"
    },
    {
      "inputs": [],
      "name": "name",
      "outputs": [
        {
          "internalType": "string",
          "name": "",
          "type": "string"
        }
      ],
      "stateMutability": "view",
      "type": "function"
    },
    {
      "inputs": [],
      "name": "platform",
      "outputs": [
        {
          "internalType": "address",
          "name": "",
          "type": "address"
        }
      ],
      "stateMutability": "view",
      "type": "function"
    },
    {
      "inputs": [
        {
          "internalType": "string",
          "name": "assetID",
          "type": "string"
        }
      ],
      "name": "putOnSale",
      "outputs": [],
      "stateMutability": "nonpayable",
      "type": "function"
    },
    {
      "inputs": [
        {
          "internalType": "address",
          "name": "from",
          "type": "address"
        },
        {
          "internalType": "address",
          "name": "to",
          "type": "address"
        },
        {
          "internalType": "uint256[]",
          "name": "ids",
          "type": "uint256[]"
        },
        {
          "internalType": "uint256[]",
          "name": "amounts",
          "type": "uint256[]"
        },
        {
          "internalType": "bytes",
          "name": "data",
          "type": "bytes"
        }
      ],
      "name": "safeBatchTransferFrom",
      "outputs": [],
      "stateMutability": "nonpayable",
      "type": "function"
    },
    {
      "inputs": [
        {
          "internalType": "address",
          "name": "from",
          "type": "address"
        },
        {
          "internalType": "address",
          "name": "to",
          "type": "address"
        },
        {
          "internalType": "uint256",
          "name": "id",
          "type": "uint256"
        },
        {
          "internalType": "uint256",
          "name": "amount",
          "type": "uint256"
        },
        {
          "internalType": "bytes",
          "name": "data",
          "type": "bytes"
        }
      ],
      "name": "safeTransferFrom",
      "outputs": [],
      "stateMutability": "nonpayable",
      "type": "function"
    },
    {
      "inputs": [
        {
          "internalType": "address",
          "name": "operator",
          "type": "address"
        },
        {
          "internalType": "bool",
          "name": "approved",
          "type": "bool"
        }
      ],
      "name": "setApprovalForAll",
      "outputs": [],
      "stateMutability": "nonpayable",
      "type": "function"
    },
    {
      "inputs": [
        {
          "internalType": "bytes4",
          "name": "interfaceId",
          "type": "bytes4"
        }
      ],
      "name": "supportsInterface",
      "outputs": [
        {
          "internalType": "bool",
          "name": "",
          "type": "bool"
        }
      ],
      "stateMutability": "view",
      "type": "function"
    },
    {
      "inputs": [],
      "name": "symbol",
      "outputs": [
        {
          "internalType": "string",
          "name": "",
          "type": "string"
        }
      ],
      "stateMutability": "view",
      "type": "function"
    },
    {
      "inputs": [
        {
          "internalType": "string",
          "name": "assetID",
          "type": "string"
        },
        {
          "internalType": "address",
          "name": "from",
          "type": "address"
        },
        {
          "internalType": "address",
          "name": "to",
          "type": "address"
        },
        {
          "internalType": "uint256",
          "name": "amount",
          "type": "uint256"
        }
      ],
      "name": "transfer",
      "outputs": [
        {
          "internalType": "uint256",
          "name": "",
          "type": "uint256"
        }
      ],
      "stateMutability": "nonpayable",
      "type": "function"
    },
    {
      "inputs": [
        {
          "internalType": "uint256",
          "name": "",
          "type": "uint256"
        }
      ],
      "name": "uri",
      "outputs": [
        {
          "internalType": "string",
          "name": "",
          "type": "string"
        }
      ],
      "stateMutability": "view",
      "type": "function"
    }
  ],
  "bytecode": "0x60806040523480156200001157600080fd5b506040518060400160405280600481526020017f616263640000000000000000000000000000000000000000000000000000000081525062000059816200013d60201b60201c565b5033600360006101000a81548173ffffffffffffffffffffffffffffffffffffffff021916908373ffffffffffffffffffffffffffffffffffffffff1602179055506040518060400160405280600781526020017f736e61707065720000000000000000000000000000000000000000000000000081525060079080519060200190620000e892919062000159565b506040518060400160405280600781526020017f534e415050455200000000000000000000000000000000000000000000000000815250600890805190602001906200013692919062000159565b506200026e565b80600290805190602001906200015592919062000159565b5050565b828054620001679062000209565b90600052602060002090601f0160209004810192826200018b5760008555620001d7565b82601f10620001a657805160ff1916838001178555620001d7565b82800160010185558215620001d7579182015b82811115620001d6578251825591602001919060010190620001b9565b5b509050620001e69190620001ea565b5090565b5b8082111562000205576000816000905550600101620001eb565b5090565b600060028204905060018216806200022257607f821691505b602082108114156200023957620002386200023f565b5b50919050565b7f4e487b7100000000000000000000000000000000000000000000000000000000600052602260045260246000fd5b613d03806200027e6000396000f3fe60806040526004361061011e5760003560e01c806395d89b41116100a0578063d32e0f2711610064578063d32e0f2714610463578063dcc7837714610493578063e985e9c5146104be578063f242432a146104fb578063fef8b6fe146105245761011e565b806395d89b4114610358578063a22cb46514610383578063bee51f3b146103ac578063bef16d89146103e9578063c4c7d682146104265761011e565b80632eb2c2d6116100e75780632eb2c2d6146102425780634bde38c81461026b5780634e1273f414610296578063595c685d146102d357806367e2ddb8146103105761011e565b8062fdd58e1461012357806301ffc9a71461016057806306fdde031461019d5780630e89341c146101c85780632952438e14610205575b600080fd5b34801561012f57600080fd5b5061014a6004803603810190610145919061295a565b61054d565b60405161015791906132f6565b60405180910390f35b34801561016c57600080fd5b5061018760048036038101906101829190612a12565b610616565b6040516101949190613139565b60405180910390f35b3480156101a957600080fd5b506101b26106f8565b6040516101bf9190613154565b60405180910390f35b3480156101d457600080fd5b506101ef60048036038101906101ea9190612cc6565b610786565b6040516101fc9190613154565b60405180910390f35b34801561021157600080fd5b5061022c60048036038101906102279190612ab5565b61081a565b60405161023991906132f6565b60405180910390f35b34801561024e57600080fd5b50610269600480360381019061026491906127b4565b61091e565b005b34801561027757600080fd5b506102806109bf565b60405161028d9190613003565b60405180910390f35b3480156102a257600080fd5b506102bd60048036038101906102b8919061299a565b6109e5565b6040516102ca91906130e0565b60405180910390f35b3480156102df57600080fd5b506102fa60048036038101906102f59190612b38565b610afe565b60405161030791906132f6565b60405180910390f35b34801561031c57600080fd5b5061033760048036038101906103329190612cc6565b610d7d565b60405161034f9c9b9a99989796959493929190613311565b60405180910390f35b34801561036457600080fd5b5061036d6111d2565b60405161037a9190613154565b60405180910390f35b34801561038f57600080fd5b506103aa60048036038101906103a5919061291a565b611260565b005b3480156103b857600080fd5b506103d360048036038101906103ce9190612a6c565b611276565b6040516103e091906132f6565b60405180910390f35b3480156103f557600080fd5b50610410600480360381019061040b9190612cc6565b6112a3565b60405161041d9190613154565b60405180910390f35b34801561043257600080fd5b5061044d60048036038101906104489190612a6c565b611343565b60405161045a91906132f6565b60405180910390f35b61047d60048036038101906104789190612ab5565b611371565b60405161048a91906132f6565b60405180910390f35b34801561049f57600080fd5b506104a8611475565b6040516104b591906132f6565b60405180910390f35b3480156104ca57600080fd5b506104e560048036038101906104e09190612774565b611487565b6040516104f29190613139565b60405180910390f35b34801561050757600080fd5b50610522600480360381019061051d9190612883565b61151b565b005b34801561053057600080fd5b5061054b60048036038101906105469190612a6c565b6115bc565b005b60008073ffffffffffffffffffffffffffffffffffffffff168373ffffffffffffffffffffffffffffffffffffffff1614156105be576040517f08c379a00000000000000000000000000000000000000000000000000000000081526004016105b5906131b6565b60405180910390fd5b60008083815260200190815260200160002060008473ffffffffffffffffffffffffffffffffffffffff1673ffffffffffffffffffffffffffffffffffffffff16815260200190815260200160002054905092915050565b60007fd9b67a26000000000000000000000000000000000000000000000000000000007bffffffffffffffffffffffffffffffffffffffffffffffffffffffff1916827bffffffffffffffffffffffffffffffffffffffffffffffffffffffff191614806106e157507f0e89341c000000000000000000000000000000000000000000000000000000007bffffffffffffffffffffffffffffffffffffffffffffffffffffffff1916827bffffffffffffffffffffffffffffffffffffffffffffffffffffffff1916145b806106f157506106f0826116ce565b5b9050919050565b600780546107059061368c565b80601f01602080910402602001604051908101604052809291908181526020018280546107319061368c565b801561077e5780601f106107535761010080835404028352916020019161077e565b820191906000526020600020905b81548152906001019060200180831161076157829003601f168201915b505050505081565b6060600280546107959061368c565b80601f01602080910402602001604051908101604052809291908181526020018280546107c19061368c565b801561080e5780601f106107e35761010080835404028352916020019161080e565b820191906000526020600020905b8154815290600101906020018083116107f157829003601f168201915b50505050509050919050565b60008060068660405161082d9190612fec565b9081526020016040518091039020549050600061084a868361054d565b90508381101561088f576040517f08c379a000000000000000000000000000000000000000000000000000000000815260040161088690613296565b60405180910390fd5b6108ab8686848760405180602001604052806000815250611738565b6108d8600360009054906101000a900473ffffffffffffffffffffffffffffffffffffffff166000611260565b60006108e4878461054d565b905080600484815481106108fb576108fa613796565b5b90600052602060002090600b020160050181905550809350505050949350505050565b6109266119ba565b73ffffffffffffffffffffffffffffffffffffffff168573ffffffffffffffffffffffffffffffffffffffff16148061096c575061096b856109666119ba565b611487565b5b6109ab576040517f08c379a00000000000000000000000000000000000000000000000000000000081526004016109a290613216565b60405180910390fd5b6109b885858585856119c2565b5050505050565b600360009054906101000a900473ffffffffffffffffffffffffffffffffffffffff1681565b60608151835114610a2b576040517f08c379a0000000000000000000000000000000000000000000000000000000008152600401610a2290613276565b60405180910390fd5b6000835167ffffffffffffffff811115610a4857610a476137c5565b5b604051908082528060200260200182016040528015610a765781602001602082028036833780820191505090505b50905060005b8451811015610af357610ac3858281518110610a9b57610a9a613796565b5b6020026020010151858381518110610ab657610ab5613796565b5b602002602001015161054d565b828281518110610ad657610ad5613796565b5b60200260200101818152505080610aec906136ef565b9050610a7c565b508091505092915050565b60008060048054905090506000610b2685838d60405180602001604052806000815250611cd6565b8b600560008481526020019081526020016000209080519060200190610b4d92919061244c565b508160068a604051610b5f9190612fec565b9081526020016040518091039020819055506000610b7d868461054d565b905060046040518061018001604052808581526020018f81526020018e81526020018d81526020018c81526020018381526020018b81526020018a81526020018981526020018873ffffffffffffffffffffffffffffffffffffffff16815260200184151581526020018781525090806001815401808255809150506001900390600052602060002090600b0201600090919091909150600082015181600001556020820151816001019080519060200190610c3a92919061244c565b50604082015181600201556060820151816003019080519060200190610c6192919061244c565b506080820151816004019080519060200190610c7e92919061244c565b5060a0820151816005015560c0820151816006019080519060200190610ca592919061244c565b5060e0820151816007019080519060200190610cc292919061244c565b50610100820151816008019080519060200190610ce092919061244c565b506101208201518160090160006101000a81548173ffffffffffffffffffffffffffffffffffffffff021916908373ffffffffffffffffffffffffffffffffffffffff1602179055506101408201518160090160146101000a81548160ff02191690831515021790555061016082015181600a019080519060200190610d6792919061244c565b5050508293505050509998505050505050505050565b60048181548110610d8d57600080fd5b90600052602060002090600b0201600091509050806000015490806001018054610db69061368c565b80601f0160208091040260200160405190810160405280929190818152602001828054610de29061368c565b8015610e2f5780601f10610e0457610100808354040283529160200191610e2f565b820191906000526020600020905b815481529060010190602001808311610e1257829003601f168201915b505050505090806002015490806003018054610e4a9061368c565b80601f0160208091040260200160405190810160405280929190818152602001828054610e769061368c565b8015610ec35780601f10610e9857610100808354040283529160200191610ec3565b820191906000526020600020905b815481529060010190602001808311610ea657829003601f168201915b505050505090806004018054610ed89061368c565b80601f0160208091040260200160405190810160405280929190818152602001828054610f049061368c565b8015610f515780601f10610f2657610100808354040283529160200191610f51565b820191906000526020600020905b815481529060010190602001808311610f3457829003601f168201915b505050505090806005015490806006018054610f6c9061368c565b80601f0160208091040260200160405190810160405280929190818152602001828054610f989061368c565b8015610fe55780601f10610fba57610100808354040283529160200191610fe5565b820191906000526020600020905b815481529060010190602001808311610fc857829003601f168201915b505050505090806007018054610ffa9061368c565b80601f01602080910402602001604051908101604052809291908181526020018280546110269061368c565b80156110735780601f1061104857610100808354040283529160200191611073565b820191906000526020600020905b81548152906001019060200180831161105657829003601f168201915b5050505050908060080180546110889061368c565b80601f01602080910402602001604051908101604052809291908181526020018280546110b49061368c565b80156111015780601f106110d657610100808354040283529160200191611101565b820191906000526020600020905b8154815290600101906020018083116110e457829003601f168201915b5050505050908060090160009054906101000a900473ffffffffffffffffffffffffffffffffffffffff16908060090160149054906101000a900460ff169080600a01805461114f9061368c565b80601f016020809104026020016040519081016040528092919081815260200182805461117b9061368c565b80156111c85780601f1061119d576101008083540402835291602001916111c8565b820191906000526020600020905b8154815290600101906020018083116111ab57829003601f168201915b505050505090508c565b600880546111df9061368c565b80601f016020809104026020016040519081016040528092919081815260200182805461120b9061368c565b80156112585780601f1061122d57610100808354040283529160200191611258565b820191906000526020600020905b81548152906001019060200180831161123b57829003601f168201915b505050505081565b61127261126b6119ba565b8383611e6c565b5050565b6000806006836040516112899190612fec565b908152602001604051809103902054905080915050919050565b600560205280600052604060002060009150905080546112c29061368c565b80601f01602080910402602001604051908101604052809291908181526020018280546112ee9061368c565b801561133b5780601f106113105761010080835404028352916020019161133b565b820191906000526020600020905b81548152906001019060200180831161131e57829003601f168201915b505050505081565b6006818051602081018201805184825260208301602085012081835280955050505050506000915090505481565b6000806006866040516113849190612fec565b908152602001604051809103902054905060006113a1868361054d565b9050838110156113e6576040517f08c379a00000000000000000000000000000000000000000000000000000000081526004016113dd90613296565b60405180910390fd5b6114028686848760405180602001604052806000815250611738565b61142f600360009054906101000a900473ffffffffffffffffffffffffffffffffffffffff166000611260565b600061143b878461054d565b9050806004848154811061145257611451613796565b5b90600052602060002090600b020160050181905550809350505050949350505050565b60008060048054905090508091505090565b6000600160008473ffffffffffffffffffffffffffffffffffffffff1673ffffffffffffffffffffffffffffffffffffffff16815260200190815260200160002060008373ffffffffffffffffffffffffffffffffffffffff1673ffffffffffffffffffffffffffffffffffffffff16815260200190815260200160002060009054906101000a900460ff16905092915050565b6115236119ba565b73ffffffffffffffffffffffffffffffffffffffff168573ffffffffffffffffffffffffffffffffffffffff1614806115695750611568856115636119ba565b611487565b5b6115a8576040517f08c379a000000000000000000000000000000000000000000000000000000000815260040161159f906131d6565b60405180910390fd5b6115b58585858585611738565b5050505050565b6115e9600360009054906101000a900473ffffffffffffffffffffffffffffffffffffffff166001611260565b60006006826040516115fb9190612fec565b908152602001604051809103902054905060006004828154811061162257611621613796565b5b90600052602060002090600b020160090160009054906101000a900473ffffffffffffffffffffffffffffffffffffffff1690503373ffffffffffffffffffffffffffffffffffffffff168173ffffffffffffffffffffffffffffffffffffffff1614156116c9576001600483815481106116a05761169f613796565b5b90600052602060002090600b020160090160146101000a81548160ff0219169083151502179055505b505050565b60007f01ffc9a7000000000000000000000000000000000000000000000000000000007bffffffffffffffffffffffffffffffffffffffffffffffffffffffff1916827bffffffffffffffffffffffffffffffffffffffffffffffffffffffff1916149050919050565b600073ffffffffffffffffffffffffffffffffffffffff168473ffffffffffffffffffffffffffffffffffffffff1614156117a8576040517f08c379a000000000000000000000000000000000000000000000000000000000815260040161179f906131f6565b60405180910390fd5b60006117b26119ba565b90506117d28187876117c388611fd9565b6117cc88611fd9565b87612053565b600080600086815260200190815260200160002060008873ffffffffffffffffffffffffffffffffffffffff1673ffffffffffffffffffffffffffffffffffffffff16815260200190815260200160002054905083811015611869576040517f08c379a000000000000000000000000000000000000000000000000000000000815260040161186090613236565b60405180910390fd5b83810360008087815260200190815260200160002060008973ffffffffffffffffffffffffffffffffffffffff1673ffffffffffffffffffffffffffffffffffffffff168152602001908152602001600020819055508360008087815260200190815260200160002060008873ffffffffffffffffffffffffffffffffffffffff1673ffffffffffffffffffffffffffffffffffffffff168152602001908152602001600020600082825461191e9190613580565b925050819055508573ffffffffffffffffffffffffffffffffffffffff168773ffffffffffffffffffffffffffffffffffffffff168373ffffffffffffffffffffffffffffffffffffffff167fc3d58168c5ae7397731d063d5bbf3d657854427343f4c083240f7aacaa2d0f62888860405161199b9291906133fc565b60405180910390a46119b182888888888861205b565b50505050505050565b600033905090565b8151835114611a06576040517f08c379a00000000000000000000000000000000000000000000000000000000081526004016119fd906132b6565b60405180910390fd5b600073ffffffffffffffffffffffffffffffffffffffff168473ffffffffffffffffffffffffffffffffffffffff161415611a76576040517f08c379a0000000000000000000000000000000000000000000000000000000008152600401611a6d906131f6565b60405180910390fd5b6000611a806119ba565b9050611a90818787878787612053565b60005b8451811015611c41576000858281518110611ab157611ab0613796565b5b602002602001015190506000858381518110611ad057611acf613796565b5b60200260200101519050600080600084815260200190815260200160002060008b73ffffffffffffffffffffffffffffffffffffffff1673ffffffffffffffffffffffffffffffffffffffff16815260200190815260200160002054905081811015611b71576040517f08c379a0000000000000000000000000000000000000000000000000000000008152600401611b6890613236565b60405180910390fd5b81810360008085815260200190815260200160002060008c73ffffffffffffffffffffffffffffffffffffffff1673ffffffffffffffffffffffffffffffffffffffff168152602001908152602001600020819055508160008085815260200190815260200160002060008b73ffffffffffffffffffffffffffffffffffffffff1673ffffffffffffffffffffffffffffffffffffffff1681526020019081526020016000206000828254611c269190613580565b9250508190555050505080611c3a906136ef565b9050611a93565b508473ffffffffffffffffffffffffffffffffffffffff168673ffffffffffffffffffffffffffffffffffffffff168273ffffffffffffffffffffffffffffffffffffffff167f4a39dc06d4c0dbc64b70af90fd698a233a518aa5d07e595d983b8c0526c8f7fb8787604051611cb8929190613102565b60405180910390a4611cce818787878787612242565b505050505050565b600073ffffffffffffffffffffffffffffffffffffffff168473ffffffffffffffffffffffffffffffffffffffff161415611d46576040517f08c379a0000000000000000000000000000000000000000000000000000000008152600401611d3d906132d6565b60405180910390fd5b6000611d506119ba565b9050611d7181600087611d6288611fd9565b611d6b88611fd9565b87612053565b8260008086815260200190815260200160002060008773ffffffffffffffffffffffffffffffffffffffff1673ffffffffffffffffffffffffffffffffffffffff1681526020019081526020016000206000828254611dd09190613580565b925050819055508473ffffffffffffffffffffffffffffffffffffffff16600073ffffffffffffffffffffffffffffffffffffffff168273ffffffffffffffffffffffffffffffffffffffff167fc3d58168c5ae7397731d063d5bbf3d657854427343f4c083240f7aacaa2d0f628787604051611e4e9291906133fc565b60405180910390a4611e658160008787878761205b565b5050505050565b8173ffffffffffffffffffffffffffffffffffffffff168373ffffffffffffffffffffffffffffffffffffffff161415611edb576040517f08c379a0000000000000000000000000000000000000000000000000000000008152600401611ed290613256565b60405180910390fd5b80600160008573ffffffffffffffffffffffffffffffffffffffff1673ffffffffffffffffffffffffffffffffffffffff16815260200190815260200160002060008473ffffffffffffffffffffffffffffffffffffffff1673ffffffffffffffffffffffffffffffffffffffff16815260200190815260200160002060006101000a81548160ff0219169083151502179055508173ffffffffffffffffffffffffffffffffffffffff168373ffffffffffffffffffffffffffffffffffffffff167f17307eab39ab6107e8899845ad3d59bd9653f200f220920489ca2b5937696c3183604051611fcc9190613139565b60405180910390a3505050565b60606000600167ffffffffffffffff811115611ff857611ff76137c5565b5b6040519080825280602002602001820160405280156120265781602001602082028036833780820191505090505b509050828160008151811061203e5761203d613796565b5b60200260200101818152505080915050919050565b505050505050565b61207a8473ffffffffffffffffffffffffffffffffffffffff16612429565b1561223a578373ffffffffffffffffffffffffffffffffffffffff1663f23a6e6187878686866040518663ffffffff1660e01b81526004016120c0959493929190613086565b602060405180830381600087803b1580156120da57600080fd5b505af192505050801561210b57506040513d601f19601f820116820180604052508101906121089190612a3f565b60015b6121b1576121176137f4565b806308c379a01415612174575061212c613bdb565b806121375750612176565b806040517f08c379a000000000000000000000000000000000000000000000000000000000815260040161216b9190613154565b60405180910390fd5b505b6040517f08c379a00000000000000000000000000000000000000000000000000000000081526004016121a890613176565b60405180910390fd5b63f23a6e6160e01b7bffffffffffffffffffffffffffffffffffffffffffffffffffffffff1916817bffffffffffffffffffffffffffffffffffffffffffffffffffffffff191614612238576040517f08c379a000000000000000000000000000000000000000000000000000000000815260040161222f90613196565b60405180910390fd5b505b505050505050565b6122618473ffffffffffffffffffffffffffffffffffffffff16612429565b15612421578373ffffffffffffffffffffffffffffffffffffffff1663bc197c8187878686866040518663ffffffff1660e01b81526004016122a795949392919061301e565b602060405180830381600087803b1580156122c157600080fd5b505af19250505080156122f257506040513d601f19601f820116820180604052508101906122ef9190612a3f565b60015b612398576122fe6137f4565b806308c379a0141561235b5750612313613bdb565b8061231e575061235d565b806040517f08c379a00000000000000000000000000000000000000000000000000000000081526004016123529190613154565b60405180910390fd5b505b6040517f08c379a000000000000000000000000000000000000000000000000000000000815260040161238f90613176565b60405180910390fd5b63bc197c8160e01b7bffffffffffffffffffffffffffffffffffffffffffffffffffffffff1916817bffffffffffffffffffffffffffffffffffffffffffffffffffffffff19161461241f576040517f08c379a000000000000000000000000000000000000000000000000000000000815260040161241690613196565b60405180910390fd5b505b505050505050565b6000808273ffffffffffffffffffffffffffffffffffffffff163b119050919050565b8280546124589061368c565b90600052602060002090601f01602090048101928261247a57600085556124c1565b82601f1061249357805160ff19168380011785556124c1565b828001600101855582156124c1579182015b828111156124c05782518255916020019190600101906124a5565b5b5090506124ce91906124d2565b5090565b5b808211156124eb5760008160009055506001016124d3565b5090565b60006125026124fd8461344a565b613425565b905080838252602082019050828560208602820111156125255761252461381b565b5b60005b85811015612555578161253b8882612653565b845260208401935060208301925050600181019050612528565b5050509392505050565b600061257261256d84613476565b613425565b905080838252602082019050828560208602820111156125955761259461381b565b5b60005b858110156125c557816125ab888261275f565b845260208401935060208301925050600181019050612598565b5050509392505050565b60006125e26125dd846134a2565b613425565b9050828152602081018484840111156125fe576125fd613820565b5b61260984828561364a565b509392505050565b600061262461261f846134d3565b613425565b9050828152602081018484840111156126405761263f613820565b5b61264b84828561364a565b509392505050565b60008135905061266281613c71565b92915050565b600082601f83011261267d5761267c613816565b5b813561268d8482602086016124ef565b91505092915050565b600082601f8301126126ab576126aa613816565b5b81356126bb84826020860161255f565b91505092915050565b6000813590506126d381613c88565b92915050565b6000813590506126e881613c9f565b92915050565b6000815190506126fd81613c9f565b92915050565b600082601f83011261271857612717613816565b5b81356127288482602086016125cf565b91505092915050565b600082601f83011261274657612745613816565b5b8135612756848260208601612611565b91505092915050565b60008135905061276e81613cb6565b92915050565b6000806040838503121561278b5761278a61382a565b5b600061279985828601612653565b92505060206127aa85828601612653565b9150509250929050565b600080600080600060a086880312156127d0576127cf61382a565b5b60006127de88828901612653565b95505060206127ef88828901612653565b945050604086013567ffffffffffffffff8111156128105761280f613825565b5b61281c88828901612696565b935050606086013567ffffffffffffffff81111561283d5761283c613825565b5b61284988828901612696565b925050608086013567ffffffffffffffff81111561286a57612869613825565b5b61287688828901612703565b9150509295509295909350565b600080600080600060a0868803121561289f5761289e61382a565b5b60006128ad88828901612653565b95505060206128be88828901612653565b94505060406128cf8882890161275f565b93505060606128e08882890161275f565b925050608086013567ffffffffffffffff81111561290157612900613825565b5b61290d88828901612703565b9150509295509295909350565b600080604083850312156129315761293061382a565b5b600061293f85828601612653565b9250506020612950858286016126c4565b9150509250929050565b600080604083850312156129715761297061382a565b5b600061297f85828601612653565b92505060206129908582860161275f565b9150509250929050565b600080604083850312156129b1576129b061382a565b5b600083013567ffffffffffffffff8111156129cf576129ce613825565b5b6129db85828601612668565b925050602083013567ffffffffffffffff8111156129fc576129fb613825565b5b612a0885828601612696565b9150509250929050565b600060208284031215612a2857612a2761382a565b5b6000612a36848285016126d9565b91505092915050565b600060208284031215612a5557612a5461382a565b5b6000612a63848285016126ee565b91505092915050565b600060208284031215612a8257612a8161382a565b5b600082013567ffffffffffffffff811115612aa057612a9f613825565b5b612aac84828501612731565b91505092915050565b60008060008060808587031215612acf57612ace61382a565b5b600085013567ffffffffffffffff811115612aed57612aec613825565b5b612af987828801612731565b9450506020612b0a87828801612653565b9350506040612b1b87828801612653565b9250506060612b2c8782880161275f565b91505092959194509250565b60008060008060008060008060006101208a8c031215612b5b57612b5a61382a565b5b60008a013567ffffffffffffffff811115612b7957612b78613825565b5b612b858c828d01612731565b9950506020612b968c828d0161275f565b98505060408a013567ffffffffffffffff811115612bb757612bb6613825565b5b612bc38c828d01612731565b97505060608a013567ffffffffffffffff811115612be457612be3613825565b5b612bf08c828d01612731565b96505060808a013567ffffffffffffffff811115612c1157612c10613825565b5b612c1d8c828d01612731565b95505060a08a013567ffffffffffffffff811115612c3e57612c3d613825565b5b612c4a8c828d01612731565b94505060c08a013567ffffffffffffffff811115612c6b57612c6a613825565b5b612c778c828d01612731565b93505060e0612c888c828d01612653565b9250506101008a013567ffffffffffffffff811115612caa57612ca9613825565b5b612cb68c828d01612731565b9150509295985092959850929598565b600060208284031215612cdc57612cdb61382a565b5b6000612cea8482850161275f565b91505092915050565b6000612cff8383612fce565b60208301905092915050565b612d14816135d6565b82525050565b6000612d2582613514565b612d2f8185613542565b9350612d3a83613504565b8060005b83811015612d6b578151612d528882612cf3565b9750612d5d83613535565b925050600181019050612d3e565b5085935050505092915050565b612d81816135e8565b82525050565b6000612d928261351f565b612d9c8185613553565b9350612dac818560208601613659565b612db58161382f565b840191505092915050565b6000612dcb8261352a565b612dd58185613564565b9350612de5818560208601613659565b612dee8161382f565b840191505092915050565b6000612e048261352a565b612e0e8185613575565b9350612e1e818560208601613659565b80840191505092915050565b6000612e37603483613564565b9150612e428261384d565b604082019050919050565b6000612e5a602883613564565b9150612e658261389c565b604082019050919050565b6000612e7d602b83613564565b9150612e88826138eb565b604082019050919050565b6000612ea0602983613564565b9150612eab8261393a565b604082019050919050565b6000612ec3602583613564565b9150612ece82613989565b604082019050919050565b6000612ee6603283613564565b9150612ef1826139d8565b604082019050919050565b6000612f09602a83613564565b9150612f1482613a27565b604082019050919050565b6000612f2c602983613564565b9150612f3782613a76565b604082019050919050565b6000612f4f602983613564565b9150612f5a82613ac5565b604082019050919050565b6000612f72601883613564565b9150612f7d82613b14565b602082019050919050565b6000612f95602883613564565b9150612fa082613b3d565b604082019050919050565b6000612fb8602183613564565b9150612fc382613b8c565b604082019050919050565b612fd781613640565b82525050565b612fe681613640565b82525050565b6000612ff88284612df9565b915081905092915050565b60006020820190506130186000830184612d0b565b92915050565b600060a0820190506130336000830188612d0b565b6130406020830187612d0b565b81810360408301526130528186612d1a565b905081810360608301526130668185612d1a565b9050818103608083015261307a8184612d87565b90509695505050505050565b600060a08201905061309b6000830188612d0b565b6130a86020830187612d0b565b6130b56040830186612fdd565b6130c26060830185612fdd565b81810360808301526130d48184612d87565b90509695505050505050565b600060208201905081810360008301526130fa8184612d1a565b905092915050565b6000604082019050818103600083015261311c8185612d1a565b905081810360208301526131308184612d1a565b90509392505050565b600060208201905061314e6000830184612d78565b92915050565b6000602082019050818103600083015261316e8184612dc0565b905092915050565b6000602082019050818103600083015261318f81612e2a565b9050919050565b600060208201905081810360008301526131af81612e4d565b9050919050565b600060208201905081810360008301526131cf81612e70565b9050919050565b600060208201905081810360008301526131ef81612e93565b9050919050565b6000602082019050818103600083015261320f81612eb6565b9050919050565b6000602082019050818103600083015261322f81612ed9565b9050919050565b6000602082019050818103600083015261324f81612efc565b9050919050565b6000602082019050818103600083015261326f81612f1f565b9050919050565b6000602082019050818103600083015261328f81612f42565b9050919050565b600060208201905081810360008301526132af81612f65565b9050919050565b600060208201905081810360008301526132cf81612f88565b9050919050565b600060208201905081810360008301526132ef81612fab565b9050919050565b600060208201905061330b6000830184612fdd565b92915050565b600061018082019050613327600083018f612fdd565b8181036020830152613339818e612dc0565b9050613348604083018d612fdd565b818103606083015261335a818c612dc0565b9050818103608083015261336e818b612dc0565b905061337d60a083018a612fdd565b81810360c083015261338f8189612dc0565b905081810360e08301526133a38188612dc0565b90508181036101008301526133b88187612dc0565b90506133c8610120830186612d0b565b6133d6610140830185612d78565b8181036101608301526133e98184612dc0565b90509d9c50505050505050505050505050565b60006040820190506134116000830185612fdd565b61341e6020830184612fdd565b9392505050565b600061342f613440565b905061343b82826136be565b919050565b6000604051905090565b600067ffffffffffffffff821115613465576134646137c5565b5b602082029050602081019050919050565b600067ffffffffffffffff821115613491576134906137c5565b5b602082029050602081019050919050565b600067ffffffffffffffff8211156134bd576134bc6137c5565b5b6134c68261382f565b9050602081019050919050565b600067ffffffffffffffff8211156134ee576134ed6137c5565b5b6134f78261382f565b9050602081019050919050565b6000819050602082019050919050565b600081519050919050565b600081519050919050565b600081519050919050565b6000602082019050919050565b600082825260208201905092915050565b600082825260208201905092915050565b600082825260208201905092915050565b600081905092915050565b600061358b82613640565b915061359683613640565b9250827fffffffffffffffffffffffffffffffffffffffffffffffffffffffffffffffff038211156135cb576135ca613738565b5b828201905092915050565b60006135e182613620565b9050919050565b60008115159050919050565b60007fffffffff0000000000000000000000000000000000000000000000000000000082169050919050565b600073ffffffffffffffffffffffffffffffffffffffff82169050919050565b6000819050919050565b82818337600083830152505050565b60005b8381101561367757808201518184015260208101905061365c565b83811115613686576000848401525b50505050565b600060028204905060018216806136a457607f821691505b602082108114156136b8576136b7613767565b5b50919050565b6136c78261382f565b810181811067ffffffffffffffff821117156136e6576136e56137c5565b5b80604052505050565b60006136fa82613640565b91507fffffffffffffffffffffffffffffffffffffffffffffffffffffffffffffffff82141561372d5761372c613738565b5b600182019050919050565b7f4e487b7100000000000000000000000000000000000000000000000000000000600052601160045260246000fd5b7f4e487b7100000000000000000000000000000000000000000000000000000000600052602260045260246000fd5b7f4e487b7100000000000000000000000000000000000000000000000000000000600052603260045260246000fd5b7f4e487b7100000000000000000000000000000000000000000000000000000000600052604160045260246000fd5b600060033d11156138135760046000803e613810600051613840565b90505b90565b600080fd5b600080fd5b600080fd5b600080fd5b600080fd5b6000601f19601f8301169050919050565b60008160e01c9050919050565b7f455243313135353a207472616e7366657220746f206e6f6e204552433131353560008201527f526563656976657220696d706c656d656e746572000000000000000000000000602082015250565b7f455243313135353a204552433131353552656365697665722072656a6563746560008201527f6420746f6b656e73000000000000000000000000000000000000000000000000602082015250565b7f455243313135353a2062616c616e636520717565727920666f7220746865207a60008201527f65726f2061646472657373000000000000000000000000000000000000000000602082015250565b7f455243313135353a2063616c6c6572206973206e6f74206f776e6572206e6f7260008201527f20617070726f7665640000000000000000000000000000000000000000000000602082015250565b7f455243313135353a207472616e7366657220746f20746865207a65726f20616460008201527f6472657373000000000000000000000000000000000000000000000000000000602082015250565b7f455243313135353a207472616e736665722063616c6c6572206973206e6f742060008201527f6f776e6572206e6f7220617070726f7665640000000000000000000000000000602082015250565b7f455243313135353a20696e73756666696369656e742062616c616e636520666f60008201527f72207472616e7366657200000000000000000000000000000000000000000000602082015250565b7f455243313135353a2073657474696e6720617070726f76616c2073746174757360008201527f20666f722073656c660000000000000000000000000000000000000000000000602082015250565b7f455243313135353a206163636f756e747320616e6420696473206c656e67746860008201527f206d69736d617463680000000000000000000000000000000000000000000000602082015250565b7f4e6f7420656e6f75676820746f6b656e2062616c616e63650000000000000000600082015250565b7f455243313135353a2069647320616e6420616d6f756e7473206c656e6774682060008201527f6d69736d61746368000000000000000000000000000000000000000000000000602082015250565b7f455243313135353a206d696e7420746f20746865207a65726f2061646472657360008201527f7300000000000000000000000000000000000000000000000000000000000000602082015250565b600060443d1015613beb57613c6e565b613bf3613440565b60043d036004823e80513d602482011167ffffffffffffffff82111715613c1b575050613c6e565b808201805167ffffffffffffffff811115613c395750505050613c6e565b80602083010160043d038501811115613c56575050505050613c6e565b613c65826020018501866136be565b82955050505050505b90565b613c7a816135d6565b8114613c8557600080fd5b50565b613c91816135e8565b8114613c9c57600080fd5b50565b613ca8816135f4565b8114613cb357600080fd5b50565b613cbf81613640565b8114613cca57600080fd5b5056fea2646970667358221220fcce394f3c919d71ee34380d92fdc0ff2e4ab4189581ec97604ecaeb70d3c34164736f6c63430008070033",
  "linkReferences": {},
  "deployedLinkReferences": {}
}